{
	"solidity/MedicRecord.sol": {
		"MedicRecord": {
			"abi": [
				{
					"anonymous": false,
					"inputs": [
						{
							"indexed": false,
							"internalType": "address",
							"name": "doctorId",
							"type": "address"
						}
					],
					"name": "DoctorAdded",
					"type": "event"
				},
				{
					"anonymous": false,
					"inputs": [
						{
							"indexed": false,
							"internalType": "address",
							"name": "hospitaId",
							"type": "address"
						}
					],
					"name": "HospitalAdded",
					"type": "event"
				},
				{
					"anonymous": false,
					"inputs": [
						{
							"indexed": false,
							"internalType": "address",
							"name": "patientId",
							"type": "address"
						}
					],
					"name": "InsuranceAdded",
					"type": "event"
				},
				{
					"anonymous": false,
					"inputs": [
						{
							"indexed": false,
							"internalType": "address",
							"name": "patientId",
							"type": "address"
						}
					],
					"name": "PatientAdded",
					"type": "event"
				},
				{
					"anonymous": false,
					"inputs": [
						{
							"indexed": false,
							"internalType": "string",
							"name": "cid",
							"type": "string"
						},
						{
							"indexed": false,
							"internalType": "address",
							"name": "patientId",
							"type": "address"
						},
						{
							"indexed": false,
							"internalType": "address",
							"name": "doctorId",
							"type": "address"
						}
					],
					"name": "RecordAdded",
					"type": "event"
				},
				{
					"inputs": [
						{
							"internalType": "string",
							"name": "_nama",
							"type": "string"
						}
					],
					"name": "addDoctor",
					"outputs": [],
					"stateMutability": "nonpayable",
					"type": "function"
				},
				{
					"inputs": [
						{
							"internalType": "address",
							"name": "_hospitalId",
							"type": "address"
						},
						{
							"internalType": "string",
							"name": "_namaRs",
							"type": "string"
						}
					],
					"name": "addHospital",
					"outputs": [],
					"stateMutability": "nonpayable",
					"type": "function"
				},
				{
					"inputs": [
						{
							"internalType": "address",
							"name": "_insuranceId",
							"type": "address"
						},
						{
							"internalType": "string",
							"name": "_namaInsurance",
							"type": "string"
						}
					],
					"name": "addInsurance",
					"outputs": [],
					"stateMutability": "nonpayable",
					"type": "function"
				},
				{
					"inputs": [
						{
							"internalType": "address",
							"name": "_patientId",
							"type": "address"
						},
						{
							"internalType": "string",
							"name": "_nama",
							"type": "string"
						}
					],
					"name": "addPatient",
					"outputs": [],
					"stateMutability": "nonpayable",
					"type": "function"
				},
				{
					"inputs": [
						{
							"internalType": "string",
							"name": "_cid",
							"type": "string"
						},
						{
							"internalType": "address",
							"name": "_patientId",
							"type": "address"
						},
						{
							"internalType": "address",
							"name": "_doctorId",
							"type": "address"
						},
						{
							"internalType": "uint8",
							"name": "temperature",
							"type": "uint8"
						},
						{
							"internalType": "uint8",
							"name": "diastol",
							"type": "uint8"
						},
						{
							"internalType": "uint8",
							"name": "sistol",
							"type": "uint8"
						}
					],
					"name": "addRecord",
					"outputs": [],
					"stateMutability": "nonpayable",
					"type": "function"
				},
				{
					"inputs": [
						{
							"internalType": "address",
							"name": "",
							"type": "address"
						}
					],
					"name": "doctors",
					"outputs": [
						{
							"internalType": "address",
							"name": "id",
							"type": "address"
						},
						{
							"internalType": "string",
							"name": "nama",
							"type": "string"
						}
					],
					"stateMutability": "view",
					"type": "function"
				},
				{
					"inputs": [
						{
							"internalType": "address",
							"name": "_patientId",
							"type": "address"
						}
					],
					"name": "getPatientData",
					"outputs": [
						{
							"components": [
								{
									"internalType": "address",
									"name": "id",
									"type": "address"
								},
								{
									"internalType": "uint256",
									"name": "noKtp",
									"type": "uint256"
								},
								{
									"internalType": "string",
									"name": "nama",
									"type": "string"
								},
								{
									"internalType": "string",
									"name": "alamat",
									"type": "string"
								},
								{
									"internalType": "string",
									"name": "jenisKelamin",
									"type": "string"
								},
								{
									"internalType": "string",
									"name": "golonganDarah",
									"type": "string"
								},
								{
									"internalType": "uint256",
									"name": "nomorTelepon",
									"type": "uint256"
								},
								{
									"internalType": "uint256",
									"name": "noBpjs",
									"type": "uint256"
								},
								{
									"components": [
										{
											"internalType": "string",
											"name": "cid",
											"type": "string"
										},
										{
											"internalType": "address",
											"name": "patientId",
											"type": "address"
										},
										{
											"internalType": "address",
											"name": "doctorId",
											"type": "address"
										},
										{
											"internalType": "uint8",
											"name": "temperature",
											"type": "uint8"
										},
										{
											"internalType": "uint8",
											"name": "sistol",
											"type": "uint8"
										},
										{
											"internalType": "uint8",
											"name": "diastol",
											"type": "uint8"
										},
										{
											"internalType": "uint256",
											"name": "timeAdded",
											"type": "uint256"
										}
									],
									"internalType": "struct MedicRecord.Record[]",
									"name": "records",
									"type": "tuple[]"
								}
							],
							"internalType": "struct MedicRecord.Patient",
							"name": "",
							"type": "tuple"
						}
					],
					"stateMutability": "view",
					"type": "function"
				},
				{
					"inputs": [
						{
							"internalType": "address",
							"name": "_patientId",
							"type": "address"
						}
					],
					"name": "getPatientExists",
					"outputs": [
						{
							"internalType": "bool",
							"name": "",
							"type": "bool"
						}
					],
					"stateMutability": "view",
					"type": "function"
				},
				{
					"inputs": [
						{
							"internalType": "address",
							"name": "_patientId",
							"type": "address"
						}
					],
					"name": "getRecords",
					"outputs": [
						{
							"components": [
								{
									"internalType": "string",
									"name": "cid",
									"type": "string"
								},
								{
									"internalType": "address",
									"name": "patientId",
									"type": "address"
								},
								{
									"internalType": "address",
									"name": "doctorId",
									"type": "address"
								},
								{
									"internalType": "uint8",
									"name": "temperature",
									"type": "uint8"
								},
								{
									"internalType": "uint8",
									"name": "sistol",
									"type": "uint8"
								},
								{
									"internalType": "uint8",
									"name": "diastol",
									"type": "uint8"
								},
								{
									"internalType": "uint256",
									"name": "timeAdded",
									"type": "uint256"
								}
							],
							"internalType": "struct MedicRecord.Record[]",
							"name": "",
							"type": "tuple[]"
						}
					],
					"stateMutability": "view",
					"type": "function"
				},
				{
					"inputs": [],
					"name": "getSenderRole",
					"outputs": [
						{
							"internalType": "string",
							"name": "",
							"type": "string"
						}
					],
					"stateMutability": "view",
					"type": "function"
				},
				{
					"inputs": [
						{
							"internalType": "address",
							"name": "",
							"type": "address"
						}
					],
					"name": "hospitals",
					"outputs": [
						{
							"internalType": "address",
							"name": "id",
							"type": "address"
						},
						{
							"internalType": "string",
							"name": "nama",
							"type": "string"
						}
					],
					"stateMutability": "view",
					"type": "function"
				},
				{
					"inputs": [
						{
							"internalType": "address",
							"name": "",
							"type": "address"
						}
					],
					"name": "insurances",
					"outputs": [
						{
							"internalType": "address",
							"name": "id",
							"type": "address"
						},
						{
							"internalType": "string",
							"name": "nama",
							"type": "string"
						}
					],
					"stateMutability": "view",
					"type": "function"
				},
				{
					"inputs": [
						{
							"internalType": "address",
							"name": "",
							"type": "address"
						}
					],
					"name": "patients",
					"outputs": [
						{
							"internalType": "address",
							"name": "id",
							"type": "address"
						},
						{
							"internalType": "uint256",
							"name": "noKtp",
							"type": "uint256"
						},
						{
							"internalType": "string",
							"name": "nama",
							"type": "string"
						},
						{
							"internalType": "string",
							"name": "alamat",
							"type": "string"
						},
						{
							"internalType": "string",
							"name": "jenisKelamin",
							"type": "string"
						},
						{
							"internalType": "string",
							"name": "golonganDarah",
							"type": "string"
						},
						{
							"internalType": "uint256",
							"name": "nomorTelepon",
							"type": "uint256"
						},
						{
							"internalType": "uint256",
							"name": "noBpjs",
							"type": "uint256"
						}
					],
					"stateMutability": "view",
					"type": "function"
				}
			],
			"devdoc": {
				"kind": "dev",
				"methods": {},
				"version": 1
			},
			"evm": {
				"assembly": "    /* \"solidity/MedicRecord.sol\":58:3802  contract MedicRecord {... */\n  mstore(0x40, 0x80)\n  callvalue\n  dup1\n  iszero\n  tag_1\n  jumpi\n  0x00\n  dup1\n  revert\ntag_1:\n  pop\n  dataSize(sub_0)\n  dup1\n  dataOffset(sub_0)\n  0x00\n  codecopy\n  0x00\n  return\nstop\n\nsub_0: assembly {\n        /* \"solidity/MedicRecord.sol\":58:3802  contract MedicRecord {... */\n      mstore(0x40, 0x80)\n      callvalue\n      dup1\n      iszero\n      tag_1\n      jumpi\n      0x00\n      dup1\n      revert\n    tag_1:\n      pop\n      jumpi(tag_2, lt(calldatasize, 0x04))\n      shr(0xe0, calldataload(0x00))\n      dup1\n      0x48e81852\n      gt\n      tag_16\n      jumpi\n      dup1\n      0xa0076e84\n      gt\n      tag_17\n      jumpi\n      dup1\n      0xa0076e84\n      eq\n      tag_12\n      jumpi\n      dup1\n      0xa9583c22\n      eq\n      tag_13\n      jumpi\n      dup1\n      0xdb66c060\n      eq\n      tag_14\n      jumpi\n      dup1\n      0xf093cf80\n      eq\n      tag_15\n      jumpi\n      jump(tag_2)\n    tag_17:\n      dup1\n      0x48e81852\n      eq\n      tag_9\n      jumpi\n      dup1\n      0x7bc769ed\n      eq\n      tag_10\n      jumpi\n      dup1\n      0x81974553\n      eq\n      tag_11\n      jumpi\n      jump(tag_2)\n    tag_16:\n      dup1\n      0x0869cfbc\n      eq\n      tag_3\n      jumpi\n      dup1\n      0x0be61700\n      eq\n      tag_4\n      jumpi\n      dup1\n      0x26b5440a\n      eq\n      tag_5\n      jumpi\n      dup1\n      0x27bae60a\n      eq\n      tag_6\n      jumpi\n      dup1\n      0x3a88162e\n      eq\n      tag_7\n      jumpi\n      dup1\n      0x457bcea9\n      eq\n      tag_8\n      jumpi\n    tag_2:\n      0x00\n      dup1\n      revert\n        /* \"solidity/MedicRecord.sol\":645:689  mapping (address => Patient) public patients */\n    tag_3:\n      tag_18\n      0x04\n      dup1\n      calldatasize\n      sub\n      dup2\n      add\n      swap1\n      tag_19\n      swap2\n      swap1\n      tag_20\n      jump\t// in\n    tag_19:\n      tag_21\n      jump\t// in\n    tag_18:\n      mload(0x40)\n      tag_22\n      swap9\n      swap8\n      swap7\n      swap6\n      swap5\n      swap4\n      swap3\n      swap2\n      swap1\n      tag_23\n      jump\t// in\n    tag_22:\n      mload(0x40)\n      dup1\n      swap2\n      sub\n      swap1\n      return\n        /* \"solidity/MedicRecord.sol\":2444:2692  function addDoctor(string memory _nama) public {... */\n    tag_4:\n      tag_24\n      0x04\n      dup1\n      calldatasize\n      sub\n      dup2\n      add\n      swap1\n      tag_25\n      swap2\n      swap1\n      tag_26\n      jump\t// in\n    tag_25:\n      tag_27\n      jump\t// in\n    tag_24:\n      stop\n        /* \"solidity/MedicRecord.sol\":2122:2440  function addInsurance(address _insuranceId, string memory _namaInsurance) public {... */\n    tag_5:\n      tag_28\n      0x04\n      dup1\n      calldatasize\n      sub\n      dup2\n      add\n      swap1\n      tag_29\n      swap2\n      swap1\n      tag_30\n      jump\t// in\n    tag_29:\n      tag_31\n      jump\t// in\n    tag_28:\n      stop\n        /* \"solidity/MedicRecord.sol\":789:837  mapping (address => Insurance) public insurances */\n    tag_6:\n      tag_32\n      0x04\n      dup1\n      calldatasize\n      sub\n      dup2\n      add\n      swap1\n      tag_33\n      swap2\n      swap1\n      tag_20\n      jump\t// in\n    tag_33:\n      tag_34\n      jump\t// in\n    tag_32:\n      mload(0x40)\n      tag_35\n      swap3\n      swap2\n      swap1\n      tag_36\n      jump\t// in\n    tag_35:\n      mload(0x40)\n      dup1\n      swap2\n      sub\n      swap1\n      return\n        /* \"solidity/MedicRecord.sol\":3255:3515  function getSenderRole() public view returns (string memory) {... */\n    tag_7:\n      tag_37\n      tag_38\n      jump\t// in\n    tag_37:\n      mload(0x40)\n      tag_39\n      swap2\n      swap1\n      tag_40\n      jump\t// in\n    tag_39:\n      mload(0x40)\n      dup1\n      swap2\n      sub\n      swap1\n      return\n        /* \"solidity/MedicRecord.sol\":1810:2116  function addHospital(address _hospitalId, string memory _namaRs) public senderIsDoctor {... */\n    tag_8:\n      tag_41\n      0x04\n      dup1\n      calldatasize\n      sub\n      dup2\n      add\n      swap1\n      tag_42\n      swap2\n      swap1\n      tag_30\n      jump\t// in\n    tag_42:\n      tag_43\n      jump\t// in\n    tag_41:\n      stop\n        /* \"solidity/MedicRecord.sol\":3666:3800  function getPatientData(address _patientId) public view senderIsDoctor returns (Patient memory) {... */\n    tag_9:\n      tag_44\n      0x04\n      dup1\n      calldatasize\n      sub\n      dup2\n      add\n      swap1\n      tag_45\n      swap2\n      swap1\n      tag_20\n      jump\t// in\n    tag_45:\n      tag_46\n      jump\t// in\n    tag_44:\n      mload(0x40)\n      tag_47\n      swap2\n      swap1\n      tag_48\n      jump\t// in\n    tag_47:\n      mload(0x40)\n      dup1\n      swap2\n      sub\n      swap1\n      return\n        /* \"solidity/MedicRecord.sol\":3519:3662  function getPatientExists(address _patientId) public view senderIsDoctor returns (bool) {... */\n    tag_10:\n      tag_49\n      0x04\n      dup1\n      calldatasize\n      sub\n      dup2\n      add\n      swap1\n      tag_50\n      swap2\n      swap1\n      tag_20\n      jump\t// in\n    tag_50:\n      tag_51\n      jump\t// in\n    tag_49:\n      mload(0x40)\n      tag_52\n      swap2\n      swap1\n      tag_53\n      jump\t// in\n    tag_52:\n      mload(0x40)\n      dup1\n      swap2\n      sub\n      swap1\n      return\n        /* \"solidity/MedicRecord.sol\":2696:3082  function addRecord(string memory _cid, address _patientId, address _doctorId, uint8 temperature, uint8 diastol, uint8 sistol) public senderIsDoctor patientExists(_patientId) {... */\n    tag_11:\n      tag_54\n      0x04\n      dup1\n      calldatasize\n      sub\n      dup2\n      add\n      swap1\n      tag_55\n      swap2\n      swap1\n      tag_56\n      jump\t// in\n    tag_55:\n      tag_57\n      jump\t// in\n    tag_54:\n      stop\n        /* \"solidity/MedicRecord.sol\":3087:3250  function getRecords(address _patientId) public view senderExists patientExists(_patientId) returns (Record[] memory) {... */\n    tag_12:\n      tag_58\n      0x04\n      dup1\n      calldatasize\n      sub\n      dup2\n      add\n      swap1\n      tag_59\n      swap2\n      swap1\n      tag_20\n      jump\t// in\n    tag_59:\n      tag_60\n      jump\t// in\n    tag_58:\n      mload(0x40)\n      tag_61\n      swap2\n      swap1\n      tag_62\n      jump\t// in\n    tag_61:\n      mload(0x40)\n      dup1\n      swap2\n      sub\n      swap1\n      return\n        /* \"solidity/MedicRecord.sol\":693:735  mapping (address => Doctor) public doctors */\n    tag_13:\n      tag_63\n      0x04\n      dup1\n      calldatasize\n      sub\n      dup2\n      add\n      swap1\n      tag_64\n      swap2\n      swap1\n      tag_20\n      jump\t// in\n    tag_64:\n      tag_65\n      jump\t// in\n    tag_63:\n      mload(0x40)\n      tag_66\n      swap3\n      swap2\n      swap1\n      tag_36\n      jump\t// in\n    tag_66:\n      mload(0x40)\n      dup1\n      swap2\n      sub\n      swap1\n      return\n        /* \"solidity/MedicRecord.sol\":1517:1806  function addPatient(address _patientId, string memory _nama) public senderIsDoctor {... */\n    tag_14:\n      tag_67\n      0x04\n      dup1\n      calldatasize\n      sub\n      dup2\n      add\n      swap1\n      tag_68\n      swap2\n      swap1\n      tag_30\n      jump\t// in\n    tag_68:\n      tag_69\n      jump\t// in\n    tag_67:\n      stop\n        /* \"solidity/MedicRecord.sol\":739:785  mapping (address => Hospital) public hospitals */\n    tag_15:\n      tag_70\n      0x04\n      dup1\n      calldatasize\n      sub\n      dup2\n      add\n      swap1\n      tag_71\n      swap2\n      swap1\n      tag_20\n      jump\t// in\n    tag_71:\n      tag_72\n      jump\t// in\n    tag_70:\n      mload(0x40)\n      tag_73\n      swap3\n      swap2\n      swap1\n      tag_36\n      jump\t// in\n    tag_73:\n      mload(0x40)\n      dup1\n      swap2\n      sub\n      swap1\n      return\n        /* \"solidity/MedicRecord.sol\":645:689  mapping (address => Patient) public patients */\n    tag_21:\n      mstore(0x20, 0x00)\n      dup1\n      0x00\n      mstore\n      keccak256(0x00, 0x40)\n      0x00\n      swap2\n      pop\n      swap1\n      pop\n      dup1\n      0x00\n      add\n      0x00\n      swap1\n      sload\n      swap1\n      0x0100\n      exp\n      swap1\n      div\n      0xffffffffffffffffffffffffffffffffffffffff\n      and\n      swap1\n      dup1\n      0x01\n      add\n      sload\n      swap1\n      dup1\n      0x02\n      add\n      dup1\n      sload\n      tag_74\n      swap1\n      tag_75\n      jump\t// in\n    tag_74:\n      dup1\n      0x1f\n      add\n      0x20\n      dup1\n      swap2\n      div\n      mul\n      0x20\n      add\n      mload(0x40)\n      swap1\n      dup2\n      add\n      0x40\n      mstore\n      dup1\n      swap3\n      swap2\n      swap1\n      dup2\n      dup2\n      mstore\n      0x20\n      add\n      dup3\n      dup1\n      sload\n      tag_76\n      swap1\n      tag_75\n      jump\t// in\n    tag_76:\n      dup1\n      iszero\n      tag_77\n      jumpi\n      dup1\n      0x1f\n      lt\n      tag_78\n      jumpi\n      0x0100\n      dup1\n      dup4\n      sload\n      div\n      mul\n      dup4\n      mstore\n      swap2\n      0x20\n      add\n      swap2\n      jump(tag_77)\n    tag_78:\n      dup3\n      add\n      swap2\n      swap1\n      0x00\n      mstore\n      keccak256(0x00, 0x20)\n      swap1\n    tag_79:\n      dup2\n      sload\n      dup2\n      mstore\n      swap1\n      0x01\n      add\n      swap1\n      0x20\n      add\n      dup1\n      dup4\n      gt\n      tag_79\n      jumpi\n      dup3\n      swap1\n      sub\n      0x1f\n      and\n      dup3\n      add\n      swap2\n    tag_77:\n      pop\n      pop\n      pop\n      pop\n      pop\n      swap1\n      dup1\n      0x03\n      add\n      dup1\n      sload\n      tag_80\n      swap1\n      tag_75\n      jump\t// in\n    tag_80:\n      dup1\n      0x1f\n      add\n      0x20\n      dup1\n      swap2\n      div\n      mul\n      0x20\n      add\n      mload(0x40)\n      swap1\n      dup2\n      add\n      0x40\n      mstore\n      dup1\n      swap3\n      swap2\n      swap1\n      dup2\n      dup2\n      mstore\n      0x20\n      add\n      dup3\n      dup1\n      sload\n      tag_81\n      swap1\n      tag_75\n      jump\t// in\n    tag_81:\n      dup1\n      iszero\n      tag_82\n      jumpi\n      dup1\n      0x1f\n      lt\n      tag_83\n      jumpi\n      0x0100\n      dup1\n      dup4\n      sload\n      div\n      mul\n      dup4\n      mstore\n      swap2\n      0x20\n      add\n      swap2\n      jump(tag_82)\n    tag_83:\n      dup3\n      add\n      swap2\n      swap1\n      0x00\n      mstore\n      keccak256(0x00, 0x20)\n      swap1\n    tag_84:\n      dup2\n      sload\n      dup2\n      mstore\n      swap1\n      0x01\n      add\n      swap1\n      0x20\n      add\n      dup1\n      dup4\n      gt\n      tag_84\n      jumpi\n      dup3\n      swap1\n      sub\n      0x1f\n      and\n      dup3\n      add\n      swap2\n    tag_82:\n      pop\n      pop\n      pop\n      pop\n      pop\n      swap1\n      dup1\n      0x04\n      add\n      dup1\n      sload\n      tag_85\n      swap1\n      tag_75\n      jump\t// in\n    tag_85:\n      dup1\n      0x1f\n      add\n      0x20\n      dup1\n      swap2\n      div\n      mul\n      0x20\n      add\n      mload(0x40)\n      swap1\n      dup2\n      add\n      0x40\n      mstore\n      dup1\n      swap3\n      swap2\n      swap1\n      dup2\n      dup2\n      mstore\n      0x20\n      add\n      dup3\n      dup1\n      sload\n      tag_86\n      swap1\n      tag_75\n      jump\t// in\n    tag_86:\n      dup1\n      iszero\n      tag_87\n      jumpi\n      dup1\n      0x1f\n      lt\n      tag_88\n      jumpi\n      0x0100\n      dup1\n      dup4\n      sload\n      div\n      mul\n      dup4\n      mstore\n      swap2\n      0x20\n      add\n      swap2\n      jump(tag_87)\n    tag_88:\n      dup3\n      add\n      swap2\n      swap1\n      0x00\n      mstore\n      keccak256(0x00, 0x20)\n      swap1\n    tag_89:\n      dup2\n      sload\n      dup2\n      mstore\n      swap1\n      0x01\n      add\n      swap1\n      0x20\n      add\n      dup1\n      dup4\n      gt\n      tag_89\n      jumpi\n      dup3\n      swap1\n      sub\n      0x1f\n      and\n      dup3\n      add\n      swap2\n    tag_87:\n      pop\n      pop\n      pop\n      pop\n      pop\n      swap1\n      dup1\n      0x05\n      add\n      dup1\n      sload\n      tag_90\n      swap1\n      tag_75\n      jump\t// in\n    tag_90:\n      dup1\n      0x1f\n      add\n      0x20\n      dup1\n      swap2\n      div\n      mul\n      0x20\n      add\n      mload(0x40)\n      swap1\n      dup2\n      add\n      0x40\n      mstore\n      dup1\n      swap3\n      swap2\n      swap1\n      dup2\n      dup2\n      mstore\n      0x20\n      add\n      dup3\n      dup1\n      sload\n      tag_91\n      swap1\n      tag_75\n      jump\t// in\n    tag_91:\n      dup1\n      iszero\n      tag_92\n      jumpi\n      dup1\n      0x1f\n      lt\n      tag_93\n      jumpi\n      0x0100\n      dup1\n      dup4\n      sload\n      div\n      mul\n      dup4\n      mstore\n      swap2\n      0x20\n      add\n      swap2\n      jump(tag_92)\n    tag_93:\n      dup3\n      add\n      swap2\n      swap1\n      0x00\n      mstore\n      keccak256(0x00, 0x20)\n      swap1\n    tag_94:\n      dup2\n      sload\n      dup2\n      mstore\n      swap1\n      0x01\n      add\n      swap1\n      0x20\n      add\n      dup1\n      dup4\n      gt\n      tag_94\n      jumpi\n      dup3\n      swap1\n      sub\n      0x1f\n      and\n      dup3\n      add\n      swap2\n    tag_92:\n      pop\n      pop\n      pop\n      pop\n      pop\n      swap1\n      dup1\n      0x06\n      add\n      sload\n      swap1\n      dup1\n      0x07\n      add\n      sload\n      swap1\n      pop\n      dup9\n      jump\t// out\n        /* \"solidity/MedicRecord.sol\":2444:2692  function addDoctor(string memory _nama) public {... */\n    tag_27:\n        /* \"solidity/MedicRecord.sol\":2531:2541  msg.sender */\n      caller\n        /* \"solidity/MedicRecord.sol\":2505:2541  doctors[msg.sender].id != msg.sender */\n      0xffffffffffffffffffffffffffffffffffffffff\n      and\n        /* \"solidity/MedicRecord.sol\":2505:2512  doctors */\n      0x01\n        /* \"solidity/MedicRecord.sol\":2505:2524  doctors[msg.sender] */\n      0x00\n        /* \"solidity/MedicRecord.sol\":2513:2523  msg.sender */\n      caller\n        /* \"solidity/MedicRecord.sol\":2505:2524  doctors[msg.sender] */\n      0xffffffffffffffffffffffffffffffffffffffff\n      and\n      0xffffffffffffffffffffffffffffffffffffffff\n      and\n      dup2\n      mstore\n      0x20\n      add\n      swap1\n      dup2\n      mstore\n      0x20\n      add\n      0x00\n      keccak256\n        /* \"solidity/MedicRecord.sol\":2505:2527  doctors[msg.sender].id */\n      0x00\n      add\n      0x00\n      swap1\n      sload\n      swap1\n      0x0100\n      exp\n      swap1\n      div\n      0xffffffffffffffffffffffffffffffffffffffff\n      and\n        /* \"solidity/MedicRecord.sol\":2505:2541  doctors[msg.sender].id != msg.sender */\n      0xffffffffffffffffffffffffffffffffffffffff\n      and\n      sub\n        /* \"solidity/MedicRecord.sol\":2497:2573  require(doctors[msg.sender].id != msg.sender, \"This doctor already exists.\") */\n      tag_96\n      jumpi\n      mload(0x40)\n      0x08c379a000000000000000000000000000000000000000000000000000000000\n      dup2\n      mstore\n      0x04\n      add\n      tag_97\n      swap1\n      tag_98\n      jump\t// in\n    tag_97:\n      mload(0x40)\n      dup1\n      swap2\n      sub\n      swap1\n      revert\n    tag_96:\n        /* \"solidity/MedicRecord.sol\":2604:2614  msg.sender */\n      caller\n        /* \"solidity/MedicRecord.sol\":2579:2586  doctors */\n      0x01\n        /* \"solidity/MedicRecord.sol\":2579:2598  doctors[msg.sender] */\n      0x00\n        /* \"solidity/MedicRecord.sol\":2587:2597  msg.sender */\n      caller\n        /* \"solidity/MedicRecord.sol\":2579:2598  doctors[msg.sender] */\n      0xffffffffffffffffffffffffffffffffffffffff\n      and\n      0xffffffffffffffffffffffffffffffffffffffff\n      and\n      dup2\n      mstore\n      0x20\n      add\n      swap1\n      dup2\n      mstore\n      0x20\n      add\n      0x00\n      keccak256\n        /* \"solidity/MedicRecord.sol\":2579:2601  doctors[msg.sender].id */\n      0x00\n      add\n      0x00\n        /* \"solidity/MedicRecord.sol\":2579:2614  doctors[msg.sender].id = msg.sender */\n      0x0100\n      exp\n      dup2\n      sload\n      dup2\n      0xffffffffffffffffffffffffffffffffffffffff\n      mul\n      not\n      and\n      swap1\n      dup4\n      0xffffffffffffffffffffffffffffffffffffffff\n      and\n      mul\n      or\n      swap1\n      sstore\n      pop\n        /* \"solidity/MedicRecord.sol\":2647:2652  _nama */\n      dup1\n        /* \"solidity/MedicRecord.sol\":2620:2627  doctors */\n      0x01\n        /* \"solidity/MedicRecord.sol\":2620:2639  doctors[msg.sender] */\n      0x00\n        /* \"solidity/MedicRecord.sol\":2628:2638  msg.sender */\n      caller\n        /* \"solidity/MedicRecord.sol\":2620:2639  doctors[msg.sender] */\n      0xffffffffffffffffffffffffffffffffffffffff\n      and\n      0xffffffffffffffffffffffffffffffffffffffff\n      and\n      dup2\n      mstore\n      0x20\n      add\n      swap1\n      dup2\n      mstore\n      0x20\n      add\n      0x00\n      keccak256\n        /* \"solidity/MedicRecord.sol\":2620:2644  doctors[msg.sender].nama */\n      0x01\n      add\n        /* \"solidity/MedicRecord.sol\":2620:2652  doctors[msg.sender].nama = _nama */\n      swap1\n      dup2\n      tag_99\n      swap2\n      swap1\n      tag_100\n      jump\t// in\n    tag_99:\n      pop\n        /* \"solidity/MedicRecord.sol\":2664:2687  DoctorAdded(msg.sender) */\n      0x69908b2e63170aa89ef89719bbe3b4c92cccc38653968ab25f4464eff7c28ac8\n        /* \"solidity/MedicRecord.sol\":2676:2686  msg.sender */\n      caller\n        /* \"solidity/MedicRecord.sol\":2664:2687  DoctorAdded(msg.sender) */\n      mload(0x40)\n      tag_101\n      swap2\n      swap1\n      tag_102\n      jump\t// in\n    tag_101:\n      mload(0x40)\n      dup1\n      swap2\n      sub\n      swap1\n      log1\n        /* \"solidity/MedicRecord.sol\":2444:2692  function addDoctor(string memory _nama) public {... */\n      pop\n      jump\t// out\n        /* \"solidity/MedicRecord.sol\":2122:2440  function addInsurance(address _insuranceId, string memory _namaInsurance) public {... */\n    tag_31:\n        /* \"solidity/MedicRecord.sol\":2248:2260  _insuranceId */\n      dup2\n        /* \"solidity/MedicRecord.sol\":2217:2260  insurances[_insuranceId].id != _insuranceId */\n      0xffffffffffffffffffffffffffffffffffffffff\n      and\n        /* \"solidity/MedicRecord.sol\":2217:2227  insurances */\n      0x03\n        /* \"solidity/MedicRecord.sol\":2217:2241  insurances[_insuranceId] */\n      0x00\n        /* \"solidity/MedicRecord.sol\":2228:2240  _insuranceId */\n      dup5\n        /* \"solidity/MedicRecord.sol\":2217:2241  insurances[_insuranceId] */\n      0xffffffffffffffffffffffffffffffffffffffff\n      and\n      0xffffffffffffffffffffffffffffffffffffffff\n      and\n      dup2\n      mstore\n      0x20\n      add\n      swap1\n      dup2\n      mstore\n      0x20\n      add\n      0x00\n      keccak256\n        /* \"solidity/MedicRecord.sol\":2217:2244  insurances[_insuranceId].id */\n      0x00\n      add\n      0x00\n      swap1\n      sload\n      swap1\n      0x0100\n      exp\n      swap1\n      div\n      0xffffffffffffffffffffffffffffffffffffffff\n      and\n        /* \"solidity/MedicRecord.sol\":2217:2260  insurances[_insuranceId].id != _insuranceId */\n      0xffffffffffffffffffffffffffffffffffffffff\n      and\n      sub\n        /* \"solidity/MedicRecord.sol\":2209:2295  require(insurances[_insuranceId].id != _insuranceId, \"This insurance already exists.\") */\n      tag_104\n      jumpi\n      mload(0x40)\n      0x08c379a000000000000000000000000000000000000000000000000000000000\n      dup2\n      mstore\n      0x04\n      add\n      tag_105\n      swap1\n      tag_106\n      jump\t// in\n    tag_105:\n      mload(0x40)\n      dup1\n      swap2\n      sub\n      swap1\n      revert\n    tag_104:\n        /* \"solidity/MedicRecord.sol\":2331:2343  _insuranceId */\n      dup2\n        /* \"solidity/MedicRecord.sol\":2301:2311  insurances */\n      0x03\n        /* \"solidity/MedicRecord.sol\":2301:2325  insurances[_insuranceId] */\n      0x00\n        /* \"solidity/MedicRecord.sol\":2312:2324  _insuranceId */\n      dup5\n        /* \"solidity/MedicRecord.sol\":2301:2325  insurances[_insuranceId] */\n      0xffffffffffffffffffffffffffffffffffffffff\n      and\n      0xffffffffffffffffffffffffffffffffffffffff\n      and\n      dup2\n      mstore\n      0x20\n      add\n      swap1\n      dup2\n      mstore\n      0x20\n      add\n      0x00\n      keccak256\n        /* \"solidity/MedicRecord.sol\":2301:2328  insurances[_insuranceId].id */\n      0x00\n      add\n      0x00\n        /* \"solidity/MedicRecord.sol\":2301:2343  insurances[_insuranceId].id = _insuranceId */\n      0x0100\n      exp\n      dup2\n      sload\n      dup2\n      0xffffffffffffffffffffffffffffffffffffffff\n      mul\n      not\n      and\n      swap1\n      dup4\n      0xffffffffffffffffffffffffffffffffffffffff\n      and\n      mul\n      or\n      swap1\n      sstore\n      pop\n        /* \"solidity/MedicRecord.sol\":2381:2395  _namaInsurance */\n      dup1\n        /* \"solidity/MedicRecord.sol\":2349:2359  insurances */\n      0x03\n        /* \"solidity/MedicRecord.sol\":2349:2373  insurances[_insuranceId] */\n      0x00\n        /* \"solidity/MedicRecord.sol\":2360:2372  _insuranceId */\n      dup5\n        /* \"solidity/MedicRecord.sol\":2349:2373  insurances[_insuranceId] */\n      0xffffffffffffffffffffffffffffffffffffffff\n      and\n      0xffffffffffffffffffffffffffffffffffffffff\n      and\n      dup2\n      mstore\n      0x20\n      add\n      swap1\n      dup2\n      mstore\n      0x20\n      add\n      0x00\n      keccak256\n        /* \"solidity/MedicRecord.sol\":2349:2378  insurances[_insuranceId].nama */\n      0x01\n      add\n        /* \"solidity/MedicRecord.sol\":2349:2395  insurances[_insuranceId].nama = _namaInsurance */\n      swap1\n      dup2\n      tag_107\n      swap2\n      swap1\n      tag_100\n      jump\t// in\n    tag_107:\n      pop\n        /* \"solidity/MedicRecord.sol\":2407:2435  InsuranceAdded(_insuranceId) */\n      0x0d017ca7e087763e37d963098c041704b8f461afbeb90695705d44a74f6639cb\n        /* \"solidity/MedicRecord.sol\":2422:2434  _insuranceId */\n      dup3\n        /* \"solidity/MedicRecord.sol\":2407:2435  InsuranceAdded(_insuranceId) */\n      mload(0x40)\n      tag_108\n      swap2\n      swap1\n      tag_102\n      jump\t// in\n    tag_108:\n      mload(0x40)\n      dup1\n      swap2\n      sub\n      swap1\n      log1\n        /* \"solidity/MedicRecord.sol\":2122:2440  function addInsurance(address _insuranceId, string memory _namaInsurance) public {... */\n      pop\n      pop\n      jump\t// out\n        /* \"solidity/MedicRecord.sol\":789:837  mapping (address => Insurance) public insurances */\n    tag_34:\n      mstore(0x20, 0x03)\n      dup1\n      0x00\n      mstore\n      keccak256(0x00, 0x40)\n      0x00\n      swap2\n      pop\n      swap1\n      pop\n      dup1\n      0x00\n      add\n      0x00\n      swap1\n      sload\n      swap1\n      0x0100\n      exp\n      swap1\n      div\n      0xffffffffffffffffffffffffffffffffffffffff\n      and\n      swap1\n      dup1\n      0x01\n      add\n      dup1\n      sload\n      tag_109\n      swap1\n      tag_75\n      jump\t// in\n    tag_109:\n      dup1\n      0x1f\n      add\n      0x20\n      dup1\n      swap2\n      div\n      mul\n      0x20\n      add\n      mload(0x40)\n      swap1\n      dup2\n      add\n      0x40\n      mstore\n      dup1\n      swap3\n      swap2\n      swap1\n      dup2\n      dup2\n      mstore\n      0x20\n      add\n      dup3\n      dup1\n      sload\n      tag_110\n      swap1\n      tag_75\n      jump\t// in\n    tag_110:\n      dup1\n      iszero\n      tag_111\n      jumpi\n      dup1\n      0x1f\n      lt\n      tag_112\n      jumpi\n      0x0100\n      dup1\n      dup4\n      sload\n      div\n      mul\n      dup4\n      mstore\n      swap2\n      0x20\n      add\n      swap2\n      jump(tag_111)\n    tag_112:\n      dup3\n      add\n      swap2\n      swap1\n      0x00\n      mstore\n      keccak256(0x00, 0x20)\n      swap1\n    tag_113:\n      dup2\n      sload\n      dup2\n      mstore\n      swap1\n      0x01\n      add\n      swap1\n      0x20\n      add\n      dup1\n      dup4\n      gt\n      tag_113\n      jumpi\n      dup3\n      swap1\n      sub\n      0x1f\n      and\n      dup3\n      add\n      swap2\n    tag_111:\n      pop\n      pop\n      pop\n      pop\n      pop\n      swap1\n      pop\n      dup3\n      jump\t// out\n        /* \"solidity/MedicRecord.sol\":3255:3515  function getSenderRole() public view returns (string memory) {... */\n    tag_38:\n        /* \"solidity/MedicRecord.sol\":3301:3314  string memory */\n      0x60\n        /* \"solidity/MedicRecord.sol\":3352:3362  msg.sender */\n      caller\n        /* \"solidity/MedicRecord.sol\":3326:3362  doctors[msg.sender].id == msg.sender */\n      0xffffffffffffffffffffffffffffffffffffffff\n      and\n        /* \"solidity/MedicRecord.sol\":3326:3333  doctors */\n      0x01\n        /* \"solidity/MedicRecord.sol\":3326:3345  doctors[msg.sender] */\n      0x00\n        /* \"solidity/MedicRecord.sol\":3334:3344  msg.sender */\n      caller\n        /* \"solidity/MedicRecord.sol\":3326:3345  doctors[msg.sender] */\n      0xffffffffffffffffffffffffffffffffffffffff\n      and\n      0xffffffffffffffffffffffffffffffffffffffff\n      and\n      dup2\n      mstore\n      0x20\n      add\n      swap1\n      dup2\n      mstore\n      0x20\n      add\n      0x00\n      keccak256\n        /* \"solidity/MedicRecord.sol\":3326:3348  doctors[msg.sender].id */\n      0x00\n      add\n      0x00\n      swap1\n      sload\n      swap1\n      0x0100\n      exp\n      swap1\n      div\n      0xffffffffffffffffffffffffffffffffffffffff\n      and\n        /* \"solidity/MedicRecord.sol\":3326:3362  doctors[msg.sender].id == msg.sender */\n      0xffffffffffffffffffffffffffffffffffffffff\n      and\n      sub\n        /* \"solidity/MedicRecord.sol\":3322:3511  if (doctors[msg.sender].id == msg.sender) {... */\n      tag_115\n      jumpi\n        /* \"solidity/MedicRecord.sol\":3372:3387  return \"doctor\" */\n      mload(0x40)\n      dup1\n      0x40\n      add\n      0x40\n      mstore\n      dup1\n      0x06\n      dup2\n      mstore\n      0x20\n      add\n      0x646f63746f720000000000000000000000000000000000000000000000000000\n      dup2\n      mstore\n      pop\n      swap1\n      pop\n      jump(tag_114)\n        /* \"solidity/MedicRecord.sol\":3322:3511  if (doctors[msg.sender].id == msg.sender) {... */\n    tag_115:\n        /* \"solidity/MedicRecord.sol\":3431:3441  msg.sender */\n      caller\n        /* \"solidity/MedicRecord.sol\":3404:3441  patients[msg.sender].id == msg.sender */\n      0xffffffffffffffffffffffffffffffffffffffff\n      and\n        /* \"solidity/MedicRecord.sol\":3404:3412  patients */\n      0x00\n        /* \"solidity/MedicRecord.sol\":3404:3424  patients[msg.sender] */\n      dup1\n        /* \"solidity/MedicRecord.sol\":3413:3423  msg.sender */\n      caller\n        /* \"solidity/MedicRecord.sol\":3404:3424  patients[msg.sender] */\n      0xffffffffffffffffffffffffffffffffffffffff\n      and\n      0xffffffffffffffffffffffffffffffffffffffff\n      and\n      dup2\n      mstore\n      0x20\n      add\n      swap1\n      dup2\n      mstore\n      0x20\n      add\n      0x00\n      keccak256\n        /* \"solidity/MedicRecord.sol\":3404:3427  patients[msg.sender].id */\n      0x00\n      add\n      0x00\n      swap1\n      sload\n      swap1\n      0x0100\n      exp\n      swap1\n      div\n      0xffffffffffffffffffffffffffffffffffffffff\n      and\n        /* \"solidity/MedicRecord.sol\":3404:3441  patients[msg.sender].id == msg.sender */\n      0xffffffffffffffffffffffffffffffffffffffff\n      and\n      sub\n        /* \"solidity/MedicRecord.sol\":3400:3511  if (patients[msg.sender].id == msg.sender) {... */\n      tag_117\n      jumpi\n        /* \"solidity/MedicRecord.sol\":3451:3467  return \"patient\" */\n      mload(0x40)\n      dup1\n      0x40\n      add\n      0x40\n      mstore\n      dup1\n      0x07\n      dup2\n      mstore\n      0x20\n      add\n      0x70617469656e7400000000000000000000000000000000000000000000000000\n      dup2\n      mstore\n      pop\n      swap1\n      pop\n      jump(tag_114)\n        /* \"solidity/MedicRecord.sol\":3400:3511  if (patients[msg.sender].id == msg.sender) {... */\n    tag_117:\n        /* \"solidity/MedicRecord.sol\":3488:3504  return \"unknown\" */\n      mload(0x40)\n      dup1\n      0x40\n      add\n      0x40\n      mstore\n      dup1\n      0x07\n      dup2\n      mstore\n      0x20\n      add\n      0x756e6b6e6f776e00000000000000000000000000000000000000000000000000\n      dup2\n      mstore\n      pop\n      swap1\n      pop\n        /* \"solidity/MedicRecord.sol\":3255:3515  function getSenderRole() public view returns (string memory) {... */\n    tag_114:\n      swap1\n      jump\t// out\n        /* \"solidity/MedicRecord.sol\":1810:2116  function addHospital(address _hospitalId, string memory _namaRs) public senderIsDoctor {... */\n    tag_43:\n        /* \"solidity/MedicRecord.sol\":1448:1458  msg.sender */\n      caller\n        /* \"solidity/MedicRecord.sol\":1422:1458  doctors[msg.sender].id == msg.sender */\n      0xffffffffffffffffffffffffffffffffffffffff\n      and\n        /* \"solidity/MedicRecord.sol\":1422:1429  doctors */\n      0x01\n        /* \"solidity/MedicRecord.sol\":1422:1441  doctors[msg.sender] */\n      0x00\n        /* \"solidity/MedicRecord.sol\":1430:1440  msg.sender */\n      caller\n        /* \"solidity/MedicRecord.sol\":1422:1441  doctors[msg.sender] */\n      0xffffffffffffffffffffffffffffffffffffffff\n      and\n      0xffffffffffffffffffffffffffffffffffffffff\n      and\n      dup2\n      mstore\n      0x20\n      add\n      swap1\n      dup2\n      mstore\n      0x20\n      add\n      0x00\n      keccak256\n        /* \"solidity/MedicRecord.sol\":1422:1444  doctors[msg.sender].id */\n      0x00\n      add\n      0x00\n      swap1\n      sload\n      swap1\n      0x0100\n      exp\n      swap1\n      div\n      0xffffffffffffffffffffffffffffffffffffffff\n      and\n        /* \"solidity/MedicRecord.sol\":1422:1458  doctors[msg.sender].id == msg.sender */\n      0xffffffffffffffffffffffffffffffffffffffff\n      and\n      eq\n        /* \"solidity/MedicRecord.sol\":1414:1485  require(doctors[msg.sender].id == msg.sender, \"Sender is not a doctor\") */\n      tag_120\n      jumpi\n      mload(0x40)\n      0x08c379a000000000000000000000000000000000000000000000000000000000\n      dup2\n      mstore\n      0x04\n      add\n      tag_121\n      swap1\n      tag_122\n      jump\t// in\n    tag_121:\n      mload(0x40)\n      dup1\n      swap2\n      sub\n      swap1\n      revert\n    tag_120:\n        /* \"solidity/MedicRecord.sol\":1940:1951  _hospitalId */\n      dup2\n        /* \"solidity/MedicRecord.sol\":1911:1951  hospitals[_hospitalId].id != _hospitalId */\n      0xffffffffffffffffffffffffffffffffffffffff\n      and\n        /* \"solidity/MedicRecord.sol\":1911:1920  hospitals */\n      0x02\n        /* \"solidity/MedicRecord.sol\":1911:1933  hospitals[_hospitalId] */\n      0x00\n        /* \"solidity/MedicRecord.sol\":1921:1932  _hospitalId */\n      dup5\n        /* \"solidity/MedicRecord.sol\":1911:1933  hospitals[_hospitalId] */\n      0xffffffffffffffffffffffffffffffffffffffff\n      and\n      0xffffffffffffffffffffffffffffffffffffffff\n      and\n      dup2\n      mstore\n      0x20\n      add\n      swap1\n      dup2\n      mstore\n      0x20\n      add\n      0x00\n      keccak256\n        /* \"solidity/MedicRecord.sol\":1911:1936  hospitals[_hospitalId].id */\n      0x00\n      add\n      0x00\n      swap1\n      sload\n      swap1\n      0x0100\n      exp\n      swap1\n      div\n      0xffffffffffffffffffffffffffffffffffffffff\n      and\n        /* \"solidity/MedicRecord.sol\":1911:1951  hospitals[_hospitalId].id != _hospitalId */\n      0xffffffffffffffffffffffffffffffffffffffff\n      and\n      sub\n        /* \"solidity/MedicRecord.sol\":1903:1985  require(hospitals[_hospitalId].id != _hospitalId, \"This hospital already exists.\") */\n      tag_124\n      jumpi\n      mload(0x40)\n      0x08c379a000000000000000000000000000000000000000000000000000000000\n      dup2\n      mstore\n      0x04\n      add\n      tag_125\n      swap1\n      tag_126\n      jump\t// in\n    tag_125:\n      mload(0x40)\n      dup1\n      swap2\n      sub\n      swap1\n      revert\n    tag_124:\n        /* \"solidity/MedicRecord.sol\":2019:2030  _hospitalId */\n      dup2\n        /* \"solidity/MedicRecord.sol\":1991:2000  hospitals */\n      0x02\n        /* \"solidity/MedicRecord.sol\":1991:2013  hospitals[_hospitalId] */\n      0x00\n        /* \"solidity/MedicRecord.sol\":2001:2012  _hospitalId */\n      dup5\n        /* \"solidity/MedicRecord.sol\":1991:2013  hospitals[_hospitalId] */\n      0xffffffffffffffffffffffffffffffffffffffff\n      and\n      0xffffffffffffffffffffffffffffffffffffffff\n      and\n      dup2\n      mstore\n      0x20\n      add\n      swap1\n      dup2\n      mstore\n      0x20\n      add\n      0x00\n      keccak256\n        /* \"solidity/MedicRecord.sol\":1991:2016  hospitals[_hospitalId].id */\n      0x00\n      add\n      0x00\n        /* \"solidity/MedicRecord.sol\":1991:2030  hospitals[_hospitalId].id = _hospitalId */\n      0x0100\n      exp\n      dup2\n      sload\n      dup2\n      0xffffffffffffffffffffffffffffffffffffffff\n      mul\n      not\n      and\n      swap1\n      dup4\n      0xffffffffffffffffffffffffffffffffffffffff\n      and\n      mul\n      or\n      swap1\n      sstore\n      pop\n        /* \"solidity/MedicRecord.sol\":2066:2073  _namaRs */\n      dup1\n        /* \"solidity/MedicRecord.sol\":2036:2045  hospitals */\n      0x02\n        /* \"solidity/MedicRecord.sol\":2036:2058  hospitals[_hospitalId] */\n      0x00\n        /* \"solidity/MedicRecord.sol\":2046:2057  _hospitalId */\n      dup5\n        /* \"solidity/MedicRecord.sol\":2036:2058  hospitals[_hospitalId] */\n      0xffffffffffffffffffffffffffffffffffffffff\n      and\n      0xffffffffffffffffffffffffffffffffffffffff\n      and\n      dup2\n      mstore\n      0x20\n      add\n      swap1\n      dup2\n      mstore\n      0x20\n      add\n      0x00\n      keccak256\n        /* \"solidity/MedicRecord.sol\":2036:2063  hospitals[_hospitalId].nama */\n      0x01\n      add\n        /* \"solidity/MedicRecord.sol\":2036:2073  hospitals[_hospitalId].nama = _namaRs */\n      swap1\n      dup2\n      tag_127\n      swap2\n      swap1\n      tag_100\n      jump\t// in\n    tag_127:\n      pop\n        /* \"solidity/MedicRecord.sol\":2085:2111  HospitalAdded(_hospitalId) */\n      0x98b422b4248851ae9e727f5fd491b255462f5872bd0493c1ddf7308ccedfa1a2\n        /* \"solidity/MedicRecord.sol\":2099:2110  _hospitalId */\n      dup3\n        /* \"solidity/MedicRecord.sol\":2085:2111  HospitalAdded(_hospitalId) */\n      mload(0x40)\n      tag_128\n      swap2\n      swap1\n      tag_102\n      jump\t// in\n    tag_128:\n      mload(0x40)\n      dup1\n      swap2\n      sub\n      swap1\n      log1\n        /* \"solidity/MedicRecord.sol\":1810:2116  function addHospital(address _hospitalId, string memory _namaRs) public senderIsDoctor {... */\n      pop\n      pop\n      jump\t// out\n        /* \"solidity/MedicRecord.sol\":3666:3800  function getPatientData(address _patientId) public view senderIsDoctor returns (Patient memory) {... */\n    tag_46:\n        /* \"solidity/MedicRecord.sol\":3746:3760  Patient memory */\n      tag_129\n      tag_130\n      jump\t// in\n    tag_129:\n        /* \"solidity/MedicRecord.sol\":1448:1458  msg.sender */\n      caller\n        /* \"solidity/MedicRecord.sol\":1422:1458  doctors[msg.sender].id == msg.sender */\n      0xffffffffffffffffffffffffffffffffffffffff\n      and\n        /* \"solidity/MedicRecord.sol\":1422:1429  doctors */\n      0x01\n        /* \"solidity/MedicRecord.sol\":1422:1441  doctors[msg.sender] */\n      0x00\n        /* \"solidity/MedicRecord.sol\":1430:1440  msg.sender */\n      caller\n        /* \"solidity/MedicRecord.sol\":1422:1441  doctors[msg.sender] */\n      0xffffffffffffffffffffffffffffffffffffffff\n      and\n      0xffffffffffffffffffffffffffffffffffffffff\n      and\n      dup2\n      mstore\n      0x20\n      add\n      swap1\n      dup2\n      mstore\n      0x20\n      add\n      0x00\n      keccak256\n        /* \"solidity/MedicRecord.sol\":1422:1444  doctors[msg.sender].id */\n      0x00\n      add\n      0x00\n      swap1\n      sload\n      swap1\n      0x0100\n      exp\n      swap1\n      div\n      0xffffffffffffffffffffffffffffffffffffffff\n      and\n        /* \"solidity/MedicRecord.sol\":1422:1458  doctors[msg.sender].id == msg.sender */\n      0xffffffffffffffffffffffffffffffffffffffff\n      and\n      eq\n        /* \"solidity/MedicRecord.sol\":1414:1485  require(doctors[msg.sender].id == msg.sender, \"Sender is not a doctor\") */\n      tag_132\n      jumpi\n      mload(0x40)\n      0x08c379a000000000000000000000000000000000000000000000000000000000\n      dup2\n      mstore\n      0x04\n      add\n      tag_133\n      swap1\n      tag_122\n      jump\t// in\n    tag_133:\n      mload(0x40)\n      dup1\n      swap2\n      sub\n      swap1\n      revert\n    tag_132:\n        /* \"solidity/MedicRecord.sol\":3775:3783  patients */\n      0x00\n        /* \"solidity/MedicRecord.sol\":3775:3795  patients[_patientId] */\n      dup1\n        /* \"solidity/MedicRecord.sol\":3784:3794  _patientId */\n      dup4\n        /* \"solidity/MedicRecord.sol\":3775:3795  patients[_patientId] */\n      0xffffffffffffffffffffffffffffffffffffffff\n      and\n      0xffffffffffffffffffffffffffffffffffffffff\n      and\n      dup2\n      mstore\n      0x20\n      add\n      swap1\n      dup2\n      mstore\n      0x20\n      add\n      0x00\n      keccak256\n        /* \"solidity/MedicRecord.sol\":3768:3795  return patients[_patientId] */\n      mload(0x40)\n      dup1\n      0x0120\n      add\n      0x40\n      mstore\n      swap1\n      dup2\n      0x00\n      dup3\n      add\n      0x00\n      swap1\n      sload\n      swap1\n      0x0100\n      exp\n      swap1\n      div\n      0xffffffffffffffffffffffffffffffffffffffff\n      and\n      0xffffffffffffffffffffffffffffffffffffffff\n      and\n      0xffffffffffffffffffffffffffffffffffffffff\n      and\n      dup2\n      mstore\n      0x20\n      add\n      0x01\n      dup3\n      add\n      sload\n      dup2\n      mstore\n      0x20\n      add\n      0x02\n      dup3\n      add\n      dup1\n      sload\n      tag_135\n      swap1\n      tag_75\n      jump\t// in\n    tag_135:\n      dup1\n      0x1f\n      add\n      0x20\n      dup1\n      swap2\n      div\n      mul\n      0x20\n      add\n      mload(0x40)\n      swap1\n      dup2\n      add\n      0x40\n      mstore\n      dup1\n      swap3\n      swap2\n      swap1\n      dup2\n      dup2\n      mstore\n      0x20\n      add\n      dup3\n      dup1\n      sload\n      tag_136\n      swap1\n      tag_75\n      jump\t// in\n    tag_136:\n      dup1\n      iszero\n      tag_137\n      jumpi\n      dup1\n      0x1f\n      lt\n      tag_138\n      jumpi\n      0x0100\n      dup1\n      dup4\n      sload\n      div\n      mul\n      dup4\n      mstore\n      swap2\n      0x20\n      add\n      swap2\n      jump(tag_137)\n    tag_138:\n      dup3\n      add\n      swap2\n      swap1\n      0x00\n      mstore\n      keccak256(0x00, 0x20)\n      swap1\n    tag_139:\n      dup2\n      sload\n      dup2\n      mstore\n      swap1\n      0x01\n      add\n      swap1\n      0x20\n      add\n      dup1\n      dup4\n      gt\n      tag_139\n      jumpi\n      dup3\n      swap1\n      sub\n      0x1f\n      and\n      dup3\n      add\n      swap2\n    tag_137:\n      pop\n      pop\n      pop\n      pop\n      pop\n      dup2\n      mstore\n      0x20\n      add\n      0x03\n      dup3\n      add\n      dup1\n      sload\n      tag_140\n      swap1\n      tag_75\n      jump\t// in\n    tag_140:\n      dup1\n      0x1f\n      add\n      0x20\n      dup1\n      swap2\n      div\n      mul\n      0x20\n      add\n      mload(0x40)\n      swap1\n      dup2\n      add\n      0x40\n      mstore\n      dup1\n      swap3\n      swap2\n      swap1\n      dup2\n      dup2\n      mstore\n      0x20\n      add\n      dup3\n      dup1\n      sload\n      tag_141\n      swap1\n      tag_75\n      jump\t// in\n    tag_141:\n      dup1\n      iszero\n      tag_142\n      jumpi\n      dup1\n      0x1f\n      lt\n      tag_143\n      jumpi\n      0x0100\n      dup1\n      dup4\n      sload\n      div\n      mul\n      dup4\n      mstore\n      swap2\n      0x20\n      add\n      swap2\n      jump(tag_142)\n    tag_143:\n      dup3\n      add\n      swap2\n      swap1\n      0x00\n      mstore\n      keccak256(0x00, 0x20)\n      swap1\n    tag_144:\n      dup2\n      sload\n      dup2\n      mstore\n      swap1\n      0x01\n      add\n      swap1\n      0x20\n      add\n      dup1\n      dup4\n      gt\n      tag_144\n      jumpi\n      dup3\n      swap1\n      sub\n      0x1f\n      and\n      dup3\n      add\n      swap2\n    tag_142:\n      pop\n      pop\n      pop\n      pop\n      pop\n      dup2\n      mstore\n      0x20\n      add\n      0x04\n      dup3\n      add\n      dup1\n      sload\n      tag_145\n      swap1\n      tag_75\n      jump\t// in\n    tag_145:\n      dup1\n      0x1f\n      add\n      0x20\n      dup1\n      swap2\n      div\n      mul\n      0x20\n      add\n      mload(0x40)\n      swap1\n      dup2\n      add\n      0x40\n      mstore\n      dup1\n      swap3\n      swap2\n      swap1\n      dup2\n      dup2\n      mstore\n      0x20\n      add\n      dup3\n      dup1\n      sload\n      tag_146\n      swap1\n      tag_75\n      jump\t// in\n    tag_146:\n      dup1\n      iszero\n      tag_147\n      jumpi\n      dup1\n      0x1f\n      lt\n      tag_148\n      jumpi\n      0x0100\n      dup1\n      dup4\n      sload\n      div\n      mul\n      dup4\n      mstore\n      swap2\n      0x20\n      add\n      swap2\n      jump(tag_147)\n    tag_148:\n      dup3\n      add\n      swap2\n      swap1\n      0x00\n      mstore\n      keccak256(0x00, 0x20)\n      swap1\n    tag_149:\n      dup2\n      sload\n      dup2\n      mstore\n      swap1\n      0x01\n      add\n      swap1\n      0x20\n      add\n      dup1\n      dup4\n      gt\n      tag_149\n      jumpi\n      dup3\n      swap1\n      sub\n      0x1f\n      and\n      dup3\n      add\n      swap2\n    tag_147:\n      pop\n      pop\n      pop\n      pop\n      pop\n      dup2\n      mstore\n      0x20\n      add\n      0x05\n      dup3\n      add\n      dup1\n      sload\n      tag_150\n      swap1\n      tag_75\n      jump\t// in\n    tag_150:\n      dup1\n      0x1f\n      add\n      0x20\n      dup1\n      swap2\n      div\n      mul\n      0x20\n      add\n      mload(0x40)\n      swap1\n      dup2\n      add\n      0x40\n      mstore\n      dup1\n      swap3\n      swap2\n      swap1\n      dup2\n      dup2\n      mstore\n      0x20\n      add\n      dup3\n      dup1\n      sload\n      tag_151\n      swap1\n      tag_75\n      jump\t// in\n    tag_151:\n      dup1\n      iszero\n      tag_152\n      jumpi\n      dup1\n      0x1f\n      lt\n      tag_153\n      jumpi\n      0x0100\n      dup1\n      dup4\n      sload\n      div\n      mul\n      dup4\n      mstore\n      swap2\n      0x20\n      add\n      swap2\n      jump(tag_152)\n    tag_153:\n      dup3\n      add\n      swap2\n      swap1\n      0x00\n      mstore\n      keccak256(0x00, 0x20)\n      swap1\n    tag_154:\n      dup2\n      sload\n      dup2\n      mstore\n      swap1\n      0x01\n      add\n      swap1\n      0x20\n      add\n      dup1\n      dup4\n      gt\n      tag_154\n      jumpi\n      dup3\n      swap1\n      sub\n      0x1f\n      and\n      dup3\n      add\n      swap2\n    tag_152:\n      pop\n      pop\n      pop\n      pop\n      pop\n      dup2\n      mstore\n      0x20\n      add\n      0x06\n      dup3\n      add\n      sload\n      dup2\n      mstore\n      0x20\n      add\n      0x07\n      dup3\n      add\n      sload\n      dup2\n      mstore\n      0x20\n      add\n      0x08\n      dup3\n      add\n      dup1\n      sload\n      dup1\n      0x20\n      mul\n      0x20\n      add\n      mload(0x40)\n      swap1\n      dup2\n      add\n      0x40\n      mstore\n      dup1\n      swap3\n      swap2\n      swap1\n      dup2\n      dup2\n      mstore\n      0x20\n      add\n      0x00\n      swap1\n    tag_155:\n      dup3\n      dup3\n      lt\n      iszero\n      tag_156\n      jumpi\n      dup4\n      dup3\n      swap1\n      0x00\n      mstore\n      keccak256(0x00, 0x20)\n      swap1\n      0x04\n      mul\n      add\n      mload(0x40)\n      dup1\n      0xe0\n      add\n      0x40\n      mstore\n      swap1\n      dup2\n      0x00\n      dup3\n      add\n      dup1\n      sload\n      tag_158\n      swap1\n      tag_75\n      jump\t// in\n    tag_158:\n      dup1\n      0x1f\n      add\n      0x20\n      dup1\n      swap2\n      div\n      mul\n      0x20\n      add\n      mload(0x40)\n      swap1\n      dup2\n      add\n      0x40\n      mstore\n      dup1\n      swap3\n      swap2\n      swap1\n      dup2\n      dup2\n      mstore\n      0x20\n      add\n      dup3\n      dup1\n      sload\n      tag_159\n      swap1\n      tag_75\n      jump\t// in\n    tag_159:\n      dup1\n      iszero\n      tag_160\n      jumpi\n      dup1\n      0x1f\n      lt\n      tag_161\n      jumpi\n      0x0100\n      dup1\n      dup4\n      sload\n      div\n      mul\n      dup4\n      mstore\n      swap2\n      0x20\n      add\n      swap2\n      jump(tag_160)\n    tag_161:\n      dup3\n      add\n      swap2\n      swap1\n      0x00\n      mstore\n      keccak256(0x00, 0x20)\n      swap1\n    tag_162:\n      dup2\n      sload\n      dup2\n      mstore\n      swap1\n      0x01\n      add\n      swap1\n      0x20\n      add\n      dup1\n      dup4\n      gt\n      tag_162\n      jumpi\n      dup3\n      swap1\n      sub\n      0x1f\n      and\n      dup3\n      add\n      swap2\n    tag_160:\n      pop\n      pop\n      pop\n      pop\n      pop\n      dup2\n      mstore\n      0x20\n      add\n      0x01\n      dup3\n      add\n      0x00\n      swap1\n      sload\n      swap1\n      0x0100\n      exp\n      swap1\n      div\n      0xffffffffffffffffffffffffffffffffffffffff\n      and\n      0xffffffffffffffffffffffffffffffffffffffff\n      and\n      0xffffffffffffffffffffffffffffffffffffffff\n      and\n      dup2\n      mstore\n      0x20\n      add\n      0x02\n      dup3\n      add\n      0x00\n      swap1\n      sload\n      swap1\n      0x0100\n      exp\n      swap1\n      div\n      0xffffffffffffffffffffffffffffffffffffffff\n      and\n      0xffffffffffffffffffffffffffffffffffffffff\n      and\n      0xffffffffffffffffffffffffffffffffffffffff\n      and\n      dup2\n      mstore\n      0x20\n      add\n      0x02\n      dup3\n      add\n      0x14\n      swap1\n      sload\n      swap1\n      0x0100\n      exp\n      swap1\n      div\n      0xff\n      and\n      0xff\n      and\n      0xff\n      and\n      dup2\n      mstore\n      0x20\n      add\n      0x02\n      dup3\n      add\n      0x15\n      swap1\n      sload\n      swap1\n      0x0100\n      exp\n      swap1\n      div\n      0xff\n      and\n      0xff\n      and\n      0xff\n      and\n      dup2\n      mstore\n      0x20\n      add\n      0x02\n      dup3\n      add\n      0x16\n      swap1\n      sload\n      swap1\n      0x0100\n      exp\n      swap1\n      div\n      0xff\n      and\n      0xff\n      and\n      0xff\n      and\n      dup2\n      mstore\n      0x20\n      add\n      0x03\n      dup3\n      add\n      sload\n      dup2\n      mstore\n      pop\n      pop\n      dup2\n      mstore\n      0x20\n      add\n      swap1\n      0x01\n      add\n      swap1\n      jump(tag_155)\n    tag_156:\n      pop\n      pop\n      pop\n      pop\n      dup2\n      mstore\n      pop\n      pop\n      swap1\n      pop\n        /* \"solidity/MedicRecord.sol\":3666:3800  function getPatientData(address _patientId) public view senderIsDoctor returns (Patient memory) {... */\n      swap2\n      swap1\n      pop\n      jump\t// out\n        /* \"solidity/MedicRecord.sol\":3519:3662  function getPatientExists(address _patientId) public view senderIsDoctor returns (bool) {... */\n    tag_51:\n        /* \"solidity/MedicRecord.sol\":3601:3605  bool */\n      0x00\n        /* \"solidity/MedicRecord.sol\":1448:1458  msg.sender */\n      caller\n        /* \"solidity/MedicRecord.sol\":1422:1458  doctors[msg.sender].id == msg.sender */\n      0xffffffffffffffffffffffffffffffffffffffff\n      and\n        /* \"solidity/MedicRecord.sol\":1422:1429  doctors */\n      0x01\n        /* \"solidity/MedicRecord.sol\":1422:1441  doctors[msg.sender] */\n      0x00\n        /* \"solidity/MedicRecord.sol\":1430:1440  msg.sender */\n      caller\n        /* \"solidity/MedicRecord.sol\":1422:1441  doctors[msg.sender] */\n      0xffffffffffffffffffffffffffffffffffffffff\n      and\n      0xffffffffffffffffffffffffffffffffffffffff\n      and\n      dup2\n      mstore\n      0x20\n      add\n      swap1\n      dup2\n      mstore\n      0x20\n      add\n      0x00\n      keccak256\n        /* \"solidity/MedicRecord.sol\":1422:1444  doctors[msg.sender].id */\n      0x00\n      add\n      0x00\n      swap1\n      sload\n      swap1\n      0x0100\n      exp\n      swap1\n      div\n      0xffffffffffffffffffffffffffffffffffffffff\n      and\n        /* \"solidity/MedicRecord.sol\":1422:1458  doctors[msg.sender].id == msg.sender */\n      0xffffffffffffffffffffffffffffffffffffffff\n      and\n      eq\n        /* \"solidity/MedicRecord.sol\":1414:1485  require(doctors[msg.sender].id == msg.sender, \"Sender is not a doctor\") */\n      tag_164\n      jumpi\n      mload(0x40)\n      0x08c379a000000000000000000000000000000000000000000000000000000000\n      dup2\n      mstore\n      0x04\n      add\n      tag_165\n      swap1\n      tag_122\n      jump\t// in\n    tag_165:\n      mload(0x40)\n      dup1\n      swap2\n      sub\n      swap1\n      revert\n    tag_164:\n        /* \"solidity/MedicRecord.sol\":3647:3657  _patientId */\n      dup2\n        /* \"solidity/MedicRecord.sol\":3620:3657  patients[_patientId].id == _patientId */\n      0xffffffffffffffffffffffffffffffffffffffff\n      and\n        /* \"solidity/MedicRecord.sol\":3620:3628  patients */\n      0x00\n        /* \"solidity/MedicRecord.sol\":3620:3640  patients[_patientId] */\n      dup1\n        /* \"solidity/MedicRecord.sol\":3629:3639  _patientId */\n      dup5\n        /* \"solidity/MedicRecord.sol\":3620:3640  patients[_patientId] */\n      0xffffffffffffffffffffffffffffffffffffffff\n      and\n      0xffffffffffffffffffffffffffffffffffffffff\n      and\n      dup2\n      mstore\n      0x20\n      add\n      swap1\n      dup2\n      mstore\n      0x20\n      add\n      0x00\n      keccak256\n        /* \"solidity/MedicRecord.sol\":3620:3643  patients[_patientId].id */\n      0x00\n      add\n      0x00\n      swap1\n      sload\n      swap1\n      0x0100\n      exp\n      swap1\n      div\n      0xffffffffffffffffffffffffffffffffffffffff\n      and\n        /* \"solidity/MedicRecord.sol\":3620:3657  patients[_patientId].id == _patientId */\n      0xffffffffffffffffffffffffffffffffffffffff\n      and\n      eq\n        /* \"solidity/MedicRecord.sol\":3613:3657  return patients[_patientId].id == _patientId */\n      swap1\n      pop\n        /* \"solidity/MedicRecord.sol\":3519:3662  function getPatientExists(address _patientId) public view senderIsDoctor returns (bool) {... */\n      swap2\n      swap1\n      pop\n      jump\t// out\n        /* \"solidity/MedicRecord.sol\":2696:3082  function addRecord(string memory _cid, address _patientId, address _doctorId, uint8 temperature, uint8 diastol, uint8 sistol) public senderIsDoctor patientExists(_patientId) {... */\n    tag_57:\n        /* \"solidity/MedicRecord.sol\":1448:1458  msg.sender */\n      caller\n        /* \"solidity/MedicRecord.sol\":1422:1458  doctors[msg.sender].id == msg.sender */\n      0xffffffffffffffffffffffffffffffffffffffff\n      and\n        /* \"solidity/MedicRecord.sol\":1422:1429  doctors */\n      0x01\n        /* \"solidity/MedicRecord.sol\":1422:1441  doctors[msg.sender] */\n      0x00\n        /* \"solidity/MedicRecord.sol\":1430:1440  msg.sender */\n      caller\n        /* \"solidity/MedicRecord.sol\":1422:1441  doctors[msg.sender] */\n      0xffffffffffffffffffffffffffffffffffffffff\n      and\n      0xffffffffffffffffffffffffffffffffffffffff\n      and\n      dup2\n      mstore\n      0x20\n      add\n      swap1\n      dup2\n      mstore\n      0x20\n      add\n      0x00\n      keccak256\n        /* \"solidity/MedicRecord.sol\":1422:1444  doctors[msg.sender].id */\n      0x00\n      add\n      0x00\n      swap1\n      sload\n      swap1\n      0x0100\n      exp\n      swap1\n      div\n      0xffffffffffffffffffffffffffffffffffffffff\n      and\n        /* \"solidity/MedicRecord.sol\":1422:1458  doctors[msg.sender].id == msg.sender */\n      0xffffffffffffffffffffffffffffffffffffffff\n      and\n      eq\n        /* \"solidity/MedicRecord.sol\":1414:1485  require(doctors[msg.sender].id == msg.sender, \"Sender is not a doctor\") */\n      tag_168\n      jumpi\n      mload(0x40)\n      0x08c379a000000000000000000000000000000000000000000000000000000000\n      dup2\n      mstore\n      0x04\n      add\n      tag_169\n      swap1\n      tag_122\n      jump\t// in\n    tag_169:\n      mload(0x40)\n      dup1\n      swap2\n      sub\n      swap1\n      revert\n    tag_168:\n        /* \"solidity/MedicRecord.sol\":2858:2868  _patientId */\n      dup5\n        /* \"solidity/MedicRecord.sol\":1332:1341  patientId */\n      dup1\n        /* \"solidity/MedicRecord.sol\":1306:1341  patients[patientId].id == patientId */\n      0xffffffffffffffffffffffffffffffffffffffff\n      and\n        /* \"solidity/MedicRecord.sol\":1306:1314  patients */\n      0x00\n        /* \"solidity/MedicRecord.sol\":1306:1325  patients[patientId] */\n      dup1\n        /* \"solidity/MedicRecord.sol\":1315:1324  patientId */\n      dup4\n        /* \"solidity/MedicRecord.sol\":1306:1325  patients[patientId] */\n      0xffffffffffffffffffffffffffffffffffffffff\n      and\n      0xffffffffffffffffffffffffffffffffffffffff\n      and\n      dup2\n      mstore\n      0x20\n      add\n      swap1\n      dup2\n      mstore\n      0x20\n      add\n      0x00\n      keccak256\n        /* \"solidity/MedicRecord.sol\":1306:1328  patients[patientId].id */\n      0x00\n      add\n      0x00\n      swap1\n      sload\n      swap1\n      0x0100\n      exp\n      swap1\n      div\n      0xffffffffffffffffffffffffffffffffffffffff\n      and\n        /* \"solidity/MedicRecord.sol\":1306:1341  patients[patientId].id == patientId */\n      0xffffffffffffffffffffffffffffffffffffffff\n      and\n      eq\n        /* \"solidity/MedicRecord.sol\":1298:1368  require(patients[patientId].id == patientId, \"Patient does not exist\") */\n      tag_171\n      jumpi\n      mload(0x40)\n      0x08c379a000000000000000000000000000000000000000000000000000000000\n      dup2\n      mstore\n      0x04\n      add\n      tag_172\n      swap1\n      tag_173\n      jump\t// in\n    tag_172:\n      mload(0x40)\n      dup1\n      swap2\n      sub\n      swap1\n      revert\n    tag_171:\n        /* \"solidity/MedicRecord.sol\":2876:2896  Record memory record */\n      0x00\n        /* \"solidity/MedicRecord.sol\":2899:2979  Record(_cid, _patientId, _doctorId, temperature,sistol, diastol,block.timestamp) */\n      mload(0x40)\n      dup1\n      0xe0\n      add\n      0x40\n      mstore\n      dup1\n        /* \"solidity/MedicRecord.sol\":2906:2910  _cid */\n      dup10\n        /* \"solidity/MedicRecord.sol\":2899:2979  Record(_cid, _patientId, _doctorId, temperature,sistol, diastol,block.timestamp) */\n      dup2\n      mstore\n      0x20\n      add\n        /* \"solidity/MedicRecord.sol\":2912:2922  _patientId */\n      dup9\n        /* \"solidity/MedicRecord.sol\":2899:2979  Record(_cid, _patientId, _doctorId, temperature,sistol, diastol,block.timestamp) */\n      0xffffffffffffffffffffffffffffffffffffffff\n      and\n      dup2\n      mstore\n      0x20\n      add\n        /* \"solidity/MedicRecord.sol\":2924:2933  _doctorId */\n      dup8\n        /* \"solidity/MedicRecord.sol\":2899:2979  Record(_cid, _patientId, _doctorId, temperature,sistol, diastol,block.timestamp) */\n      0xffffffffffffffffffffffffffffffffffffffff\n      and\n      dup2\n      mstore\n      0x20\n      add\n        /* \"solidity/MedicRecord.sol\":2935:2946  temperature */\n      dup7\n        /* \"solidity/MedicRecord.sol\":2899:2979  Record(_cid, _patientId, _doctorId, temperature,sistol, diastol,block.timestamp) */\n      0xff\n      and\n      dup2\n      mstore\n      0x20\n      add\n        /* \"solidity/MedicRecord.sol\":2947:2953  sistol */\n      dup5\n        /* \"solidity/MedicRecord.sol\":2899:2979  Record(_cid, _patientId, _doctorId, temperature,sistol, diastol,block.timestamp) */\n      0xff\n      and\n      dup2\n      mstore\n      0x20\n      add\n        /* \"solidity/MedicRecord.sol\":2955:2962  diastol */\n      dup6\n        /* \"solidity/MedicRecord.sol\":2899:2979  Record(_cid, _patientId, _doctorId, temperature,sistol, diastol,block.timestamp) */\n      0xff\n      and\n      dup2\n      mstore\n      0x20\n      add\n        /* \"solidity/MedicRecord.sol\":2963:2978  block.timestamp */\n      timestamp\n        /* \"solidity/MedicRecord.sol\":2899:2979  Record(_cid, _patientId, _doctorId, temperature,sistol, diastol,block.timestamp) */\n      dup2\n      mstore\n      pop\n        /* \"solidity/MedicRecord.sol\":2876:2979  Record memory record = Record(_cid, _patientId, _doctorId, temperature,sistol, diastol,block.timestamp) */\n      swap1\n      pop\n        /* \"solidity/MedicRecord.sol\":2985:2993  patients */\n      0x00\n        /* \"solidity/MedicRecord.sol\":2985:3005  patients[_patientId] */\n      dup1\n        /* \"solidity/MedicRecord.sol\":2994:3004  _patientId */\n      dup9\n        /* \"solidity/MedicRecord.sol\":2985:3005  patients[_patientId] */\n      0xffffffffffffffffffffffffffffffffffffffff\n      and\n      0xffffffffffffffffffffffffffffffffffffffff\n      and\n      dup2\n      mstore\n      0x20\n      add\n      swap1\n      dup2\n      mstore\n      0x20\n      add\n      0x00\n      keccak256\n        /* \"solidity/MedicRecord.sol\":2985:3013  patients[_patientId].records */\n      0x08\n      add\n        /* \"solidity/MedicRecord.sol\":3019:3025  record */\n      dup2\n        /* \"solidity/MedicRecord.sol\":2985:3026  patients[_patientId].records.push(record) */\n      swap1\n      dup1\n      0x01\n      dup2\n      sload\n      add\n      dup1\n      dup3\n      sstore\n      dup1\n      swap2\n      pop\n      pop\n      0x01\n      swap1\n      sub\n      swap1\n      0x00\n      mstore\n      keccak256(0x00, 0x20)\n      swap1\n      0x04\n      mul\n      add\n      0x00\n      swap1\n      swap2\n      swap1\n      swap2\n      swap1\n      swap2\n      pop\n      0x00\n      dup3\n      add\n      mload\n      dup2\n      0x00\n      add\n      swap1\n      dup2\n      tag_176\n      swap2\n      swap1\n      tag_100\n      jump\t// in\n    tag_176:\n      pop\n      0x20\n      dup3\n      add\n      mload\n      dup2\n      0x01\n      add\n      exp(0x0100, 0x00)\n      dup2\n      sload\n      dup2\n      0xffffffffffffffffffffffffffffffffffffffff\n      mul\n      not\n      and\n      swap1\n      dup4\n      0xffffffffffffffffffffffffffffffffffffffff\n      and\n      mul\n      or\n      swap1\n      sstore\n      pop\n      0x40\n      dup3\n      add\n      mload\n      dup2\n      0x02\n      add\n      exp(0x0100, 0x00)\n      dup2\n      sload\n      dup2\n      0xffffffffffffffffffffffffffffffffffffffff\n      mul\n      not\n      and\n      swap1\n      dup4\n      0xffffffffffffffffffffffffffffffffffffffff\n      and\n      mul\n      or\n      swap1\n      sstore\n      pop\n      0x60\n      dup3\n      add\n      mload\n      dup2\n      0x02\n      add\n      exp(0x0100, 0x14)\n      dup2\n      sload\n      dup2\n      0xff\n      mul\n      not\n      and\n      swap1\n      dup4\n      0xff\n      and\n      mul\n      or\n      swap1\n      sstore\n      pop\n      0x80\n      dup3\n      add\n      mload\n      dup2\n      0x02\n      add\n      exp(0x0100, 0x15)\n      dup2\n      sload\n      dup2\n      0xff\n      mul\n      not\n      and\n      swap1\n      dup4\n      0xff\n      and\n      mul\n      or\n      swap1\n      sstore\n      pop\n      0xa0\n      dup3\n      add\n      mload\n      dup2\n      0x02\n      add\n      exp(0x0100, 0x16)\n      dup2\n      sload\n      dup2\n      0xff\n      mul\n      not\n      and\n      swap1\n      dup4\n      0xff\n      and\n      mul\n      or\n      swap1\n      sstore\n      pop\n      0xc0\n      dup3\n      add\n      mload\n      dup2\n      0x03\n      add\n      sstore\n      pop\n      pop\n        /* \"solidity/MedicRecord.sol\":3038:3077  RecordAdded(_cid, _patientId,_doctorId) */\n      0x79439a93ba0b8067e556b3942a78ac58d991c58e2e23041c4e7aa1c446fc1188\n        /* \"solidity/MedicRecord.sol\":3050:3054  _cid */\n      dup9\n        /* \"solidity/MedicRecord.sol\":3056:3066  _patientId */\n      dup9\n        /* \"solidity/MedicRecord.sol\":3067:3076  _doctorId */\n      dup9\n        /* \"solidity/MedicRecord.sol\":3038:3077  RecordAdded(_cid, _patientId,_doctorId) */\n      mload(0x40)\n      tag_177\n      swap4\n      swap3\n      swap2\n      swap1\n      tag_178\n      jump\t// in\n    tag_177:\n      mload(0x40)\n      dup1\n      swap2\n      sub\n      swap1\n      log1\n        /* \"solidity/MedicRecord.sol\":2870:3082  {... */\n      pop\n        /* \"solidity/MedicRecord.sol\":1491:1492  _ */\n      pop\n        /* \"solidity/MedicRecord.sol\":2696:3082  function addRecord(string memory _cid, address _patientId, address _doctorId, uint8 temperature, uint8 diastol, uint8 sistol) public senderIsDoctor patientExists(_patientId) {... */\n      pop\n      pop\n      pop\n      pop\n      pop\n      pop\n      jump\t// out\n        /* \"solidity/MedicRecord.sol\":3087:3250  function getRecords(address _patientId) public view senderExists patientExists(_patientId) returns (Record[] memory) {... */\n    tag_60:\n        /* \"solidity/MedicRecord.sol\":3187:3202  Record[] memory */\n      0x60\n        /* \"solidity/MedicRecord.sol\":1157:1167  msg.sender */\n      caller\n        /* \"solidity/MedicRecord.sol\":1131:1167  doctors[msg.sender].id == msg.sender */\n      0xffffffffffffffffffffffffffffffffffffffff\n      and\n        /* \"solidity/MedicRecord.sol\":1131:1138  doctors */\n      0x01\n        /* \"solidity/MedicRecord.sol\":1131:1150  doctors[msg.sender] */\n      0x00\n        /* \"solidity/MedicRecord.sol\":1139:1149  msg.sender */\n      caller\n        /* \"solidity/MedicRecord.sol\":1131:1150  doctors[msg.sender] */\n      0xffffffffffffffffffffffffffffffffffffffff\n      and\n      0xffffffffffffffffffffffffffffffffffffffff\n      and\n      dup2\n      mstore\n      0x20\n      add\n      swap1\n      dup2\n      mstore\n      0x20\n      add\n      0x00\n      keccak256\n        /* \"solidity/MedicRecord.sol\":1131:1153  doctors[msg.sender].id */\n      0x00\n      add\n      0x00\n      swap1\n      sload\n      swap1\n      0x0100\n      exp\n      swap1\n      div\n      0xffffffffffffffffffffffffffffffffffffffff\n      and\n        /* \"solidity/MedicRecord.sol\":1131:1167  doctors[msg.sender].id == msg.sender */\n      0xffffffffffffffffffffffffffffffffffffffff\n      and\n      eq\n        /* \"solidity/MedicRecord.sol\":1131:1208  doctors[msg.sender].id == msg.sender || patients[msg.sender].id == msg.sender */\n      dup1\n      tag_180\n      jumpi\n      pop\n        /* \"solidity/MedicRecord.sol\":1198:1208  msg.sender */\n      caller\n        /* \"solidity/MedicRecord.sol\":1171:1208  patients[msg.sender].id == msg.sender */\n      0xffffffffffffffffffffffffffffffffffffffff\n      and\n        /* \"solidity/MedicRecord.sol\":1171:1179  patients */\n      0x00\n        /* \"solidity/MedicRecord.sol\":1171:1191  patients[msg.sender] */\n      dup1\n        /* \"solidity/MedicRecord.sol\":1180:1190  msg.sender */\n      caller\n        /* \"solidity/MedicRecord.sol\":1171:1191  patients[msg.sender] */\n      0xffffffffffffffffffffffffffffffffffffffff\n      and\n      0xffffffffffffffffffffffffffffffffffffffff\n      and\n      dup2\n      mstore\n      0x20\n      add\n      swap1\n      dup2\n      mstore\n      0x20\n      add\n      0x00\n      keccak256\n        /* \"solidity/MedicRecord.sol\":1171:1194  patients[msg.sender].id */\n      0x00\n      add\n      0x00\n      swap1\n      sload\n      swap1\n      0x0100\n      exp\n      swap1\n      div\n      0xffffffffffffffffffffffffffffffffffffffff\n      and\n        /* \"solidity/MedicRecord.sol\":1171:1208  patients[msg.sender].id == msg.sender */\n      0xffffffffffffffffffffffffffffffffffffffff\n      and\n      eq\n        /* \"solidity/MedicRecord.sol\":1131:1208  doctors[msg.sender].id == msg.sender || patients[msg.sender].id == msg.sender */\n    tag_180:\n        /* \"solidity/MedicRecord.sol\":1123:1234  require(doctors[msg.sender].id == msg.sender || patients[msg.sender].id == msg.sender, \"Sender does not exist\") */\n      tag_181\n      jumpi\n      mload(0x40)\n      0x08c379a000000000000000000000000000000000000000000000000000000000\n      dup2\n      mstore\n      0x04\n      add\n      tag_182\n      swap1\n      tag_183\n      jump\t// in\n    tag_182:\n      mload(0x40)\n      dup1\n      swap2\n      sub\n      swap1\n      revert\n    tag_181:\n        /* \"solidity/MedicRecord.sol\":3166:3176  _patientId */\n      dup2\n        /* \"solidity/MedicRecord.sol\":1332:1341  patientId */\n      dup1\n        /* \"solidity/MedicRecord.sol\":1306:1341  patients[patientId].id == patientId */\n      0xffffffffffffffffffffffffffffffffffffffff\n      and\n        /* \"solidity/MedicRecord.sol\":1306:1314  patients */\n      0x00\n        /* \"solidity/MedicRecord.sol\":1306:1325  patients[patientId] */\n      dup1\n        /* \"solidity/MedicRecord.sol\":1315:1324  patientId */\n      dup4\n        /* \"solidity/MedicRecord.sol\":1306:1325  patients[patientId] */\n      0xffffffffffffffffffffffffffffffffffffffff\n      and\n      0xffffffffffffffffffffffffffffffffffffffff\n      and\n      dup2\n      mstore\n      0x20\n      add\n      swap1\n      dup2\n      mstore\n      0x20\n      add\n      0x00\n      keccak256\n        /* \"solidity/MedicRecord.sol\":1306:1328  patients[patientId].id */\n      0x00\n      add\n      0x00\n      swap1\n      sload\n      swap1\n      0x0100\n      exp\n      swap1\n      div\n      0xffffffffffffffffffffffffffffffffffffffff\n      and\n        /* \"solidity/MedicRecord.sol\":1306:1341  patients[patientId].id == patientId */\n      0xffffffffffffffffffffffffffffffffffffffff\n      and\n      eq\n        /* \"solidity/MedicRecord.sol\":1298:1368  require(patients[patientId].id == patientId, \"Patient does not exist\") */\n      tag_185\n      jumpi\n      mload(0x40)\n      0x08c379a000000000000000000000000000000000000000000000000000000000\n      dup2\n      mstore\n      0x04\n      add\n      tag_186\n      swap1\n      tag_173\n      jump\t// in\n    tag_186:\n      mload(0x40)\n      dup1\n      swap2\n      sub\n      swap1\n      revert\n    tag_185:\n        /* \"solidity/MedicRecord.sol\":3217:3225  patients */\n      0x00\n        /* \"solidity/MedicRecord.sol\":3217:3237  patients[_patientId] */\n      dup1\n        /* \"solidity/MedicRecord.sol\":3226:3236  _patientId */\n      dup5\n        /* \"solidity/MedicRecord.sol\":3217:3237  patients[_patientId] */\n      0xffffffffffffffffffffffffffffffffffffffff\n      and\n      0xffffffffffffffffffffffffffffffffffffffff\n      and\n      dup2\n      mstore\n      0x20\n      add\n      swap1\n      dup2\n      mstore\n      0x20\n      add\n      0x00\n      keccak256\n        /* \"solidity/MedicRecord.sol\":3217:3245  patients[_patientId].records */\n      0x08\n      add\n        /* \"solidity/MedicRecord.sol\":3210:3245  return patients[_patientId].records */\n      dup1\n      sload\n      dup1\n      0x20\n      mul\n      0x20\n      add\n      mload(0x40)\n      swap1\n      dup2\n      add\n      0x40\n      mstore\n      dup1\n      swap3\n      swap2\n      swap1\n      dup2\n      dup2\n      mstore\n      0x20\n      add\n      0x00\n      swap1\n    tag_188:\n      dup3\n      dup3\n      lt\n      iszero\n      tag_189\n      jumpi\n      dup4\n      dup3\n      swap1\n      0x00\n      mstore\n      keccak256(0x00, 0x20)\n      swap1\n      0x04\n      mul\n      add\n      mload(0x40)\n      dup1\n      0xe0\n      add\n      0x40\n      mstore\n      swap1\n      dup2\n      0x00\n      dup3\n      add\n      dup1\n      sload\n      tag_191\n      swap1\n      tag_75\n      jump\t// in\n    tag_191:\n      dup1\n      0x1f\n      add\n      0x20\n      dup1\n      swap2\n      div\n      mul\n      0x20\n      add\n      mload(0x40)\n      swap1\n      dup2\n      add\n      0x40\n      mstore\n      dup1\n      swap3\n      swap2\n      swap1\n      dup2\n      dup2\n      mstore\n      0x20\n      add\n      dup3\n      dup1\n      sload\n      tag_192\n      swap1\n      tag_75\n      jump\t// in\n    tag_192:\n      dup1\n      iszero\n      tag_193\n      jumpi\n      dup1\n      0x1f\n      lt\n      tag_194\n      jumpi\n      0x0100\n      dup1\n      dup4\n      sload\n      div\n      mul\n      dup4\n      mstore\n      swap2\n      0x20\n      add\n      swap2\n      jump(tag_193)\n    tag_194:\n      dup3\n      add\n      swap2\n      swap1\n      0x00\n      mstore\n      keccak256(0x00, 0x20)\n      swap1\n    tag_195:\n      dup2\n      sload\n      dup2\n      mstore\n      swap1\n      0x01\n      add\n      swap1\n      0x20\n      add\n      dup1\n      dup4\n      gt\n      tag_195\n      jumpi\n      dup3\n      swap1\n      sub\n      0x1f\n      and\n      dup3\n      add\n      swap2\n    tag_193:\n      pop\n      pop\n      pop\n      pop\n      pop\n      dup2\n      mstore\n      0x20\n      add\n      0x01\n      dup3\n      add\n      0x00\n      swap1\n      sload\n      swap1\n      0x0100\n      exp\n      swap1\n      div\n      0xffffffffffffffffffffffffffffffffffffffff\n      and\n      0xffffffffffffffffffffffffffffffffffffffff\n      and\n      0xffffffffffffffffffffffffffffffffffffffff\n      and\n      dup2\n      mstore\n      0x20\n      add\n      0x02\n      dup3\n      add\n      0x00\n      swap1\n      sload\n      swap1\n      0x0100\n      exp\n      swap1\n      div\n      0xffffffffffffffffffffffffffffffffffffffff\n      and\n      0xffffffffffffffffffffffffffffffffffffffff\n      and\n      0xffffffffffffffffffffffffffffffffffffffff\n      and\n      dup2\n      mstore\n      0x20\n      add\n      0x02\n      dup3\n      add\n      0x14\n      swap1\n      sload\n      swap1\n      0x0100\n      exp\n      swap1\n      div\n      0xff\n      and\n      0xff\n      and\n      0xff\n      and\n      dup2\n      mstore\n      0x20\n      add\n      0x02\n      dup3\n      add\n      0x15\n      swap1\n      sload\n      swap1\n      0x0100\n      exp\n      swap1\n      div\n      0xff\n      and\n      0xff\n      and\n      0xff\n      and\n      dup2\n      mstore\n      0x20\n      add\n      0x02\n      dup3\n      add\n      0x16\n      swap1\n      sload\n      swap1\n      0x0100\n      exp\n      swap1\n      div\n      0xff\n      and\n      0xff\n      and\n      0xff\n      and\n      dup2\n      mstore\n      0x20\n      add\n      0x03\n      dup3\n      add\n      sload\n      dup2\n      mstore\n      pop\n      pop\n      dup2\n      mstore\n      0x20\n      add\n      swap1\n      0x01\n      add\n      swap1\n      jump(tag_188)\n    tag_189:\n      pop\n      pop\n      pop\n      pop\n      swap2\n      pop\n        /* \"solidity/MedicRecord.sol\":1240:1241  _ */\n      pop\n        /* \"solidity/MedicRecord.sol\":3087:3250  function getRecords(address _patientId) public view senderExists patientExists(_patientId) returns (Record[] memory) {... */\n      swap2\n      swap1\n      pop\n      jump\t// out\n        /* \"solidity/MedicRecord.sol\":693:735  mapping (address => Doctor) public doctors */\n    tag_65:\n      mstore(0x20, 0x01)\n      dup1\n      0x00\n      mstore\n      keccak256(0x00, 0x40)\n      0x00\n      swap2\n      pop\n      swap1\n      pop\n      dup1\n      0x00\n      add\n      0x00\n      swap1\n      sload\n      swap1\n      0x0100\n      exp\n      swap1\n      div\n      0xffffffffffffffffffffffffffffffffffffffff\n      and\n      swap1\n      dup1\n      0x01\n      add\n      dup1\n      sload\n      tag_196\n      swap1\n      tag_75\n      jump\t// in\n    tag_196:\n      dup1\n      0x1f\n      add\n      0x20\n      dup1\n      swap2\n      div\n      mul\n      0x20\n      add\n      mload(0x40)\n      swap1\n      dup2\n      add\n      0x40\n      mstore\n      dup1\n      swap3\n      swap2\n      swap1\n      dup2\n      dup2\n      mstore\n      0x20\n      add\n      dup3\n      dup1\n      sload\n      tag_197\n      swap1\n      tag_75\n      jump\t// in\n    tag_197:\n      dup1\n      iszero\n      tag_198\n      jumpi\n      dup1\n      0x1f\n      lt\n      tag_199\n      jumpi\n      0x0100\n      dup1\n      dup4\n      sload\n      div\n      mul\n      dup4\n      mstore\n      swap2\n      0x20\n      add\n      swap2\n      jump(tag_198)\n    tag_199:\n      dup3\n      add\n      swap2\n      swap1\n      0x00\n      mstore\n      keccak256(0x00, 0x20)\n      swap1\n    tag_200:\n      dup2\n      sload\n      dup2\n      mstore\n      swap1\n      0x01\n      add\n      swap1\n      0x20\n      add\n      dup1\n      dup4\n      gt\n      tag_200\n      jumpi\n      dup3\n      swap1\n      sub\n      0x1f\n      and\n      dup3\n      add\n      swap2\n    tag_198:\n      pop\n      pop\n      pop\n      pop\n      pop\n      swap1\n      pop\n      dup3\n      jump\t// out\n        /* \"solidity/MedicRecord.sol\":1517:1806  function addPatient(address _patientId, string memory _nama) public senderIsDoctor {... */\n    tag_69:\n        /* \"solidity/MedicRecord.sol\":1448:1458  msg.sender */\n      caller\n        /* \"solidity/MedicRecord.sol\":1422:1458  doctors[msg.sender].id == msg.sender */\n      0xffffffffffffffffffffffffffffffffffffffff\n      and\n        /* \"solidity/MedicRecord.sol\":1422:1429  doctors */\n      0x01\n        /* \"solidity/MedicRecord.sol\":1422:1441  doctors[msg.sender] */\n      0x00\n        /* \"solidity/MedicRecord.sol\":1430:1440  msg.sender */\n      caller\n        /* \"solidity/MedicRecord.sol\":1422:1441  doctors[msg.sender] */\n      0xffffffffffffffffffffffffffffffffffffffff\n      and\n      0xffffffffffffffffffffffffffffffffffffffff\n      and\n      dup2\n      mstore\n      0x20\n      add\n      swap1\n      dup2\n      mstore\n      0x20\n      add\n      0x00\n      keccak256\n        /* \"solidity/MedicRecord.sol\":1422:1444  doctors[msg.sender].id */\n      0x00\n      add\n      0x00\n      swap1\n      sload\n      swap1\n      0x0100\n      exp\n      swap1\n      div\n      0xffffffffffffffffffffffffffffffffffffffff\n      and\n        /* \"solidity/MedicRecord.sol\":1422:1458  doctors[msg.sender].id == msg.sender */\n      0xffffffffffffffffffffffffffffffffffffffff\n      and\n      eq\n        /* \"solidity/MedicRecord.sol\":1414:1485  require(doctors[msg.sender].id == msg.sender, \"Sender is not a doctor\") */\n      tag_202\n      jumpi\n      mload(0x40)\n      0x08c379a000000000000000000000000000000000000000000000000000000000\n      dup2\n      mstore\n      0x04\n      add\n      tag_203\n      swap1\n      tag_122\n      jump\t// in\n    tag_203:\n      mload(0x40)\n      dup1\n      swap2\n      sub\n      swap1\n      revert\n    tag_202:\n        /* \"solidity/MedicRecord.sol\":1641:1651  _patientId */\n      dup2\n        /* \"solidity/MedicRecord.sol\":1614:1651  patients[_patientId].id != _patientId */\n      0xffffffffffffffffffffffffffffffffffffffff\n      and\n        /* \"solidity/MedicRecord.sol\":1614:1622  patients */\n      0x00\n        /* \"solidity/MedicRecord.sol\":1614:1634  patients[_patientId] */\n      dup1\n        /* \"solidity/MedicRecord.sol\":1623:1633  _patientId */\n      dup5\n        /* \"solidity/MedicRecord.sol\":1614:1634  patients[_patientId] */\n      0xffffffffffffffffffffffffffffffffffffffff\n      and\n      0xffffffffffffffffffffffffffffffffffffffff\n      and\n      dup2\n      mstore\n      0x20\n      add\n      swap1\n      dup2\n      mstore\n      0x20\n      add\n      0x00\n      keccak256\n        /* \"solidity/MedicRecord.sol\":1614:1637  patients[_patientId].id */\n      0x00\n      add\n      0x00\n      swap1\n      sload\n      swap1\n      0x0100\n      exp\n      swap1\n      div\n      0xffffffffffffffffffffffffffffffffffffffff\n      and\n        /* \"solidity/MedicRecord.sol\":1614:1651  patients[_patientId].id != _patientId */\n      0xffffffffffffffffffffffffffffffffffffffff\n      and\n      sub\n        /* \"solidity/MedicRecord.sol\":1606:1684  require(patients[_patientId].id != _patientId, \"This patient already exists.\") */\n      tag_205\n      jumpi\n      mload(0x40)\n      0x08c379a000000000000000000000000000000000000000000000000000000000\n      dup2\n      mstore\n      0x04\n      add\n      tag_206\n      swap1\n      tag_207\n      jump\t// in\n    tag_206:\n      mload(0x40)\n      dup1\n      swap2\n      sub\n      swap1\n      revert\n    tag_205:\n        /* \"solidity/MedicRecord.sol\":1716:1726  _patientId */\n      dup2\n        /* \"solidity/MedicRecord.sol\":1690:1698  patients */\n      0x00\n        /* \"solidity/MedicRecord.sol\":1690:1710  patients[_patientId] */\n      dup1\n        /* \"solidity/MedicRecord.sol\":1699:1709  _patientId */\n      dup5\n        /* \"solidity/MedicRecord.sol\":1690:1710  patients[_patientId] */\n      0xffffffffffffffffffffffffffffffffffffffff\n      and\n      0xffffffffffffffffffffffffffffffffffffffff\n      and\n      dup2\n      mstore\n      0x20\n      add\n      swap1\n      dup2\n      mstore\n      0x20\n      add\n      0x00\n      keccak256\n        /* \"solidity/MedicRecord.sol\":1690:1713  patients[_patientId].id */\n      0x00\n      add\n      0x00\n        /* \"solidity/MedicRecord.sol\":1690:1726  patients[_patientId].id = _patientId */\n      0x0100\n      exp\n      dup2\n      sload\n      dup2\n      0xffffffffffffffffffffffffffffffffffffffff\n      mul\n      not\n      and\n      swap1\n      dup4\n      0xffffffffffffffffffffffffffffffffffffffff\n      and\n      mul\n      or\n      swap1\n      sstore\n      pop\n        /* \"solidity/MedicRecord.sol\":1760:1765  _nama */\n      dup1\n        /* \"solidity/MedicRecord.sol\":1732:1740  patients */\n      0x00\n        /* \"solidity/MedicRecord.sol\":1732:1752  patients[_patientId] */\n      dup1\n        /* \"solidity/MedicRecord.sol\":1741:1751  _patientId */\n      dup5\n        /* \"solidity/MedicRecord.sol\":1732:1752  patients[_patientId] */\n      0xffffffffffffffffffffffffffffffffffffffff\n      and\n      0xffffffffffffffffffffffffffffffffffffffff\n      and\n      dup2\n      mstore\n      0x20\n      add\n      swap1\n      dup2\n      mstore\n      0x20\n      add\n      0x00\n      keccak256\n        /* \"solidity/MedicRecord.sol\":1732:1757  patients[_patientId].nama */\n      0x02\n      add\n        /* \"solidity/MedicRecord.sol\":1732:1765  patients[_patientId].nama = _nama */\n      swap1\n      dup2\n      tag_208\n      swap2\n      swap1\n      tag_100\n      jump\t// in\n    tag_208:\n      pop\n        /* \"solidity/MedicRecord.sol\":1777:1801  PatientAdded(_patientId) */\n      0xa58cff07db0adda3ab7a40bd2f18ab57210bf38391a52ffd2e8eee6b8bdec71a\n        /* \"solidity/MedicRecord.sol\":1790:1800  _patientId */\n      dup3\n        /* \"solidity/MedicRecord.sol\":1777:1801  PatientAdded(_patientId) */\n      mload(0x40)\n      tag_209\n      swap2\n      swap1\n      tag_102\n      jump\t// in\n    tag_209:\n      mload(0x40)\n      dup1\n      swap2\n      sub\n      swap1\n      log1\n        /* \"solidity/MedicRecord.sol\":1517:1806  function addPatient(address _patientId, string memory _nama) public senderIsDoctor {... */\n      pop\n      pop\n      jump\t// out\n        /* \"solidity/MedicRecord.sol\":739:785  mapping (address => Hospital) public hospitals */\n    tag_72:\n      mstore(0x20, 0x02)\n      dup1\n      0x00\n      mstore\n      keccak256(0x00, 0x40)\n      0x00\n      swap2\n      pop\n      swap1\n      pop\n      dup1\n      0x00\n      add\n      0x00\n      swap1\n      sload\n      swap1\n      0x0100\n      exp\n      swap1\n      div\n      0xffffffffffffffffffffffffffffffffffffffff\n      and\n      swap1\n      dup1\n      0x01\n      add\n      dup1\n      sload\n      tag_210\n      swap1\n      tag_75\n      jump\t// in\n    tag_210:\n      dup1\n      0x1f\n      add\n      0x20\n      dup1\n      swap2\n      div\n      mul\n      0x20\n      add\n      mload(0x40)\n      swap1\n      dup2\n      add\n      0x40\n      mstore\n      dup1\n      swap3\n      swap2\n      swap1\n      dup2\n      dup2\n      mstore\n      0x20\n      add\n      dup3\n      dup1\n      sload\n      tag_211\n      swap1\n      tag_75\n      jump\t// in\n    tag_211:\n      dup1\n      iszero\n      tag_212\n      jumpi\n      dup1\n      0x1f\n      lt\n      tag_213\n      jumpi\n      0x0100\n      dup1\n      dup4\n      sload\n      div\n      mul\n      dup4\n      mstore\n      swap2\n      0x20\n      add\n      swap2\n      jump(tag_212)\n    tag_213:\n      dup3\n      add\n      swap2\n      swap1\n      0x00\n      mstore\n      keccak256(0x00, 0x20)\n      swap1\n    tag_214:\n      dup2\n      sload\n      dup2\n      mstore\n      swap1\n      0x01\n      add\n      swap1\n      0x20\n      add\n      dup1\n      dup4\n      gt\n      tag_214\n      jumpi\n      dup3\n      swap1\n      sub\n      0x1f\n      and\n      dup3\n      add\n      swap2\n    tag_212:\n      pop\n      pop\n      pop\n      pop\n      pop\n      swap1\n      pop\n      dup3\n      jump\t// out\n    tag_130:\n      mload(0x40)\n      dup1\n      0x0120\n      add\n      0x40\n      mstore\n      dup1\n      and(0xffffffffffffffffffffffffffffffffffffffff, 0x00)\n      dup2\n      mstore\n      0x20\n      add\n      0x00\n      dup2\n      mstore\n      0x20\n      add\n      0x60\n      dup2\n      mstore\n      0x20\n      add\n      0x60\n      dup2\n      mstore\n      0x20\n      add\n      0x60\n      dup2\n      mstore\n      0x20\n      add\n      0x60\n      dup2\n      mstore\n      0x20\n      add\n      0x00\n      dup2\n      mstore\n      0x20\n      add\n      0x00\n      dup2\n      mstore\n      0x20\n      add\n      0x60\n      dup2\n      mstore\n      pop\n      swap1\n      jump\t// out\n        /* \"#utility.yul\":7:82   */\n    tag_215:\n        /* \"#utility.yul\":40:46   */\n      0x00\n        /* \"#utility.yul\":73:75   */\n      0x40\n        /* \"#utility.yul\":67:76   */\n      mload\n        /* \"#utility.yul\":57:76   */\n      swap1\n      pop\n        /* \"#utility.yul\":7:82   */\n      swap1\n      jump\t// out\n        /* \"#utility.yul\":88:205   */\n    tag_216:\n        /* \"#utility.yul\":197:198   */\n      0x00\n        /* \"#utility.yul\":194:195   */\n      dup1\n        /* \"#utility.yul\":187:199   */\n      revert\n        /* \"#utility.yul\":211:328   */\n    tag_217:\n        /* \"#utility.yul\":320:321   */\n      0x00\n        /* \"#utility.yul\":317:318   */\n      dup1\n        /* \"#utility.yul\":310:322   */\n      revert\n        /* \"#utility.yul\":334:460   */\n    tag_218:\n        /* \"#utility.yul\":371:378   */\n      0x00\n        /* \"#utility.yul\":411:453   */\n      0xffffffffffffffffffffffffffffffffffffffff\n        /* \"#utility.yul\":404:409   */\n      dup3\n        /* \"#utility.yul\":400:454   */\n      and\n        /* \"#utility.yul\":389:454   */\n      swap1\n      pop\n        /* \"#utility.yul\":334:460   */\n      swap2\n      swap1\n      pop\n      jump\t// out\n        /* \"#utility.yul\":466:562   */\n    tag_219:\n        /* \"#utility.yul\":503:510   */\n      0x00\n        /* \"#utility.yul\":532:556   */\n      tag_295\n        /* \"#utility.yul\":550:555   */\n      dup3\n        /* \"#utility.yul\":532:556   */\n      tag_218\n      jump\t// in\n    tag_295:\n        /* \"#utility.yul\":521:556   */\n      swap1\n      pop\n        /* \"#utility.yul\":466:562   */\n      swap2\n      swap1\n      pop\n      jump\t// out\n        /* \"#utility.yul\":568:690   */\n    tag_220:\n        /* \"#utility.yul\":641:665   */\n      tag_297\n        /* \"#utility.yul\":659:664   */\n      dup2\n        /* \"#utility.yul\":641:665   */\n      tag_219\n      jump\t// in\n    tag_297:\n        /* \"#utility.yul\":634:639   */\n      dup2\n        /* \"#utility.yul\":631:666   */\n      eq\n        /* \"#utility.yul\":621:684   */\n      tag_298\n      jumpi\n        /* \"#utility.yul\":680:681   */\n      0x00\n        /* \"#utility.yul\":677:678   */\n      dup1\n        /* \"#utility.yul\":670:682   */\n      revert\n        /* \"#utility.yul\":621:684   */\n    tag_298:\n        /* \"#utility.yul\":568:690   */\n      pop\n      jump\t// out\n        /* \"#utility.yul\":696:835   */\n    tag_221:\n        /* \"#utility.yul\":742:747   */\n      0x00\n        /* \"#utility.yul\":780:786   */\n      dup2\n        /* \"#utility.yul\":767:787   */\n      calldataload\n        /* \"#utility.yul\":758:787   */\n      swap1\n      pop\n        /* \"#utility.yul\":796:829   */\n      tag_300\n        /* \"#utility.yul\":823:828   */\n      dup2\n        /* \"#utility.yul\":796:829   */\n      tag_220\n      jump\t// in\n    tag_300:\n        /* \"#utility.yul\":696:835   */\n      swap3\n      swap2\n      pop\n      pop\n      jump\t// out\n        /* \"#utility.yul\":841:1170   */\n    tag_20:\n        /* \"#utility.yul\":900:906   */\n      0x00\n        /* \"#utility.yul\":949:951   */\n      0x20\n        /* \"#utility.yul\":937:946   */\n      dup3\n        /* \"#utility.yul\":928:935   */\n      dup5\n        /* \"#utility.yul\":924:947   */\n      sub\n        /* \"#utility.yul\":920:952   */\n      slt\n        /* \"#utility.yul\":917:1036   */\n      iszero\n      tag_302\n      jumpi\n        /* \"#utility.yul\":955:1034   */\n      tag_303\n      tag_216\n      jump\t// in\n    tag_303:\n        /* \"#utility.yul\":917:1036   */\n    tag_302:\n        /* \"#utility.yul\":1075:1076   */\n      0x00\n        /* \"#utility.yul\":1100:1153   */\n      tag_304\n        /* \"#utility.yul\":1145:1152   */\n      dup5\n        /* \"#utility.yul\":1136:1142   */\n      dup3\n        /* \"#utility.yul\":1125:1134   */\n      dup6\n        /* \"#utility.yul\":1121:1143   */\n      add\n        /* \"#utility.yul\":1100:1153   */\n      tag_221\n      jump\t// in\n    tag_304:\n        /* \"#utility.yul\":1090:1153   */\n      swap2\n      pop\n        /* \"#utility.yul\":1046:1163   */\n      pop\n        /* \"#utility.yul\":841:1170   */\n      swap3\n      swap2\n      pop\n      pop\n      jump\t// out\n        /* \"#utility.yul\":1176:1294   */\n    tag_222:\n        /* \"#utility.yul\":1263:1287   */\n      tag_306\n        /* \"#utility.yul\":1281:1286   */\n      dup2\n        /* \"#utility.yul\":1263:1287   */\n      tag_219\n      jump\t// in\n    tag_306:\n        /* \"#utility.yul\":1258:1261   */\n      dup3\n        /* \"#utility.yul\":1251:1288   */\n      mstore\n        /* \"#utility.yul\":1176:1294   */\n      pop\n      pop\n      jump\t// out\n        /* \"#utility.yul\":1300:1377   */\n    tag_223:\n        /* \"#utility.yul\":1337:1344   */\n      0x00\n        /* \"#utility.yul\":1366:1371   */\n      dup2\n        /* \"#utility.yul\":1355:1371   */\n      swap1\n      pop\n        /* \"#utility.yul\":1300:1377   */\n      swap2\n      swap1\n      pop\n      jump\t// out\n        /* \"#utility.yul\":1383:1501   */\n    tag_224:\n        /* \"#utility.yul\":1470:1494   */\n      tag_309\n        /* \"#utility.yul\":1488:1493   */\n      dup2\n        /* \"#utility.yul\":1470:1494   */\n      tag_223\n      jump\t// in\n    tag_309:\n        /* \"#utility.yul\":1465:1468   */\n      dup3\n        /* \"#utility.yul\":1458:1495   */\n      mstore\n        /* \"#utility.yul\":1383:1501   */\n      pop\n      pop\n      jump\t// out\n        /* \"#utility.yul\":1507:1606   */\n    tag_225:\n        /* \"#utility.yul\":1559:1565   */\n      0x00\n        /* \"#utility.yul\":1593:1598   */\n      dup2\n        /* \"#utility.yul\":1587:1599   */\n      mload\n        /* \"#utility.yul\":1577:1599   */\n      swap1\n      pop\n        /* \"#utility.yul\":1507:1606   */\n      swap2\n      swap1\n      pop\n      jump\t// out\n        /* \"#utility.yul\":1612:1781   */\n    tag_226:\n        /* \"#utility.yul\":1696:1707   */\n      0x00\n        /* \"#utility.yul\":1730:1736   */\n      dup3\n        /* \"#utility.yul\":1725:1728   */\n      dup3\n        /* \"#utility.yul\":1718:1737   */\n      mstore\n        /* \"#utility.yul\":1770:1774   */\n      0x20\n        /* \"#utility.yul\":1765:1768   */\n      dup3\n        /* \"#utility.yul\":1761:1775   */\n      add\n        /* \"#utility.yul\":1746:1775   */\n      swap1\n      pop\n        /* \"#utility.yul\":1612:1781   */\n      swap3\n      swap2\n      pop\n      pop\n      jump\t// out\n        /* \"#utility.yul\":1787:2033   */\n    tag_227:\n        /* \"#utility.yul\":1868:1869   */\n      0x00\n        /* \"#utility.yul\":1878:1991   */\n    tag_313:\n        /* \"#utility.yul\":1892:1898   */\n      dup4\n        /* \"#utility.yul\":1889:1890   */\n      dup2\n        /* \"#utility.yul\":1886:1899   */\n      lt\n        /* \"#utility.yul\":1878:1991   */\n      iszero\n      tag_315\n      jumpi\n        /* \"#utility.yul\":1977:1978   */\n      dup1\n        /* \"#utility.yul\":1972:1975   */\n      dup3\n        /* \"#utility.yul\":1968:1979   */\n      add\n        /* \"#utility.yul\":1962:1980   */\n      mload\n        /* \"#utility.yul\":1958:1959   */\n      dup2\n        /* \"#utility.yul\":1953:1956   */\n      dup5\n        /* \"#utility.yul\":1949:1960   */\n      add\n        /* \"#utility.yul\":1942:1981   */\n      mstore\n        /* \"#utility.yul\":1914:1916   */\n      0x20\n        /* \"#utility.yul\":1911:1912   */\n      dup2\n        /* \"#utility.yul\":1907:1917   */\n      add\n        /* \"#utility.yul\":1902:1917   */\n      swap1\n      pop\n        /* \"#utility.yul\":1878:1991   */\n      jump(tag_313)\n    tag_315:\n        /* \"#utility.yul\":2025:2026   */\n      0x00\n        /* \"#utility.yul\":2016:2022   */\n      dup5\n        /* \"#utility.yul\":2011:2014   */\n      dup5\n        /* \"#utility.yul\":2007:2023   */\n      add\n        /* \"#utility.yul\":2000:2027   */\n      mstore\n        /* \"#utility.yul\":1849:2033   */\n      pop\n        /* \"#utility.yul\":1787:2033   */\n      pop\n      pop\n      pop\n      jump\t// out\n        /* \"#utility.yul\":2039:2141   */\n    tag_228:\n        /* \"#utility.yul\":2080:2086   */\n      0x00\n        /* \"#utility.yul\":2131:2133   */\n      0x1f\n        /* \"#utility.yul\":2127:2134   */\n      not\n        /* \"#utility.yul\":2122:2124   */\n      0x1f\n        /* \"#utility.yul\":2115:2120   */\n      dup4\n        /* \"#utility.yul\":2111:2125   */\n      add\n        /* \"#utility.yul\":2107:2135   */\n      and\n        /* \"#utility.yul\":2097:2135   */\n      swap1\n      pop\n        /* \"#utility.yul\":2039:2141   */\n      swap2\n      swap1\n      pop\n      jump\t// out\n        /* \"#utility.yul\":2147:2524   */\n    tag_229:\n        /* \"#utility.yul\":2235:2238   */\n      0x00\n        /* \"#utility.yul\":2263:2302   */\n      tag_318\n        /* \"#utility.yul\":2296:2301   */\n      dup3\n        /* \"#utility.yul\":2263:2302   */\n      tag_225\n      jump\t// in\n    tag_318:\n        /* \"#utility.yul\":2318:2389   */\n      tag_319\n        /* \"#utility.yul\":2382:2388   */\n      dup2\n        /* \"#utility.yul\":2377:2380   */\n      dup6\n        /* \"#utility.yul\":2318:2389   */\n      tag_226\n      jump\t// in\n    tag_319:\n        /* \"#utility.yul\":2311:2389   */\n      swap4\n      pop\n        /* \"#utility.yul\":2398:2463   */\n      tag_320\n        /* \"#utility.yul\":2456:2462   */\n      dup2\n        /* \"#utility.yul\":2451:2454   */\n      dup6\n        /* \"#utility.yul\":2444:2448   */\n      0x20\n        /* \"#utility.yul\":2437:2442   */\n      dup7\n        /* \"#utility.yul\":2433:2449   */\n      add\n        /* \"#utility.yul\":2398:2463   */\n      tag_227\n      jump\t// in\n    tag_320:\n        /* \"#utility.yul\":2488:2517   */\n      tag_321\n        /* \"#utility.yul\":2510:2516   */\n      dup2\n        /* \"#utility.yul\":2488:2517   */\n      tag_228\n      jump\t// in\n    tag_321:\n        /* \"#utility.yul\":2483:2486   */\n      dup5\n        /* \"#utility.yul\":2479:2518   */\n      add\n        /* \"#utility.yul\":2472:2518   */\n      swap2\n      pop\n        /* \"#utility.yul\":2239:2524   */\n      pop\n        /* \"#utility.yul\":2147:2524   */\n      swap3\n      swap2\n      pop\n      pop\n      jump\t// out\n        /* \"#utility.yul\":2530:3891   */\n    tag_23:\n        /* \"#utility.yul\":2899:2903   */\n      0x00\n        /* \"#utility.yul\":2937:2940   */\n      0x0100\n        /* \"#utility.yul\":2926:2935   */\n      dup3\n        /* \"#utility.yul\":2922:2941   */\n      add\n        /* \"#utility.yul\":2914:2941   */\n      swap1\n      pop\n        /* \"#utility.yul\":2951:3022   */\n      tag_323\n        /* \"#utility.yul\":3019:3020   */\n      0x00\n        /* \"#utility.yul\":3008:3017   */\n      dup4\n        /* \"#utility.yul\":3004:3021   */\n      add\n        /* \"#utility.yul\":2995:3001   */\n      dup12\n        /* \"#utility.yul\":2951:3022   */\n      tag_222\n      jump\t// in\n    tag_323:\n        /* \"#utility.yul\":3032:3104   */\n      tag_324\n        /* \"#utility.yul\":3100:3102   */\n      0x20\n        /* \"#utility.yul\":3089:3098   */\n      dup4\n        /* \"#utility.yul\":3085:3103   */\n      add\n        /* \"#utility.yul\":3076:3082   */\n      dup11\n        /* \"#utility.yul\":3032:3104   */\n      tag_224\n      jump\t// in\n    tag_324:\n        /* \"#utility.yul\":3151:3160   */\n      dup2\n        /* \"#utility.yul\":3145:3149   */\n      dup2\n        /* \"#utility.yul\":3141:3161   */\n      sub\n        /* \"#utility.yul\":3136:3138   */\n      0x40\n        /* \"#utility.yul\":3125:3134   */\n      dup4\n        /* \"#utility.yul\":3121:3139   */\n      add\n        /* \"#utility.yul\":3114:3162   */\n      mstore\n        /* \"#utility.yul\":3179:3257   */\n      tag_325\n        /* \"#utility.yul\":3252:3256   */\n      dup2\n        /* \"#utility.yul\":3243:3249   */\n      dup10\n        /* \"#utility.yul\":3179:3257   */\n      tag_229\n      jump\t// in\n    tag_325:\n        /* \"#utility.yul\":3171:3257   */\n      swap1\n      pop\n        /* \"#utility.yul\":3304:3313   */\n      dup2\n        /* \"#utility.yul\":3298:3302   */\n      dup2\n        /* \"#utility.yul\":3294:3314   */\n      sub\n        /* \"#utility.yul\":3289:3291   */\n      0x60\n        /* \"#utility.yul\":3278:3287   */\n      dup4\n        /* \"#utility.yul\":3274:3292   */\n      add\n        /* \"#utility.yul\":3267:3315   */\n      mstore\n        /* \"#utility.yul\":3332:3410   */\n      tag_326\n        /* \"#utility.yul\":3405:3409   */\n      dup2\n        /* \"#utility.yul\":3396:3402   */\n      dup9\n        /* \"#utility.yul\":3332:3410   */\n      tag_229\n      jump\t// in\n    tag_326:\n        /* \"#utility.yul\":3324:3410   */\n      swap1\n      pop\n        /* \"#utility.yul\":3458:3467   */\n      dup2\n        /* \"#utility.yul\":3452:3456   */\n      dup2\n        /* \"#utility.yul\":3448:3468   */\n      sub\n        /* \"#utility.yul\":3442:3445   */\n      0x80\n        /* \"#utility.yul\":3431:3440   */\n      dup4\n        /* \"#utility.yul\":3427:3446   */\n      add\n        /* \"#utility.yul\":3420:3469   */\n      mstore\n        /* \"#utility.yul\":3486:3564   */\n      tag_327\n        /* \"#utility.yul\":3559:3563   */\n      dup2\n        /* \"#utility.yul\":3550:3556   */\n      dup8\n        /* \"#utility.yul\":3486:3564   */\n      tag_229\n      jump\t// in\n    tag_327:\n        /* \"#utility.yul\":3478:3564   */\n      swap1\n      pop\n        /* \"#utility.yul\":3612:3621   */\n      dup2\n        /* \"#utility.yul\":3606:3610   */\n      dup2\n        /* \"#utility.yul\":3602:3622   */\n      sub\n        /* \"#utility.yul\":3596:3599   */\n      0xa0\n        /* \"#utility.yul\":3585:3594   */\n      dup4\n        /* \"#utility.yul\":3581:3600   */\n      add\n        /* \"#utility.yul\":3574:3623   */\n      mstore\n        /* \"#utility.yul\":3640:3718   */\n      tag_328\n        /* \"#utility.yul\":3713:3717   */\n      dup2\n        /* \"#utility.yul\":3704:3710   */\n      dup7\n        /* \"#utility.yul\":3640:3718   */\n      tag_229\n      jump\t// in\n    tag_328:\n        /* \"#utility.yul\":3632:3718   */\n      swap1\n      pop\n        /* \"#utility.yul\":3728:3801   */\n      tag_329\n        /* \"#utility.yul\":3796:3799   */\n      0xc0\n        /* \"#utility.yul\":3785:3794   */\n      dup4\n        /* \"#utility.yul\":3781:3800   */\n      add\n        /* \"#utility.yul\":3772:3778   */\n      dup6\n        /* \"#utility.yul\":3728:3801   */\n      tag_224\n      jump\t// in\n    tag_329:\n        /* \"#utility.yul\":3811:3884   */\n      tag_330\n        /* \"#utility.yul\":3879:3882   */\n      0xe0\n        /* \"#utility.yul\":3868:3877   */\n      dup4\n        /* \"#utility.yul\":3864:3883   */\n      add\n        /* \"#utility.yul\":3855:3861   */\n      dup5\n        /* \"#utility.yul\":3811:3884   */\n      tag_224\n      jump\t// in\n    tag_330:\n        /* \"#utility.yul\":2530:3891   */\n      swap10\n      swap9\n      pop\n      pop\n      pop\n      pop\n      pop\n      pop\n      pop\n      pop\n      pop\n      jump\t// out\n        /* \"#utility.yul\":3897:4014   */\n    tag_230:\n        /* \"#utility.yul\":4006:4007   */\n      0x00\n        /* \"#utility.yul\":4003:4004   */\n      dup1\n        /* \"#utility.yul\":3996:4008   */\n      revert\n        /* \"#utility.yul\":4020:4137   */\n    tag_231:\n        /* \"#utility.yul\":4129:4130   */\n      0x00\n        /* \"#utility.yul\":4126:4127   */\n      dup1\n        /* \"#utility.yul\":4119:4131   */\n      revert\n        /* \"#utility.yul\":4143:4323   */\n    tag_232:\n        /* \"#utility.yul\":4191:4268   */\n      0x4e487b7100000000000000000000000000000000000000000000000000000000\n        /* \"#utility.yul\":4188:4189   */\n      0x00\n        /* \"#utility.yul\":4181:4269   */\n      mstore\n        /* \"#utility.yul\":4288:4292   */\n      0x41\n        /* \"#utility.yul\":4285:4286   */\n      0x04\n        /* \"#utility.yul\":4278:4293   */\n      mstore\n        /* \"#utility.yul\":4312:4316   */\n      0x24\n        /* \"#utility.yul\":4309:4310   */\n      0x00\n        /* \"#utility.yul\":4302:4317   */\n      revert\n        /* \"#utility.yul\":4329:4610   */\n    tag_233:\n        /* \"#utility.yul\":4412:4439   */\n      tag_335\n        /* \"#utility.yul\":4434:4438   */\n      dup3\n        /* \"#utility.yul\":4412:4439   */\n      tag_228\n      jump\t// in\n    tag_335:\n        /* \"#utility.yul\":4404:4410   */\n      dup2\n        /* \"#utility.yul\":4400:4440   */\n      add\n        /* \"#utility.yul\":4542:4548   */\n      dup2\n        /* \"#utility.yul\":4530:4540   */\n      dup2\n        /* \"#utility.yul\":4527:4549   */\n      lt\n        /* \"#utility.yul\":4506:4524   */\n      0xffffffffffffffff\n        /* \"#utility.yul\":4494:4504   */\n      dup3\n        /* \"#utility.yul\":4491:4525   */\n      gt\n        /* \"#utility.yul\":4488:4550   */\n      or\n        /* \"#utility.yul\":4485:4573   */\n      iszero\n      tag_336\n      jumpi\n        /* \"#utility.yul\":4553:4571   */\n      tag_337\n      tag_232\n      jump\t// in\n    tag_337:\n        /* \"#utility.yul\":4485:4573   */\n    tag_336:\n        /* \"#utility.yul\":4593:4603   */\n      dup1\n        /* \"#utility.yul\":4589:4591   */\n      0x40\n        /* \"#utility.yul\":4582:4604   */\n      mstore\n        /* \"#utility.yul\":4372:4610   */\n      pop\n        /* \"#utility.yul\":4329:4610   */\n      pop\n      pop\n      jump\t// out\n        /* \"#utility.yul\":4616:4745   */\n    tag_234:\n        /* \"#utility.yul\":4650:4656   */\n      0x00\n        /* \"#utility.yul\":4677:4697   */\n      tag_339\n      tag_215\n      jump\t// in\n    tag_339:\n        /* \"#utility.yul\":4667:4697   */\n      swap1\n      pop\n        /* \"#utility.yul\":4706:4739   */\n      tag_340\n        /* \"#utility.yul\":4734:4738   */\n      dup3\n        /* \"#utility.yul\":4726:4732   */\n      dup3\n        /* \"#utility.yul\":4706:4739   */\n      tag_233\n      jump\t// in\n    tag_340:\n        /* \"#utility.yul\":4616:4745   */\n      swap2\n      swap1\n      pop\n      jump\t// out\n        /* \"#utility.yul\":4751:5059   */\n    tag_235:\n        /* \"#utility.yul\":4813:4817   */\n      0x00\n        /* \"#utility.yul\":4903:4921   */\n      0xffffffffffffffff\n        /* \"#utility.yul\":4895:4901   */\n      dup3\n        /* \"#utility.yul\":4892:4922   */\n      gt\n        /* \"#utility.yul\":4889:4945   */\n      iszero\n      tag_342\n      jumpi\n        /* \"#utility.yul\":4925:4943   */\n      tag_343\n      tag_232\n      jump\t// in\n    tag_343:\n        /* \"#utility.yul\":4889:4945   */\n    tag_342:\n        /* \"#utility.yul\":4963:4992   */\n      tag_344\n        /* \"#utility.yul\":4985:4991   */\n      dup3\n        /* \"#utility.yul\":4963:4992   */\n      tag_228\n      jump\t// in\n    tag_344:\n        /* \"#utility.yul\":4955:4992   */\n      swap1\n      pop\n        /* \"#utility.yul\":5047:5051   */\n      0x20\n        /* \"#utility.yul\":5041:5045   */\n      dup2\n        /* \"#utility.yul\":5037:5052   */\n      add\n        /* \"#utility.yul\":5029:5052   */\n      swap1\n      pop\n        /* \"#utility.yul\":4751:5059   */\n      swap2\n      swap1\n      pop\n      jump\t// out\n        /* \"#utility.yul\":5065:5211   */\n    tag_236:\n        /* \"#utility.yul\":5162:5168   */\n      dup3\n        /* \"#utility.yul\":5157:5160   */\n      dup2\n        /* \"#utility.yul\":5152:5155   */\n      dup4\n        /* \"#utility.yul\":5139:5169   */\n      calldatacopy\n        /* \"#utility.yul\":5203:5204   */\n      0x00\n        /* \"#utility.yul\":5194:5200   */\n      dup4\n        /* \"#utility.yul\":5189:5192   */\n      dup4\n        /* \"#utility.yul\":5185:5201   */\n      add\n        /* \"#utility.yul\":5178:5205   */\n      mstore\n        /* \"#utility.yul\":5065:5211   */\n      pop\n      pop\n      pop\n      jump\t// out\n        /* \"#utility.yul\":5217:5642   */\n    tag_237:\n        /* \"#utility.yul\":5295:5300   */\n      0x00\n        /* \"#utility.yul\":5320:5386   */\n      tag_347\n        /* \"#utility.yul\":5336:5385   */\n      tag_348\n        /* \"#utility.yul\":5378:5384   */\n      dup5\n        /* \"#utility.yul\":5336:5385   */\n      tag_235\n      jump\t// in\n    tag_348:\n        /* \"#utility.yul\":5320:5386   */\n      tag_234\n      jump\t// in\n    tag_347:\n        /* \"#utility.yul\":5311:5386   */\n      swap1\n      pop\n        /* \"#utility.yul\":5409:5415   */\n      dup3\n        /* \"#utility.yul\":5402:5407   */\n      dup2\n        /* \"#utility.yul\":5395:5416   */\n      mstore\n        /* \"#utility.yul\":5447:5451   */\n      0x20\n        /* \"#utility.yul\":5440:5445   */\n      dup2\n        /* \"#utility.yul\":5436:5452   */\n      add\n        /* \"#utility.yul\":5485:5488   */\n      dup5\n        /* \"#utility.yul\":5476:5482   */\n      dup5\n        /* \"#utility.yul\":5471:5474   */\n      dup5\n        /* \"#utility.yul\":5467:5483   */\n      add\n        /* \"#utility.yul\":5464:5489   */\n      gt\n        /* \"#utility.yul\":5461:5573   */\n      iszero\n      tag_349\n      jumpi\n        /* \"#utility.yul\":5492:5571   */\n      tag_350\n      tag_231\n      jump\t// in\n    tag_350:\n        /* \"#utility.yul\":5461:5573   */\n    tag_349:\n        /* \"#utility.yul\":5582:5636   */\n      tag_351\n        /* \"#utility.yul\":5629:5635   */\n      dup5\n        /* \"#utility.yul\":5624:5627   */\n      dup3\n        /* \"#utility.yul\":5619:5622   */\n      dup6\n        /* \"#utility.yul\":5582:5636   */\n      tag_236\n      jump\t// in\n    tag_351:\n        /* \"#utility.yul\":5301:5642   */\n      pop\n        /* \"#utility.yul\":5217:5642   */\n      swap4\n      swap3\n      pop\n      pop\n      pop\n      jump\t// out\n        /* \"#utility.yul\":5662:6002   */\n    tag_238:\n        /* \"#utility.yul\":5718:5723   */\n      0x00\n        /* \"#utility.yul\":5767:5770   */\n      dup3\n        /* \"#utility.yul\":5760:5764   */\n      0x1f\n        /* \"#utility.yul\":5752:5758   */\n      dup4\n        /* \"#utility.yul\":5748:5765   */\n      add\n        /* \"#utility.yul\":5744:5771   */\n      slt\n        /* \"#utility.yul\":5734:5856   */\n      tag_353\n      jumpi\n        /* \"#utility.yul\":5775:5854   */\n      tag_354\n      tag_230\n      jump\t// in\n    tag_354:\n        /* \"#utility.yul\":5734:5856   */\n    tag_353:\n        /* \"#utility.yul\":5892:5898   */\n      dup2\n        /* \"#utility.yul\":5879:5899   */\n      calldataload\n        /* \"#utility.yul\":5917:5996   */\n      tag_355\n        /* \"#utility.yul\":5992:5995   */\n      dup5\n        /* \"#utility.yul\":5984:5990   */\n      dup3\n        /* \"#utility.yul\":5977:5981   */\n      0x20\n        /* \"#utility.yul\":5969:5975   */\n      dup7\n        /* \"#utility.yul\":5965:5982   */\n      add\n        /* \"#utility.yul\":5917:5996   */\n      tag_237\n      jump\t// in\n    tag_355:\n        /* \"#utility.yul\":5908:5996   */\n      swap2\n      pop\n        /* \"#utility.yul\":5724:6002   */\n      pop\n        /* \"#utility.yul\":5662:6002   */\n      swap3\n      swap2\n      pop\n      pop\n      jump\t// out\n        /* \"#utility.yul\":6008:6517   */\n    tag_26:\n        /* \"#utility.yul\":6077:6083   */\n      0x00\n        /* \"#utility.yul\":6126:6128   */\n      0x20\n        /* \"#utility.yul\":6114:6123   */\n      dup3\n        /* \"#utility.yul\":6105:6112   */\n      dup5\n        /* \"#utility.yul\":6101:6124   */\n      sub\n        /* \"#utility.yul\":6097:6129   */\n      slt\n        /* \"#utility.yul\":6094:6213   */\n      iszero\n      tag_357\n      jumpi\n        /* \"#utility.yul\":6132:6211   */\n      tag_358\n      tag_216\n      jump\t// in\n    tag_358:\n        /* \"#utility.yul\":6094:6213   */\n    tag_357:\n        /* \"#utility.yul\":6280:6281   */\n      0x00\n        /* \"#utility.yul\":6269:6278   */\n      dup3\n        /* \"#utility.yul\":6265:6282   */\n      add\n        /* \"#utility.yul\":6252:6283   */\n      calldataload\n        /* \"#utility.yul\":6310:6328   */\n      0xffffffffffffffff\n        /* \"#utility.yul\":6302:6308   */\n      dup2\n        /* \"#utility.yul\":6299:6329   */\n      gt\n        /* \"#utility.yul\":6296:6413   */\n      iszero\n      tag_359\n      jumpi\n        /* \"#utility.yul\":6332:6411   */\n      tag_360\n      tag_217\n      jump\t// in\n    tag_360:\n        /* \"#utility.yul\":6296:6413   */\n    tag_359:\n        /* \"#utility.yul\":6437:6500   */\n      tag_361\n        /* \"#utility.yul\":6492:6499   */\n      dup5\n        /* \"#utility.yul\":6483:6489   */\n      dup3\n        /* \"#utility.yul\":6472:6481   */\n      dup6\n        /* \"#utility.yul\":6468:6490   */\n      add\n        /* \"#utility.yul\":6437:6500   */\n      tag_238\n      jump\t// in\n    tag_361:\n        /* \"#utility.yul\":6427:6500   */\n      swap2\n      pop\n        /* \"#utility.yul\":6223:6510   */\n      pop\n        /* \"#utility.yul\":6008:6517   */\n      swap3\n      swap2\n      pop\n      pop\n      jump\t// out\n        /* \"#utility.yul\":6523:7177   */\n    tag_30:\n        /* \"#utility.yul\":6601:6607   */\n      0x00\n        /* \"#utility.yul\":6609:6615   */\n      dup1\n        /* \"#utility.yul\":6658:6660   */\n      0x40\n        /* \"#utility.yul\":6646:6655   */\n      dup4\n        /* \"#utility.yul\":6637:6644   */\n      dup6\n        /* \"#utility.yul\":6633:6656   */\n      sub\n        /* \"#utility.yul\":6629:6661   */\n      slt\n        /* \"#utility.yul\":6626:6745   */\n      iszero\n      tag_363\n      jumpi\n        /* \"#utility.yul\":6664:6743   */\n      tag_364\n      tag_216\n      jump\t// in\n    tag_364:\n        /* \"#utility.yul\":6626:6745   */\n    tag_363:\n        /* \"#utility.yul\":6784:6785   */\n      0x00\n        /* \"#utility.yul\":6809:6862   */\n      tag_365\n        /* \"#utility.yul\":6854:6861   */\n      dup6\n        /* \"#utility.yul\":6845:6851   */\n      dup3\n        /* \"#utility.yul\":6834:6843   */\n      dup7\n        /* \"#utility.yul\":6830:6852   */\n      add\n        /* \"#utility.yul\":6809:6862   */\n      tag_221\n      jump\t// in\n    tag_365:\n        /* \"#utility.yul\":6799:6862   */\n      swap3\n      pop\n        /* \"#utility.yul\":6755:6872   */\n      pop\n        /* \"#utility.yul\":6939:6941   */\n      0x20\n        /* \"#utility.yul\":6928:6937   */\n      dup4\n        /* \"#utility.yul\":6924:6942   */\n      add\n        /* \"#utility.yul\":6911:6943   */\n      calldataload\n        /* \"#utility.yul\":6970:6988   */\n      0xffffffffffffffff\n        /* \"#utility.yul\":6962:6968   */\n      dup2\n        /* \"#utility.yul\":6959:6989   */\n      gt\n        /* \"#utility.yul\":6956:7073   */\n      iszero\n      tag_366\n      jumpi\n        /* \"#utility.yul\":6992:7071   */\n      tag_367\n      tag_217\n      jump\t// in\n    tag_367:\n        /* \"#utility.yul\":6956:7073   */\n    tag_366:\n        /* \"#utility.yul\":7097:7160   */\n      tag_368\n        /* \"#utility.yul\":7152:7159   */\n      dup6\n        /* \"#utility.yul\":7143:7149   */\n      dup3\n        /* \"#utility.yul\":7132:7141   */\n      dup7\n        /* \"#utility.yul\":7128:7150   */\n      add\n        /* \"#utility.yul\":7097:7160   */\n      tag_238\n      jump\t// in\n    tag_368:\n        /* \"#utility.yul\":7087:7160   */\n      swap2\n      pop\n        /* \"#utility.yul\":6882:7170   */\n      pop\n        /* \"#utility.yul\":6523:7177   */\n      swap3\n      pop\n      swap3\n      swap1\n      pop\n      jump\t// out\n        /* \"#utility.yul\":7183:7606   */\n    tag_36:\n        /* \"#utility.yul\":7324:7328   */\n      0x00\n        /* \"#utility.yul\":7362:7364   */\n      0x40\n        /* \"#utility.yul\":7351:7360   */\n      dup3\n        /* \"#utility.yul\":7347:7365   */\n      add\n        /* \"#utility.yul\":7339:7365   */\n      swap1\n      pop\n        /* \"#utility.yul\":7375:7446   */\n      tag_370\n        /* \"#utility.yul\":7443:7444   */\n      0x00\n        /* \"#utility.yul\":7432:7441   */\n      dup4\n        /* \"#utility.yul\":7428:7445   */\n      add\n        /* \"#utility.yul\":7419:7425   */\n      dup6\n        /* \"#utility.yul\":7375:7446   */\n      tag_222\n      jump\t// in\n    tag_370:\n        /* \"#utility.yul\":7493:7502   */\n      dup2\n        /* \"#utility.yul\":7487:7491   */\n      dup2\n        /* \"#utility.yul\":7483:7503   */\n      sub\n        /* \"#utility.yul\":7478:7480   */\n      0x20\n        /* \"#utility.yul\":7467:7476   */\n      dup4\n        /* \"#utility.yul\":7463:7481   */\n      add\n        /* \"#utility.yul\":7456:7504   */\n      mstore\n        /* \"#utility.yul\":7521:7599   */\n      tag_371\n        /* \"#utility.yul\":7594:7598   */\n      dup2\n        /* \"#utility.yul\":7585:7591   */\n      dup5\n        /* \"#utility.yul\":7521:7599   */\n      tag_229\n      jump\t// in\n    tag_371:\n        /* \"#utility.yul\":7513:7599   */\n      swap1\n      pop\n        /* \"#utility.yul\":7183:7606   */\n      swap4\n      swap3\n      pop\n      pop\n      pop\n      jump\t// out\n        /* \"#utility.yul\":7612:7925   */\n    tag_40:\n        /* \"#utility.yul\":7725:7729   */\n      0x00\n        /* \"#utility.yul\":7763:7765   */\n      0x20\n        /* \"#utility.yul\":7752:7761   */\n      dup3\n        /* \"#utility.yul\":7748:7766   */\n      add\n        /* \"#utility.yul\":7740:7766   */\n      swap1\n      pop\n        /* \"#utility.yul\":7812:7821   */\n      dup2\n        /* \"#utility.yul\":7806:7810   */\n      dup2\n        /* \"#utility.yul\":7802:7822   */\n      sub\n        /* \"#utility.yul\":7798:7799   */\n      0x00\n        /* \"#utility.yul\":7787:7796   */\n      dup4\n        /* \"#utility.yul\":7783:7800   */\n      add\n        /* \"#utility.yul\":7776:7823   */\n      mstore\n        /* \"#utility.yul\":7840:7918   */\n      tag_373\n        /* \"#utility.yul\":7913:7917   */\n      dup2\n        /* \"#utility.yul\":7904:7910   */\n      dup5\n        /* \"#utility.yul\":7840:7918   */\n      tag_229\n      jump\t// in\n    tag_373:\n        /* \"#utility.yul\":7832:7918   */\n      swap1\n      pop\n        /* \"#utility.yul\":7612:7925   */\n      swap3\n      swap2\n      pop\n      pop\n      jump\t// out\n        /* \"#utility.yul\":7931:8039   */\n    tag_239:\n        /* \"#utility.yul\":8008:8032   */\n      tag_375\n        /* \"#utility.yul\":8026:8031   */\n      dup2\n        /* \"#utility.yul\":8008:8032   */\n      tag_219\n      jump\t// in\n    tag_375:\n        /* \"#utility.yul\":8003:8006   */\n      dup3\n        /* \"#utility.yul\":7996:8033   */\n      mstore\n        /* \"#utility.yul\":7931:8039   */\n      pop\n      pop\n      jump\t// out\n        /* \"#utility.yul\":8045:8153   */\n    tag_240:\n        /* \"#utility.yul\":8122:8146   */\n      tag_377\n        /* \"#utility.yul\":8140:8145   */\n      dup2\n        /* \"#utility.yul\":8122:8146   */\n      tag_223\n      jump\t// in\n    tag_377:\n        /* \"#utility.yul\":8117:8120   */\n      dup3\n        /* \"#utility.yul\":8110:8147   */\n      mstore\n        /* \"#utility.yul\":8045:8153   */\n      pop\n      pop\n      jump\t// out\n        /* \"#utility.yul\":8159:8318   */\n    tag_241:\n        /* \"#utility.yul\":8233:8244   */\n      0x00\n        /* \"#utility.yul\":8267:8273   */\n      dup3\n        /* \"#utility.yul\":8262:8265   */\n      dup3\n        /* \"#utility.yul\":8255:8274   */\n      mstore\n        /* \"#utility.yul\":8307:8311   */\n      0x20\n        /* \"#utility.yul\":8302:8305   */\n      dup3\n        /* \"#utility.yul\":8298:8312   */\n      add\n        /* \"#utility.yul\":8283:8312   */\n      swap1\n      pop\n        /* \"#utility.yul\":8159:8318   */\n      swap3\n      swap2\n      pop\n      pop\n      jump\t// out\n        /* \"#utility.yul\":8324:8681   */\n    tag_242:\n        /* \"#utility.yul\":8402:8405   */\n      0x00\n        /* \"#utility.yul\":8430:8469   */\n      tag_380\n        /* \"#utility.yul\":8463:8468   */\n      dup3\n        /* \"#utility.yul\":8430:8469   */\n      tag_225\n      jump\t// in\n    tag_380:\n        /* \"#utility.yul\":8485:8546   */\n      tag_381\n        /* \"#utility.yul\":8539:8545   */\n      dup2\n        /* \"#utility.yul\":8534:8537   */\n      dup6\n        /* \"#utility.yul\":8485:8546   */\n      tag_241\n      jump\t// in\n    tag_381:\n        /* \"#utility.yul\":8478:8546   */\n      swap4\n      pop\n        /* \"#utility.yul\":8555:8620   */\n      tag_382\n        /* \"#utility.yul\":8613:8619   */\n      dup2\n        /* \"#utility.yul\":8608:8611   */\n      dup6\n        /* \"#utility.yul\":8601:8605   */\n      0x20\n        /* \"#utility.yul\":8594:8599   */\n      dup7\n        /* \"#utility.yul\":8590:8606   */\n      add\n        /* \"#utility.yul\":8555:8620   */\n      tag_227\n      jump\t// in\n    tag_382:\n        /* \"#utility.yul\":8645:8674   */\n      tag_383\n        /* \"#utility.yul\":8667:8673   */\n      dup2\n        /* \"#utility.yul\":8645:8674   */\n      tag_228\n      jump\t// in\n    tag_383:\n        /* \"#utility.yul\":8640:8643   */\n      dup5\n        /* \"#utility.yul\":8636:8675   */\n      add\n        /* \"#utility.yul\":8629:8675   */\n      swap2\n      pop\n        /* \"#utility.yul\":8406:8681   */\n      pop\n        /* \"#utility.yul\":8324:8681   */\n      swap3\n      swap2\n      pop\n      pop\n      jump\t// out\n        /* \"#utility.yul\":8687:8823   */\n    tag_243:\n        /* \"#utility.yul\":8776:8782   */\n      0x00\n        /* \"#utility.yul\":8810:8815   */\n      dup2\n        /* \"#utility.yul\":8804:8816   */\n      mload\n        /* \"#utility.yul\":8794:8816   */\n      swap1\n      pop\n        /* \"#utility.yul\":8687:8823   */\n      swap2\n      swap1\n      pop\n      jump\t// out\n        /* \"#utility.yul\":8829:9025   */\n    tag_244:\n        /* \"#utility.yul\":8940:8951   */\n      0x00\n        /* \"#utility.yul\":8974:8980   */\n      dup3\n        /* \"#utility.yul\":8969:8972   */\n      dup3\n        /* \"#utility.yul\":8962:8981   */\n      mstore\n        /* \"#utility.yul\":9014:9018   */\n      0x20\n        /* \"#utility.yul\":9009:9012   */\n      dup3\n        /* \"#utility.yul\":9005:9019   */\n      add\n        /* \"#utility.yul\":8990:9019   */\n      swap1\n      pop\n        /* \"#utility.yul\":8829:9025   */\n      swap3\n      swap2\n      pop\n      pop\n      jump\t// out\n        /* \"#utility.yul\":9031:9185   */\n    tag_245:\n        /* \"#utility.yul\":9120:9124   */\n      0x00\n        /* \"#utility.yul\":9143:9146   */\n      dup2\n        /* \"#utility.yul\":9135:9146   */\n      swap1\n      pop\n        /* \"#utility.yul\":9173:9177   */\n      0x20\n        /* \"#utility.yul\":9168:9171   */\n      dup3\n        /* \"#utility.yul\":9164:9178   */\n      add\n        /* \"#utility.yul\":9156:9178   */\n      swap1\n      pop\n        /* \"#utility.yul\":9031:9185   */\n      swap2\n      swap1\n      pop\n      jump\t// out\n        /* \"#utility.yul\":9191:9277   */\n    tag_246:\n        /* \"#utility.yul\":9226:9233   */\n      0x00\n        /* \"#utility.yul\":9266:9270   */\n      0xff\n        /* \"#utility.yul\":9259:9264   */\n      dup3\n        /* \"#utility.yul\":9255:9271   */\n      and\n        /* \"#utility.yul\":9244:9271   */\n      swap1\n      pop\n        /* \"#utility.yul\":9191:9277   */\n      swap2\n      swap1\n      pop\n      jump\t// out\n        /* \"#utility.yul\":9283:9385   */\n    tag_247:\n        /* \"#utility.yul\":9356:9378   */\n      tag_389\n        /* \"#utility.yul\":9372:9377   */\n      dup2\n        /* \"#utility.yul\":9356:9378   */\n      tag_246\n      jump\t// in\n    tag_389:\n        /* \"#utility.yul\":9351:9354   */\n      dup3\n        /* \"#utility.yul\":9344:9379   */\n      mstore\n        /* \"#utility.yul\":9283:9385   */\n      pop\n      pop\n      jump\t// out\n        /* \"#utility.yul\":9453:10926   */\n    tag_248:\n        /* \"#utility.yul\":9556:9559   */\n      0x00\n        /* \"#utility.yul\":9592:9596   */\n      0xe0\n        /* \"#utility.yul\":9587:9590   */\n      dup4\n        /* \"#utility.yul\":9583:9597   */\n      add\n        /* \"#utility.yul\":9678:9682   */\n      0x00\n        /* \"#utility.yul\":9671:9676   */\n      dup4\n        /* \"#utility.yul\":9667:9683   */\n      add\n        /* \"#utility.yul\":9661:9684   */\n      mload\n        /* \"#utility.yul\":9731:9734   */\n      dup5\n        /* \"#utility.yul\":9725:9729   */\n      dup3\n        /* \"#utility.yul\":9721:9735   */\n      sub\n        /* \"#utility.yul\":9714:9718   */\n      0x00\n        /* \"#utility.yul\":9709:9712   */\n      dup7\n        /* \"#utility.yul\":9705:9719   */\n      add\n        /* \"#utility.yul\":9698:9736   */\n      mstore\n        /* \"#utility.yul\":9757:9830   */\n      tag_391\n        /* \"#utility.yul\":9825:9829   */\n      dup3\n        /* \"#utility.yul\":9811:9823   */\n      dup3\n        /* \"#utility.yul\":9757:9830   */\n      tag_242\n      jump\t// in\n    tag_391:\n        /* \"#utility.yul\":9749:9830   */\n      swap2\n      pop\n        /* \"#utility.yul\":9607:9841   */\n      pop\n        /* \"#utility.yul\":9928:9932   */\n      0x20\n        /* \"#utility.yul\":9921:9926   */\n      dup4\n        /* \"#utility.yul\":9917:9933   */\n      add\n        /* \"#utility.yul\":9911:9934   */\n      mload\n        /* \"#utility.yul\":9947:10010   */\n      tag_392\n        /* \"#utility.yul\":10004:10008   */\n      0x20\n        /* \"#utility.yul\":9999:10002   */\n      dup7\n        /* \"#utility.yul\":9995:10009   */\n      add\n        /* \"#utility.yul\":9981:9993   */\n      dup3\n        /* \"#utility.yul\":9947:10010   */\n      tag_239\n      jump\t// in\n    tag_392:\n        /* \"#utility.yul\":9851:10020   */\n      pop\n        /* \"#utility.yul\":10106:10110   */\n      0x40\n        /* \"#utility.yul\":10099:10104   */\n      dup4\n        /* \"#utility.yul\":10095:10111   */\n      add\n        /* \"#utility.yul\":10089:10112   */\n      mload\n        /* \"#utility.yul\":10125:10188   */\n      tag_393\n        /* \"#utility.yul\":10182:10186   */\n      0x40\n        /* \"#utility.yul\":10177:10180   */\n      dup7\n        /* \"#utility.yul\":10173:10187   */\n      add\n        /* \"#utility.yul\":10159:10171   */\n      dup3\n        /* \"#utility.yul\":10125:10188   */\n      tag_239\n      jump\t// in\n    tag_393:\n        /* \"#utility.yul\":10030:10198   */\n      pop\n        /* \"#utility.yul\":10287:10291   */\n      0x60\n        /* \"#utility.yul\":10280:10285   */\n      dup4\n        /* \"#utility.yul\":10276:10292   */\n      add\n        /* \"#utility.yul\":10270:10293   */\n      mload\n        /* \"#utility.yul\":10306:10365   */\n      tag_394\n        /* \"#utility.yul\":10359:10363   */\n      0x60\n        /* \"#utility.yul\":10354:10357   */\n      dup7\n        /* \"#utility.yul\":10350:10364   */\n      add\n        /* \"#utility.yul\":10336:10348   */\n      dup3\n        /* \"#utility.yul\":10306:10365   */\n      tag_247\n      jump\t// in\n    tag_394:\n        /* \"#utility.yul\":10208:10375   */\n      pop\n        /* \"#utility.yul\":10459:10463   */\n      0x80\n        /* \"#utility.yul\":10452:10457   */\n      dup4\n        /* \"#utility.yul\":10448:10464   */\n      add\n        /* \"#utility.yul\":10442:10465   */\n      mload\n        /* \"#utility.yul\":10478:10537   */\n      tag_395\n        /* \"#utility.yul\":10531:10535   */\n      0x80\n        /* \"#utility.yul\":10526:10529   */\n      dup7\n        /* \"#utility.yul\":10522:10536   */\n      add\n        /* \"#utility.yul\":10508:10520   */\n      dup3\n        /* \"#utility.yul\":10478:10537   */\n      tag_247\n      jump\t// in\n    tag_395:\n        /* \"#utility.yul\":10385:10547   */\n      pop\n        /* \"#utility.yul\":10632:10636   */\n      0xa0\n        /* \"#utility.yul\":10625:10630   */\n      dup4\n        /* \"#utility.yul\":10621:10637   */\n      add\n        /* \"#utility.yul\":10615:10638   */\n      mload\n        /* \"#utility.yul\":10651:10710   */\n      tag_396\n        /* \"#utility.yul\":10704:10708   */\n      0xa0\n        /* \"#utility.yul\":10699:10702   */\n      dup7\n        /* \"#utility.yul\":10695:10709   */\n      add\n        /* \"#utility.yul\":10681:10693   */\n      dup3\n        /* \"#utility.yul\":10651:10710   */\n      tag_247\n      jump\t// in\n    tag_396:\n        /* \"#utility.yul\":10557:10720   */\n      pop\n        /* \"#utility.yul\":10807:10811   */\n      0xc0\n        /* \"#utility.yul\":10800:10805   */\n      dup4\n        /* \"#utility.yul\":10796:10812   */\n      add\n        /* \"#utility.yul\":10790:10813   */\n      mload\n        /* \"#utility.yul\":10826:10889   */\n      tag_397\n        /* \"#utility.yul\":10883:10887   */\n      0xc0\n        /* \"#utility.yul\":10878:10881   */\n      dup7\n        /* \"#utility.yul\":10874:10888   */\n      add\n        /* \"#utility.yul\":10860:10872   */\n      dup3\n        /* \"#utility.yul\":10826:10889   */\n      tag_240\n      jump\t// in\n    tag_397:\n        /* \"#utility.yul\":10730:10899   */\n      pop\n        /* \"#utility.yul\":10916:10920   */\n      dup1\n        /* \"#utility.yul\":10909:10920   */\n      swap2\n      pop\n        /* \"#utility.yul\":9561:10926   */\n      pop\n        /* \"#utility.yul\":9453:10926   */\n      swap3\n      swap2\n      pop\n      pop\n      jump\t// out\n        /* \"#utility.yul\":10932:11176   */\n    tag_249:\n        /* \"#utility.yul\":11045:11055   */\n      0x00\n        /* \"#utility.yul\":11080:11170   */\n      tag_399\n        /* \"#utility.yul\":11166:11169   */\n      dup4\n        /* \"#utility.yul\":11158:11164   */\n      dup4\n        /* \"#utility.yul\":11080:11170   */\n      tag_248\n      jump\t// in\n    tag_399:\n        /* \"#utility.yul\":11066:11170   */\n      swap1\n      pop\n        /* \"#utility.yul\":10932:11176   */\n      swap3\n      swap2\n      pop\n      pop\n      jump\t// out\n        /* \"#utility.yul\":11182:11317   */\n    tag_250:\n        /* \"#utility.yul\":11274:11278   */\n      0x00\n        /* \"#utility.yul\":11306:11310   */\n      0x20\n        /* \"#utility.yul\":11301:11304   */\n      dup3\n        /* \"#utility.yul\":11297:11311   */\n      add\n        /* \"#utility.yul\":11289:11311   */\n      swap1\n      pop\n        /* \"#utility.yul\":11182:11317   */\n      swap2\n      swap1\n      pop\n      jump\t// out\n        /* \"#utility.yul\":11389:12456   */\n    tag_251:\n        /* \"#utility.yul\":11542:11545   */\n      0x00\n        /* \"#utility.yul\":11571:11647   */\n      tag_402\n        /* \"#utility.yul\":11641:11646   */\n      dup3\n        /* \"#utility.yul\":11571:11647   */\n      tag_243\n      jump\t// in\n    tag_402:\n        /* \"#utility.yul\":11663:11761   */\n      tag_403\n        /* \"#utility.yul\":11754:11760   */\n      dup2\n        /* \"#utility.yul\":11749:11752   */\n      dup6\n        /* \"#utility.yul\":11663:11761   */\n      tag_244\n      jump\t// in\n    tag_403:\n        /* \"#utility.yul\":11656:11761   */\n      swap4\n      pop\n        /* \"#utility.yul\":11787:11790   */\n      dup4\n        /* \"#utility.yul\":11832:11836   */\n      0x20\n        /* \"#utility.yul\":11824:11830   */\n      dup3\n        /* \"#utility.yul\":11820:11837   */\n      mul\n        /* \"#utility.yul\":11815:11818   */\n      dup6\n        /* \"#utility.yul\":11811:11838   */\n      add\n        /* \"#utility.yul\":11862:11940   */\n      tag_404\n        /* \"#utility.yul\":11934:11939   */\n      dup6\n        /* \"#utility.yul\":11862:11940   */\n      tag_245\n      jump\t// in\n    tag_404:\n        /* \"#utility.yul\":11963:11970   */\n      dup1\n        /* \"#utility.yul\":11994:11995   */\n      0x00\n        /* \"#utility.yul\":11979:12411   */\n    tag_405:\n        /* \"#utility.yul\":12004:12010   */\n      dup6\n        /* \"#utility.yul\":12001:12002   */\n      dup2\n        /* \"#utility.yul\":11998:12011   */\n      lt\n        /* \"#utility.yul\":11979:12411   */\n      iszero\n      tag_407\n      jumpi\n        /* \"#utility.yul\":12075:12084   */\n      dup5\n        /* \"#utility.yul\":12069:12073   */\n      dup5\n        /* \"#utility.yul\":12065:12085   */\n      sub\n        /* \"#utility.yul\":12060:12063   */\n      dup10\n        /* \"#utility.yul\":12053:12086   */\n      mstore\n        /* \"#utility.yul\":12126:12132   */\n      dup2\n        /* \"#utility.yul\":12120:12133   */\n      mload\n        /* \"#utility.yul\":12154:12262   */\n      tag_408\n        /* \"#utility.yul\":12257:12261   */\n      dup6\n        /* \"#utility.yul\":12242:12255   */\n      dup3\n        /* \"#utility.yul\":12154:12262   */\n      tag_249\n      jump\t// in\n    tag_408:\n        /* \"#utility.yul\":12146:12262   */\n      swap5\n      pop\n        /* \"#utility.yul\":12285:12367   */\n      tag_409\n        /* \"#utility.yul\":12360:12366   */\n      dup4\n        /* \"#utility.yul\":12285:12367   */\n      tag_250\n      jump\t// in\n    tag_409:\n        /* \"#utility.yul\":12275:12367   */\n      swap3\n      pop\n        /* \"#utility.yul\":12396:12400   */\n      0x20\n        /* \"#utility.yul\":12391:12394   */\n      dup11\n        /* \"#utility.yul\":12387:12401   */\n      add\n        /* \"#utility.yul\":12380:12401   */\n      swap10\n      pop\n        /* \"#utility.yul\":12039:12411   */\n      pop\n        /* \"#utility.yul\":12026:12027   */\n      0x01\n        /* \"#utility.yul\":12023:12024   */\n      dup2\n        /* \"#utility.yul\":12019:12028   */\n      add\n        /* \"#utility.yul\":12014:12028   */\n      swap1\n      pop\n        /* \"#utility.yul\":11979:12411   */\n      jump(tag_405)\n    tag_407:\n        /* \"#utility.yul\":11983:11997   */\n      pop\n        /* \"#utility.yul\":12427:12431   */\n      dup3\n        /* \"#utility.yul\":12420:12431   */\n      swap8\n      pop\n        /* \"#utility.yul\":12447:12450   */\n      dup8\n        /* \"#utility.yul\":12440:12450   */\n      swap6\n      pop\n        /* \"#utility.yul\":11547:12456   */\n      pop\n      pop\n      pop\n      pop\n      pop\n        /* \"#utility.yul\":11389:12456   */\n      swap3\n      swap2\n      pop\n      pop\n      jump\t// out\n        /* \"#utility.yul\":12526:14741   */\n    tag_252:\n        /* \"#utility.yul\":12641:12644   */\n      0x00\n        /* \"#utility.yul\":12677:12683   */\n      0x0120\n        /* \"#utility.yul\":12672:12675   */\n      dup4\n        /* \"#utility.yul\":12668:12684   */\n      add\n        /* \"#utility.yul\":12764:12768   */\n      0x00\n        /* \"#utility.yul\":12757:12762   */\n      dup4\n        /* \"#utility.yul\":12753:12769   */\n      add\n        /* \"#utility.yul\":12747:12770   */\n      mload\n        /* \"#utility.yul\":12783:12846   */\n      tag_411\n        /* \"#utility.yul\":12840:12844   */\n      0x00\n        /* \"#utility.yul\":12835:12838   */\n      dup7\n        /* \"#utility.yul\":12831:12845   */\n      add\n        /* \"#utility.yul\":12817:12829   */\n      dup3\n        /* \"#utility.yul\":12783:12846   */\n      tag_239\n      jump\t// in\n    tag_411:\n        /* \"#utility.yul\":12694:12856   */\n      pop\n        /* \"#utility.yul\":12939:12943   */\n      0x20\n        /* \"#utility.yul\":12932:12937   */\n      dup4\n        /* \"#utility.yul\":12928:12944   */\n      add\n        /* \"#utility.yul\":12922:12945   */\n      mload\n        /* \"#utility.yul\":12958:13021   */\n      tag_412\n        /* \"#utility.yul\":13015:13019   */\n      0x20\n        /* \"#utility.yul\":13010:13013   */\n      dup7\n        /* \"#utility.yul\":13006:13020   */\n      add\n        /* \"#utility.yul\":12992:13004   */\n      dup3\n        /* \"#utility.yul\":12958:13021   */\n      tag_240\n      jump\t// in\n    tag_412:\n        /* \"#utility.yul\":12866:13031   */\n      pop\n        /* \"#utility.yul\":13113:13117   */\n      0x40\n        /* \"#utility.yul\":13106:13111   */\n      dup4\n        /* \"#utility.yul\":13102:13118   */\n      add\n        /* \"#utility.yul\":13096:13119   */\n      mload\n        /* \"#utility.yul\":13166:13169   */\n      dup5\n        /* \"#utility.yul\":13160:13164   */\n      dup3\n        /* \"#utility.yul\":13156:13170   */\n      sub\n        /* \"#utility.yul\":13149:13153   */\n      0x40\n        /* \"#utility.yul\":13144:13147   */\n      dup7\n        /* \"#utility.yul\":13140:13154   */\n      add\n        /* \"#utility.yul\":13133:13171   */\n      mstore\n        /* \"#utility.yul\":13192:13265   */\n      tag_413\n        /* \"#utility.yul\":13260:13264   */\n      dup3\n        /* \"#utility.yul\":13246:13258   */\n      dup3\n        /* \"#utility.yul\":13192:13265   */\n      tag_242\n      jump\t// in\n    tag_413:\n        /* \"#utility.yul\":13184:13265   */\n      swap2\n      pop\n        /* \"#utility.yul\":13041:13276   */\n      pop\n        /* \"#utility.yul\":13360:13364   */\n      0x60\n        /* \"#utility.yul\":13353:13358   */\n      dup4\n        /* \"#utility.yul\":13349:13365   */\n      add\n        /* \"#utility.yul\":13343:13366   */\n      mload\n        /* \"#utility.yul\":13413:13416   */\n      dup5\n        /* \"#utility.yul\":13407:13411   */\n      dup3\n        /* \"#utility.yul\":13403:13417   */\n      sub\n        /* \"#utility.yul\":13396:13400   */\n      0x60\n        /* \"#utility.yul\":13391:13394   */\n      dup7\n        /* \"#utility.yul\":13387:13401   */\n      add\n        /* \"#utility.yul\":13380:13418   */\n      mstore\n        /* \"#utility.yul\":13439:13512   */\n      tag_414\n        /* \"#utility.yul\":13507:13511   */\n      dup3\n        /* \"#utility.yul\":13493:13505   */\n      dup3\n        /* \"#utility.yul\":13439:13512   */\n      tag_242\n      jump\t// in\n    tag_414:\n        /* \"#utility.yul\":13431:13512   */\n      swap2\n      pop\n        /* \"#utility.yul\":13286:13523   */\n      pop\n        /* \"#utility.yul\":13613:13617   */\n      0x80\n        /* \"#utility.yul\":13606:13611   */\n      dup4\n        /* \"#utility.yul\":13602:13618   */\n      add\n        /* \"#utility.yul\":13596:13619   */\n      mload\n        /* \"#utility.yul\":13666:13669   */\n      dup5\n        /* \"#utility.yul\":13660:13664   */\n      dup3\n        /* \"#utility.yul\":13656:13670   */\n      sub\n        /* \"#utility.yul\":13649:13653   */\n      0x80\n        /* \"#utility.yul\":13644:13647   */\n      dup7\n        /* \"#utility.yul\":13640:13654   */\n      add\n        /* \"#utility.yul\":13633:13671   */\n      mstore\n        /* \"#utility.yul\":13692:13765   */\n      tag_415\n        /* \"#utility.yul\":13760:13764   */\n      dup3\n        /* \"#utility.yul\":13746:13758   */\n      dup3\n        /* \"#utility.yul\":13692:13765   */\n      tag_242\n      jump\t// in\n    tag_415:\n        /* \"#utility.yul\":13684:13765   */\n      swap2\n      pop\n        /* \"#utility.yul\":13533:13776   */\n      pop\n        /* \"#utility.yul\":13867:13871   */\n      0xa0\n        /* \"#utility.yul\":13860:13865   */\n      dup4\n        /* \"#utility.yul\":13856:13872   */\n      add\n        /* \"#utility.yul\":13850:13873   */\n      mload\n        /* \"#utility.yul\":13920:13923   */\n      dup5\n        /* \"#utility.yul\":13914:13918   */\n      dup3\n        /* \"#utility.yul\":13910:13924   */\n      sub\n        /* \"#utility.yul\":13903:13907   */\n      0xa0\n        /* \"#utility.yul\":13898:13901   */\n      dup7\n        /* \"#utility.yul\":13894:13908   */\n      add\n        /* \"#utility.yul\":13887:13925   */\n      mstore\n        /* \"#utility.yul\":13946:14019   */\n      tag_416\n        /* \"#utility.yul\":14014:14018   */\n      dup3\n        /* \"#utility.yul\":14000:14012   */\n      dup3\n        /* \"#utility.yul\":13946:14019   */\n      tag_242\n      jump\t// in\n    tag_416:\n        /* \"#utility.yul\":13938:14019   */\n      swap2\n      pop\n        /* \"#utility.yul\":13786:14030   */\n      pop\n        /* \"#utility.yul\":14120:14124   */\n      0xc0\n        /* \"#utility.yul\":14113:14118   */\n      dup4\n        /* \"#utility.yul\":14109:14125   */\n      add\n        /* \"#utility.yul\":14103:14126   */\n      mload\n        /* \"#utility.yul\":14139:14202   */\n      tag_417\n        /* \"#utility.yul\":14196:14200   */\n      0xc0\n        /* \"#utility.yul\":14191:14194   */\n      dup7\n        /* \"#utility.yul\":14187:14201   */\n      add\n        /* \"#utility.yul\":14173:14185   */\n      dup3\n        /* \"#utility.yul\":14139:14202   */\n      tag_240\n      jump\t// in\n    tag_417:\n        /* \"#utility.yul\":14040:14212   */\n      pop\n        /* \"#utility.yul\":14296:14300   */\n      0xe0\n        /* \"#utility.yul\":14289:14294   */\n      dup4\n        /* \"#utility.yul\":14285:14301   */\n      add\n        /* \"#utility.yul\":14279:14302   */\n      mload\n        /* \"#utility.yul\":14315:14378   */\n      tag_418\n        /* \"#utility.yul\":14372:14376   */\n      0xe0\n        /* \"#utility.yul\":14367:14370   */\n      dup7\n        /* \"#utility.yul\":14363:14377   */\n      add\n        /* \"#utility.yul\":14349:14361   */\n      dup3\n        /* \"#utility.yul\":14315:14378   */\n      tag_240\n      jump\t// in\n    tag_418:\n        /* \"#utility.yul\":14222:14388   */\n      pop\n        /* \"#utility.yul\":14473:14479   */\n      0x0100\n        /* \"#utility.yul\":14466:14471   */\n      dup4\n        /* \"#utility.yul\":14462:14480   */\n      add\n        /* \"#utility.yul\":14456:14481   */\n      mload\n        /* \"#utility.yul\":14530:14533   */\n      dup5\n        /* \"#utility.yul\":14524:14528   */\n      dup3\n        /* \"#utility.yul\":14520:14534   */\n      sub\n        /* \"#utility.yul\":14511:14517   */\n      0x0100\n        /* \"#utility.yul\":14506:14509   */\n      dup7\n        /* \"#utility.yul\":14502:14518   */\n      add\n        /* \"#utility.yul\":14495:14535   */\n      mstore\n        /* \"#utility.yul\":14556:14703   */\n      tag_419\n        /* \"#utility.yul\":14698:14702   */\n      dup3\n        /* \"#utility.yul\":14684:14696   */\n      dup3\n        /* \"#utility.yul\":14556:14703   */\n      tag_251\n      jump\t// in\n    tag_419:\n        /* \"#utility.yul\":14548:14703   */\n      swap2\n      pop\n        /* \"#utility.yul\":14398:14714   */\n      pop\n        /* \"#utility.yul\":14731:14735   */\n      dup1\n        /* \"#utility.yul\":14724:14735   */\n      swap2\n      pop\n        /* \"#utility.yul\":12646:14741   */\n      pop\n        /* \"#utility.yul\":12526:14741   */\n      swap3\n      swap2\n      pop\n      pop\n      jump\t// out\n        /* \"#utility.yul\":14747:15112   */\n    tag_48:\n        /* \"#utility.yul\":14886:14890   */\n      0x00\n        /* \"#utility.yul\":14924:14926   */\n      0x20\n        /* \"#utility.yul\":14913:14922   */\n      dup3\n        /* \"#utility.yul\":14909:14927   */\n      add\n        /* \"#utility.yul\":14901:14927   */\n      swap1\n      pop\n        /* \"#utility.yul\":14973:14982   */\n      dup2\n        /* \"#utility.yul\":14967:14971   */\n      dup2\n        /* \"#utility.yul\":14963:14983   */\n      sub\n        /* \"#utility.yul\":14959:14960   */\n      0x00\n        /* \"#utility.yul\":14948:14957   */\n      dup4\n        /* \"#utility.yul\":14944:14961   */\n      add\n        /* \"#utility.yul\":14937:14984   */\n      mstore\n        /* \"#utility.yul\":15001:15105   */\n      tag_421\n        /* \"#utility.yul\":15100:15104   */\n      dup2\n        /* \"#utility.yul\":15091:15097   */\n      dup5\n        /* \"#utility.yul\":15001:15105   */\n      tag_252\n      jump\t// in\n    tag_421:\n        /* \"#utility.yul\":14993:15105   */\n      swap1\n      pop\n        /* \"#utility.yul\":14747:15112   */\n      swap3\n      swap2\n      pop\n      pop\n      jump\t// out\n        /* \"#utility.yul\":15118:15208   */\n    tag_253:\n        /* \"#utility.yul\":15152:15159   */\n      0x00\n        /* \"#utility.yul\":15195:15200   */\n      dup2\n        /* \"#utility.yul\":15188:15201   */\n      iszero\n        /* \"#utility.yul\":15181:15202   */\n      iszero\n        /* \"#utility.yul\":15170:15202   */\n      swap1\n      pop\n        /* \"#utility.yul\":15118:15208   */\n      swap2\n      swap1\n      pop\n      jump\t// out\n        /* \"#utility.yul\":15214:15323   */\n    tag_254:\n        /* \"#utility.yul\":15295:15316   */\n      tag_424\n        /* \"#utility.yul\":15310:15315   */\n      dup2\n        /* \"#utility.yul\":15295:15316   */\n      tag_253\n      jump\t// in\n    tag_424:\n        /* \"#utility.yul\":15290:15293   */\n      dup3\n        /* \"#utility.yul\":15283:15317   */\n      mstore\n        /* \"#utility.yul\":15214:15323   */\n      pop\n      pop\n      jump\t// out\n        /* \"#utility.yul\":15329:15539   */\n    tag_53:\n        /* \"#utility.yul\":15416:15420   */\n      0x00\n        /* \"#utility.yul\":15454:15456   */\n      0x20\n        /* \"#utility.yul\":15443:15452   */\n      dup3\n        /* \"#utility.yul\":15439:15457   */\n      add\n        /* \"#utility.yul\":15431:15457   */\n      swap1\n      pop\n        /* \"#utility.yul\":15467:15532   */\n      tag_426\n        /* \"#utility.yul\":15529:15530   */\n      0x00\n        /* \"#utility.yul\":15518:15527   */\n      dup4\n        /* \"#utility.yul\":15514:15531   */\n      add\n        /* \"#utility.yul\":15505:15511   */\n      dup5\n        /* \"#utility.yul\":15467:15532   */\n      tag_254\n      jump\t// in\n    tag_426:\n        /* \"#utility.yul\":15329:15539   */\n      swap3\n      swap2\n      pop\n      pop\n      jump\t// out\n        /* \"#utility.yul\":15545:15663   */\n    tag_255:\n        /* \"#utility.yul\":15616:15638   */\n      tag_428\n        /* \"#utility.yul\":15632:15637   */\n      dup2\n        /* \"#utility.yul\":15616:15638   */\n      tag_246\n      jump\t// in\n    tag_428:\n        /* \"#utility.yul\":15609:15614   */\n      dup2\n        /* \"#utility.yul\":15606:15639   */\n      eq\n        /* \"#utility.yul\":15596:15657   */\n      tag_429\n      jumpi\n        /* \"#utility.yul\":15653:15654   */\n      0x00\n        /* \"#utility.yul\":15650:15651   */\n      dup1\n        /* \"#utility.yul\":15643:15655   */\n      revert\n        /* \"#utility.yul\":15596:15657   */\n    tag_429:\n        /* \"#utility.yul\":15545:15663   */\n      pop\n      jump\t// out\n        /* \"#utility.yul\":15669:15804   */\n    tag_256:\n        /* \"#utility.yul\":15713:15718   */\n      0x00\n        /* \"#utility.yul\":15751:15757   */\n      dup2\n        /* \"#utility.yul\":15738:15758   */\n      calldataload\n        /* \"#utility.yul\":15729:15758   */\n      swap1\n      pop\n        /* \"#utility.yul\":15767:15798   */\n      tag_431\n        /* \"#utility.yul\":15792:15797   */\n      dup2\n        /* \"#utility.yul\":15767:15798   */\n      tag_255\n      jump\t// in\n    tag_431:\n        /* \"#utility.yul\":15669:15804   */\n      swap3\n      swap2\n      pop\n      pop\n      jump\t// out\n        /* \"#utility.yul\":15810:17035   */\n    tag_56:\n        /* \"#utility.yul\":15918:15924   */\n      0x00\n        /* \"#utility.yul\":15926:15932   */\n      dup1\n        /* \"#utility.yul\":15934:15940   */\n      0x00\n        /* \"#utility.yul\":15942:15948   */\n      dup1\n        /* \"#utility.yul\":15950:15956   */\n      0x00\n        /* \"#utility.yul\":15958:15964   */\n      dup1\n        /* \"#utility.yul\":16007:16010   */\n      0xc0\n        /* \"#utility.yul\":15995:16004   */\n      dup8\n        /* \"#utility.yul\":15986:15993   */\n      dup10\n        /* \"#utility.yul\":15982:16005   */\n      sub\n        /* \"#utility.yul\":15978:16011   */\n      slt\n        /* \"#utility.yul\":15975:16095   */\n      iszero\n      tag_433\n      jumpi\n        /* \"#utility.yul\":16014:16093   */\n      tag_434\n      tag_216\n      jump\t// in\n    tag_434:\n        /* \"#utility.yul\":15975:16095   */\n    tag_433:\n        /* \"#utility.yul\":16162:16163   */\n      0x00\n        /* \"#utility.yul\":16151:16160   */\n      dup8\n        /* \"#utility.yul\":16147:16164   */\n      add\n        /* \"#utility.yul\":16134:16165   */\n      calldataload\n        /* \"#utility.yul\":16192:16210   */\n      0xffffffffffffffff\n        /* \"#utility.yul\":16184:16190   */\n      dup2\n        /* \"#utility.yul\":16181:16211   */\n      gt\n        /* \"#utility.yul\":16178:16295   */\n      iszero\n      tag_435\n      jumpi\n        /* \"#utility.yul\":16214:16293   */\n      tag_436\n      tag_217\n      jump\t// in\n    tag_436:\n        /* \"#utility.yul\":16178:16295   */\n    tag_435:\n        /* \"#utility.yul\":16319:16382   */\n      tag_437\n        /* \"#utility.yul\":16374:16381   */\n      dup10\n        /* \"#utility.yul\":16365:16371   */\n      dup3\n        /* \"#utility.yul\":16354:16363   */\n      dup11\n        /* \"#utility.yul\":16350:16372   */\n      add\n        /* \"#utility.yul\":16319:16382   */\n      tag_238\n      jump\t// in\n    tag_437:\n        /* \"#utility.yul\":16309:16382   */\n      swap7\n      pop\n        /* \"#utility.yul\":16105:16392   */\n      pop\n        /* \"#utility.yul\":16431:16433   */\n      0x20\n        /* \"#utility.yul\":16457:16510   */\n      tag_438\n        /* \"#utility.yul\":16502:16509   */\n      dup10\n        /* \"#utility.yul\":16493:16499   */\n      dup3\n        /* \"#utility.yul\":16482:16491   */\n      dup11\n        /* \"#utility.yul\":16478:16500   */\n      add\n        /* \"#utility.yul\":16457:16510   */\n      tag_221\n      jump\t// in\n    tag_438:\n        /* \"#utility.yul\":16447:16510   */\n      swap6\n      pop\n        /* \"#utility.yul\":16402:16520   */\n      pop\n        /* \"#utility.yul\":16559:16561   */\n      0x40\n        /* \"#utility.yul\":16585:16638   */\n      tag_439\n        /* \"#utility.yul\":16630:16637   */\n      dup10\n        /* \"#utility.yul\":16621:16627   */\n      dup3\n        /* \"#utility.yul\":16610:16619   */\n      dup11\n        /* \"#utility.yul\":16606:16628   */\n      add\n        /* \"#utility.yul\":16585:16638   */\n      tag_221\n      jump\t// in\n    tag_439:\n        /* \"#utility.yul\":16575:16638   */\n      swap5\n      pop\n        /* \"#utility.yul\":16530:16648   */\n      pop\n        /* \"#utility.yul\":16687:16689   */\n      0x60\n        /* \"#utility.yul\":16713:16764   */\n      tag_440\n        /* \"#utility.yul\":16756:16763   */\n      dup10\n        /* \"#utility.yul\":16747:16753   */\n      dup3\n        /* \"#utility.yul\":16736:16745   */\n      dup11\n        /* \"#utility.yul\":16732:16754   */\n      add\n        /* \"#utility.yul\":16713:16764   */\n      tag_256\n      jump\t// in\n    tag_440:\n        /* \"#utility.yul\":16703:16764   */\n      swap4\n      pop\n        /* \"#utility.yul\":16658:16774   */\n      pop\n        /* \"#utility.yul\":16813:16816   */\n      0x80\n        /* \"#utility.yul\":16840:16891   */\n      tag_441\n        /* \"#utility.yul\":16883:16890   */\n      dup10\n        /* \"#utility.yul\":16874:16880   */\n      dup3\n        /* \"#utility.yul\":16863:16872   */\n      dup11\n        /* \"#utility.yul\":16859:16881   */\n      add\n        /* \"#utility.yul\":16840:16891   */\n      tag_256\n      jump\t// in\n    tag_441:\n        /* \"#utility.yul\":16830:16891   */\n      swap3\n      pop\n        /* \"#utility.yul\":16784:16901   */\n      pop\n        /* \"#utility.yul\":16940:16943   */\n      0xa0\n        /* \"#utility.yul\":16967:17018   */\n      tag_442\n        /* \"#utility.yul\":17010:17017   */\n      dup10\n        /* \"#utility.yul\":17001:17007   */\n      dup3\n        /* \"#utility.yul\":16990:16999   */\n      dup11\n        /* \"#utility.yul\":16986:17008   */\n      add\n        /* \"#utility.yul\":16967:17018   */\n      tag_256\n      jump\t// in\n    tag_442:\n        /* \"#utility.yul\":16957:17018   */\n      swap2\n      pop\n        /* \"#utility.yul\":16911:17028   */\n      pop\n        /* \"#utility.yul\":15810:17035   */\n      swap3\n      swap6\n      pop\n      swap3\n      swap6\n      pop\n      swap3\n      swap6\n      jump\t// out\n        /* \"#utility.yul\":17041:17247   */\n    tag_257:\n        /* \"#utility.yul\":17162:17173   */\n      0x00\n        /* \"#utility.yul\":17196:17202   */\n      dup3\n        /* \"#utility.yul\":17191:17194   */\n      dup3\n        /* \"#utility.yul\":17184:17203   */\n      mstore\n        /* \"#utility.yul\":17236:17240   */\n      0x20\n        /* \"#utility.yul\":17231:17234   */\n      dup3\n        /* \"#utility.yul\":17227:17241   */\n      add\n        /* \"#utility.yul\":17212:17241   */\n      swap1\n      pop\n        /* \"#utility.yul\":17041:17247   */\n      swap3\n      swap2\n      pop\n      pop\n      jump\t// out\n        /* \"#utility.yul\":17319:18406   */\n    tag_258:\n        /* \"#utility.yul\":17482:17485   */\n      0x00\n        /* \"#utility.yul\":17511:17587   */\n      tag_445\n        /* \"#utility.yul\":17581:17586   */\n      dup3\n        /* \"#utility.yul\":17511:17587   */\n      tag_243\n      jump\t// in\n    tag_445:\n        /* \"#utility.yul\":17603:17711   */\n      tag_446\n        /* \"#utility.yul\":17704:17710   */\n      dup2\n        /* \"#utility.yul\":17699:17702   */\n      dup6\n        /* \"#utility.yul\":17603:17711   */\n      tag_257\n      jump\t// in\n    tag_446:\n        /* \"#utility.yul\":17596:17711   */\n      swap4\n      pop\n        /* \"#utility.yul\":17737:17740   */\n      dup4\n        /* \"#utility.yul\":17782:17786   */\n      0x20\n        /* \"#utility.yul\":17774:17780   */\n      dup3\n        /* \"#utility.yul\":17770:17787   */\n      mul\n        /* \"#utility.yul\":17765:17768   */\n      dup6\n        /* \"#utility.yul\":17761:17788   */\n      add\n        /* \"#utility.yul\":17812:17890   */\n      tag_447\n        /* \"#utility.yul\":17884:17889   */\n      dup6\n        /* \"#utility.yul\":17812:17890   */\n      tag_245\n      jump\t// in\n    tag_447:\n        /* \"#utility.yul\":17913:17920   */\n      dup1\n        /* \"#utility.yul\":17944:17945   */\n      0x00\n        /* \"#utility.yul\":17929:18361   */\n    tag_448:\n        /* \"#utility.yul\":17954:17960   */\n      dup6\n        /* \"#utility.yul\":17951:17952   */\n      dup2\n        /* \"#utility.yul\":17948:17961   */\n      lt\n        /* \"#utility.yul\":17929:18361   */\n      iszero\n      tag_450\n      jumpi\n        /* \"#utility.yul\":18025:18034   */\n      dup5\n        /* \"#utility.yul\":18019:18023   */\n      dup5\n        /* \"#utility.yul\":18015:18035   */\n      sub\n        /* \"#utility.yul\":18010:18013   */\n      dup10\n        /* \"#utility.yul\":18003:18036   */\n      mstore\n        /* \"#utility.yul\":18076:18082   */\n      dup2\n        /* \"#utility.yul\":18070:18083   */\n      mload\n        /* \"#utility.yul\":18104:18212   */\n      tag_451\n        /* \"#utility.yul\":18207:18211   */\n      dup6\n        /* \"#utility.yul\":18192:18205   */\n      dup3\n        /* \"#utility.yul\":18104:18212   */\n      tag_249\n      jump\t// in\n    tag_451:\n        /* \"#utility.yul\":18096:18212   */\n      swap5\n      pop\n        /* \"#utility.yul\":18235:18317   */\n      tag_452\n        /* \"#utility.yul\":18310:18316   */\n      dup4\n        /* \"#utility.yul\":18235:18317   */\n      tag_250\n      jump\t// in\n    tag_452:\n        /* \"#utility.yul\":18225:18317   */\n      swap3\n      pop\n        /* \"#utility.yul\":18346:18350   */\n      0x20\n        /* \"#utility.yul\":18341:18344   */\n      dup11\n        /* \"#utility.yul\":18337:18351   */\n      add\n        /* \"#utility.yul\":18330:18351   */\n      swap10\n      pop\n        /* \"#utility.yul\":17989:18361   */\n      pop\n        /* \"#utility.yul\":17976:17977   */\n      0x01\n        /* \"#utility.yul\":17973:17974   */\n      dup2\n        /* \"#utility.yul\":17969:17978   */\n      add\n        /* \"#utility.yul\":17964:17978   */\n      swap1\n      pop\n        /* \"#utility.yul\":17929:18361   */\n      jump(tag_448)\n    tag_450:\n        /* \"#utility.yul\":17933:17947   */\n      pop\n        /* \"#utility.yul\":18377:18381   */\n      dup3\n        /* \"#utility.yul\":18370:18381   */\n      swap8\n      pop\n        /* \"#utility.yul\":18397:18400   */\n      dup8\n        /* \"#utility.yul\":18390:18400   */\n      swap6\n      pop\n        /* \"#utility.yul\":17487:18406   */\n      pop\n      pop\n      pop\n      pop\n      pop\n        /* \"#utility.yul\":17319:18406   */\n      swap3\n      swap2\n      pop\n      pop\n      jump\t// out\n        /* \"#utility.yul\":18412:18873   */\n    tag_62:\n        /* \"#utility.yul\":18599:18603   */\n      0x00\n        /* \"#utility.yul\":18637:18639   */\n      0x20\n        /* \"#utility.yul\":18626:18635   */\n      dup3\n        /* \"#utility.yul\":18622:18640   */\n      add\n        /* \"#utility.yul\":18614:18640   */\n      swap1\n      pop\n        /* \"#utility.yul\":18686:18695   */\n      dup2\n        /* \"#utility.yul\":18680:18684   */\n      dup2\n        /* \"#utility.yul\":18676:18696   */\n      sub\n        /* \"#utility.yul\":18672:18673   */\n      0x00\n        /* \"#utility.yul\":18661:18670   */\n      dup4\n        /* \"#utility.yul\":18657:18674   */\n      add\n        /* \"#utility.yul\":18650:18697   */\n      mstore\n        /* \"#utility.yul\":18714:18866   */\n      tag_454\n        /* \"#utility.yul\":18861:18865   */\n      dup2\n        /* \"#utility.yul\":18852:18858   */\n      dup5\n        /* \"#utility.yul\":18714:18866   */\n      tag_258\n      jump\t// in\n    tag_454:\n        /* \"#utility.yul\":18706:18866   */\n      swap1\n      pop\n        /* \"#utility.yul\":18412:18873   */\n      swap3\n      swap2\n      pop\n      pop\n      jump\t// out\n        /* \"#utility.yul\":18879:19059   */\n    tag_259:\n        /* \"#utility.yul\":18927:19004   */\n      0x4e487b7100000000000000000000000000000000000000000000000000000000\n        /* \"#utility.yul\":18924:18925   */\n      0x00\n        /* \"#utility.yul\":18917:19005   */\n      mstore\n        /* \"#utility.yul\":19024:19028   */\n      0x22\n        /* \"#utility.yul\":19021:19022   */\n      0x04\n        /* \"#utility.yul\":19014:19029   */\n      mstore\n        /* \"#utility.yul\":19048:19052   */\n      0x24\n        /* \"#utility.yul\":19045:19046   */\n      0x00\n        /* \"#utility.yul\":19038:19053   */\n      revert\n        /* \"#utility.yul\":19065:19385   */\n    tag_75:\n        /* \"#utility.yul\":19109:19115   */\n      0x00\n        /* \"#utility.yul\":19146:19147   */\n      0x02\n        /* \"#utility.yul\":19140:19144   */\n      dup3\n        /* \"#utility.yul\":19136:19148   */\n      div\n        /* \"#utility.yul\":19126:19148   */\n      swap1\n      pop\n        /* \"#utility.yul\":19193:19194   */\n      0x01\n        /* \"#utility.yul\":19187:19191   */\n      dup3\n        /* \"#utility.yul\":19183:19195   */\n      and\n        /* \"#utility.yul\":19214:19232   */\n      dup1\n        /* \"#utility.yul\":19204:19285   */\n      tag_457\n      jumpi\n        /* \"#utility.yul\":19270:19274   */\n      0x7f\n        /* \"#utility.yul\":19262:19268   */\n      dup3\n        /* \"#utility.yul\":19258:19275   */\n      and\n        /* \"#utility.yul\":19248:19275   */\n      swap2\n      pop\n        /* \"#utility.yul\":19204:19285   */\n    tag_457:\n        /* \"#utility.yul\":19332:19334   */\n      0x20\n        /* \"#utility.yul\":19324:19330   */\n      dup3\n        /* \"#utility.yul\":19321:19335   */\n      lt\n        /* \"#utility.yul\":19301:19319   */\n      dup2\n        /* \"#utility.yul\":19298:19336   */\n      sub\n        /* \"#utility.yul\":19295:19379   */\n      tag_458\n      jumpi\n        /* \"#utility.yul\":19351:19369   */\n      tag_459\n      tag_259\n      jump\t// in\n    tag_459:\n        /* \"#utility.yul\":19295:19379   */\n    tag_458:\n        /* \"#utility.yul\":19116:19385   */\n      pop\n        /* \"#utility.yul\":19065:19385   */\n      swap2\n      swap1\n      pop\n      jump\t// out\n        /* \"#utility.yul\":19391:19568   */\n    tag_260:\n        /* \"#utility.yul\":19531:19560   */\n      0x5468697320646f63746f7220616c7265616479206578697374732e0000000000\n        /* \"#utility.yul\":19527:19528   */\n      0x00\n        /* \"#utility.yul\":19519:19525   */\n      dup3\n        /* \"#utility.yul\":19515:19529   */\n      add\n        /* \"#utility.yul\":19508:19561   */\n      mstore\n        /* \"#utility.yul\":19391:19568   */\n      pop\n      jump\t// out\n        /* \"#utility.yul\":19574:19940   */\n    tag_261:\n        /* \"#utility.yul\":19716:19719   */\n      0x00\n        /* \"#utility.yul\":19737:19804   */\n      tag_462\n        /* \"#utility.yul\":19801:19803   */\n      0x1b\n        /* \"#utility.yul\":19796:19799   */\n      dup4\n        /* \"#utility.yul\":19737:19804   */\n      tag_226\n      jump\t// in\n    tag_462:\n        /* \"#utility.yul\":19730:19804   */\n      swap2\n      pop\n        /* \"#utility.yul\":19813:19906   */\n      tag_463\n        /* \"#utility.yul\":19902:19905   */\n      dup3\n        /* \"#utility.yul\":19813:19906   */\n      tag_260\n      jump\t// in\n    tag_463:\n        /* \"#utility.yul\":19931:19933   */\n      0x20\n        /* \"#utility.yul\":19926:19929   */\n      dup3\n        /* \"#utility.yul\":19922:19934   */\n      add\n        /* \"#utility.yul\":19915:19934   */\n      swap1\n      pop\n        /* \"#utility.yul\":19574:19940   */\n      swap2\n      swap1\n      pop\n      jump\t// out\n        /* \"#utility.yul\":19946:20365   */\n    tag_98:\n        /* \"#utility.yul\":20112:20116   */\n      0x00\n        /* \"#utility.yul\":20150:20152   */\n      0x20\n        /* \"#utility.yul\":20139:20148   */\n      dup3\n        /* \"#utility.yul\":20135:20153   */\n      add\n        /* \"#utility.yul\":20127:20153   */\n      swap1\n      pop\n        /* \"#utility.yul\":20199:20208   */\n      dup2\n        /* \"#utility.yul\":20193:20197   */\n      dup2\n        /* \"#utility.yul\":20189:20209   */\n      sub\n        /* \"#utility.yul\":20185:20186   */\n      0x00\n        /* \"#utility.yul\":20174:20183   */\n      dup4\n        /* \"#utility.yul\":20170:20187   */\n      add\n        /* \"#utility.yul\":20163:20210   */\n      mstore\n        /* \"#utility.yul\":20227:20358   */\n      tag_465\n        /* \"#utility.yul\":20353:20357   */\n      dup2\n        /* \"#utility.yul\":20227:20358   */\n      tag_261\n      jump\t// in\n    tag_465:\n        /* \"#utility.yul\":20219:20358   */\n      swap1\n      pop\n        /* \"#utility.yul\":19946:20365   */\n      swap2\n      swap1\n      pop\n      jump\t// out\n        /* \"#utility.yul\":20371:20512   */\n    tag_262:\n        /* \"#utility.yul\":20420:20424   */\n      0x00\n        /* \"#utility.yul\":20443:20446   */\n      dup2\n        /* \"#utility.yul\":20435:20446   */\n      swap1\n      pop\n        /* \"#utility.yul\":20466:20469   */\n      dup2\n        /* \"#utility.yul\":20463:20464   */\n      0x00\n        /* \"#utility.yul\":20456:20470   */\n      mstore\n        /* \"#utility.yul\":20500:20504   */\n      0x20\n        /* \"#utility.yul\":20497:20498   */\n      0x00\n        /* \"#utility.yul\":20487:20505   */\n      keccak256\n        /* \"#utility.yul\":20479:20505   */\n      swap1\n      pop\n        /* \"#utility.yul\":20371:20512   */\n      swap2\n      swap1\n      pop\n      jump\t// out\n        /* \"#utility.yul\":20518:20611   */\n    tag_263:\n        /* \"#utility.yul\":20555:20561   */\n      0x00\n        /* \"#utility.yul\":20602:20604   */\n      0x20\n        /* \"#utility.yul\":20597:20599   */\n      0x1f\n        /* \"#utility.yul\":20590:20595   */\n      dup4\n        /* \"#utility.yul\":20586:20600   */\n      add\n        /* \"#utility.yul\":20582:20605   */\n      div\n        /* \"#utility.yul\":20572:20605   */\n      swap1\n      pop\n        /* \"#utility.yul\":20518:20611   */\n      swap2\n      swap1\n      pop\n      jump\t// out\n        /* \"#utility.yul\":20617:20724   */\n    tag_264:\n        /* \"#utility.yul\":20661:20669   */\n      0x00\n        /* \"#utility.yul\":20711:20716   */\n      dup3\n        /* \"#utility.yul\":20705:20709   */\n      dup3\n        /* \"#utility.yul\":20701:20717   */\n      shl\n        /* \"#utility.yul\":20680:20717   */\n      swap1\n      pop\n        /* \"#utility.yul\":20617:20724   */\n      swap3\n      swap2\n      pop\n      pop\n      jump\t// out\n        /* \"#utility.yul\":20730:21123   */\n    tag_265:\n        /* \"#utility.yul\":20799:20805   */\n      0x00\n        /* \"#utility.yul\":20849:20850   */\n      0x08\n        /* \"#utility.yul\":20837:20847   */\n      dup4\n        /* \"#utility.yul\":20833:20851   */\n      mul\n        /* \"#utility.yul\":20872:20969   */\n      tag_470\n        /* \"#utility.yul\":20902:20968   */\n      0xffffffffffffffffffffffffffffffffffffffffffffffffffffffffffffffff\n        /* \"#utility.yul\":20891:20900   */\n      dup3\n        /* \"#utility.yul\":20872:20969   */\n      tag_264\n      jump\t// in\n    tag_470:\n        /* \"#utility.yul\":20990:21029   */\n      tag_471\n        /* \"#utility.yul\":21020:21028   */\n      dup7\n        /* \"#utility.yul\":21009:21018   */\n      dup4\n        /* \"#utility.yul\":20990:21029   */\n      tag_264\n      jump\t// in\n    tag_471:\n        /* \"#utility.yul\":20978:21029   */\n      swap6\n      pop\n        /* \"#utility.yul\":21062:21066   */\n      dup1\n        /* \"#utility.yul\":21058:21067   */\n      not\n        /* \"#utility.yul\":21051:21056   */\n      dup5\n        /* \"#utility.yul\":21047:21068   */\n      and\n        /* \"#utility.yul\":21038:21068   */\n      swap4\n      pop\n        /* \"#utility.yul\":21111:21115   */\n      dup1\n        /* \"#utility.yul\":21101:21109   */\n      dup7\n        /* \"#utility.yul\":21097:21116   */\n      and\n        /* \"#utility.yul\":21090:21095   */\n      dup5\n        /* \"#utility.yul\":21087:21117   */\n      or\n        /* \"#utility.yul\":21077:21117   */\n      swap3\n      pop\n        /* \"#utility.yul\":20806:21123   */\n      pop\n      pop\n        /* \"#utility.yul\":20730:21123   */\n      swap4\n      swap3\n      pop\n      pop\n      pop\n      jump\t// out\n        /* \"#utility.yul\":21129:21189   */\n    tag_266:\n        /* \"#utility.yul\":21157:21160   */\n      0x00\n        /* \"#utility.yul\":21178:21183   */\n      dup2\n        /* \"#utility.yul\":21171:21183   */\n      swap1\n      pop\n        /* \"#utility.yul\":21129:21189   */\n      swap2\n      swap1\n      pop\n      jump\t// out\n        /* \"#utility.yul\":21195:21337   */\n    tag_267:\n        /* \"#utility.yul\":21245:21254   */\n      0x00\n        /* \"#utility.yul\":21278:21331   */\n      tag_474\n        /* \"#utility.yul\":21296:21330   */\n      tag_475\n        /* \"#utility.yul\":21305:21329   */\n      tag_476\n        /* \"#utility.yul\":21323:21328   */\n      dup5\n        /* \"#utility.yul\":21305:21329   */\n      tag_223\n      jump\t// in\n    tag_476:\n        /* \"#utility.yul\":21296:21330   */\n      tag_266\n      jump\t// in\n    tag_475:\n        /* \"#utility.yul\":21278:21331   */\n      tag_223\n      jump\t// in\n    tag_474:\n        /* \"#utility.yul\":21265:21331   */\n      swap1\n      pop\n        /* \"#utility.yul\":21195:21337   */\n      swap2\n      swap1\n      pop\n      jump\t// out\n        /* \"#utility.yul\":21343:21418   */\n    tag_268:\n        /* \"#utility.yul\":21386:21389   */\n      0x00\n        /* \"#utility.yul\":21407:21412   */\n      dup2\n        /* \"#utility.yul\":21400:21412   */\n      swap1\n      pop\n        /* \"#utility.yul\":21343:21418   */\n      swap2\n      swap1\n      pop\n      jump\t// out\n        /* \"#utility.yul\":21424:21693   */\n    tag_269:\n        /* \"#utility.yul\":21534:21573   */\n      tag_479\n        /* \"#utility.yul\":21565:21572   */\n      dup4\n        /* \"#utility.yul\":21534:21573   */\n      tag_267\n      jump\t// in\n    tag_479:\n        /* \"#utility.yul\":21595:21686   */\n      tag_480\n        /* \"#utility.yul\":21644:21685   */\n      tag_481\n        /* \"#utility.yul\":21668:21684   */\n      dup3\n        /* \"#utility.yul\":21644:21685   */\n      tag_268\n      jump\t// in\n    tag_481:\n        /* \"#utility.yul\":21636:21642   */\n      dup5\n        /* \"#utility.yul\":21629:21633   */\n      dup5\n        /* \"#utility.yul\":21623:21634   */\n      sload\n        /* \"#utility.yul\":21595:21686   */\n      tag_265\n      jump\t// in\n    tag_480:\n        /* \"#utility.yul\":21589:21593   */\n      dup3\n        /* \"#utility.yul\":21582:21687   */\n      sstore\n        /* \"#utility.yul\":21500:21693   */\n      pop\n        /* \"#utility.yul\":21424:21693   */\n      pop\n      pop\n      pop\n      jump\t// out\n        /* \"#utility.yul\":21699:21772   */\n    tag_270:\n        /* \"#utility.yul\":21744:21747   */\n      0x00\n        /* \"#utility.yul\":21699:21772   */\n      swap1\n      jump\t// out\n        /* \"#utility.yul\":21778:21967   */\n    tag_271:\n        /* \"#utility.yul\":21855:21887   */\n      tag_484\n      tag_270\n      jump\t// in\n    tag_484:\n        /* \"#utility.yul\":21896:21961   */\n      tag_485\n        /* \"#utility.yul\":21954:21960   */\n      dup2\n        /* \"#utility.yul\":21946:21952   */\n      dup5\n        /* \"#utility.yul\":21940:21944   */\n      dup5\n        /* \"#utility.yul\":21896:21961   */\n      tag_269\n      jump\t// in\n    tag_485:\n        /* \"#utility.yul\":21831:21967   */\n      pop\n        /* \"#utility.yul\":21778:21967   */\n      pop\n      pop\n      jump\t// out\n        /* \"#utility.yul\":21973:22159   */\n    tag_272:\n        /* \"#utility.yul\":22033:22153   */\n    tag_487:\n        /* \"#utility.yul\":22050:22053   */\n      dup2\n        /* \"#utility.yul\":22043:22048   */\n      dup2\n        /* \"#utility.yul\":22040:22054   */\n      lt\n        /* \"#utility.yul\":22033:22153   */\n      iszero\n      tag_489\n      jumpi\n        /* \"#utility.yul\":22104:22143   */\n      tag_490\n        /* \"#utility.yul\":22141:22142   */\n      0x00\n        /* \"#utility.yul\":22134:22139   */\n      dup3\n        /* \"#utility.yul\":22104:22143   */\n      tag_271\n      jump\t// in\n    tag_490:\n        /* \"#utility.yul\":22077:22078   */\n      0x01\n        /* \"#utility.yul\":22070:22075   */\n      dup2\n        /* \"#utility.yul\":22066:22079   */\n      add\n        /* \"#utility.yul\":22057:22079   */\n      swap1\n      pop\n        /* \"#utility.yul\":22033:22153   */\n      jump(tag_487)\n    tag_489:\n        /* \"#utility.yul\":21973:22159   */\n      pop\n      pop\n      jump\t// out\n        /* \"#utility.yul\":22165:22708   */\n    tag_273:\n        /* \"#utility.yul\":22266:22268   */\n      0x1f\n        /* \"#utility.yul\":22261:22264   */\n      dup3\n        /* \"#utility.yul\":22258:22269   */\n      gt\n        /* \"#utility.yul\":22255:22701   */\n      iszero\n      tag_492\n      jumpi\n        /* \"#utility.yul\":22300:22338   */\n      tag_493\n        /* \"#utility.yul\":22332:22337   */\n      dup2\n        /* \"#utility.yul\":22300:22338   */\n      tag_262\n      jump\t// in\n    tag_493:\n        /* \"#utility.yul\":22384:22413   */\n      tag_494\n        /* \"#utility.yul\":22402:22412   */\n      dup5\n        /* \"#utility.yul\":22384:22413   */\n      tag_263\n      jump\t// in\n    tag_494:\n        /* \"#utility.yul\":22374:22382   */\n      dup2\n        /* \"#utility.yul\":22370:22414   */\n      add\n        /* \"#utility.yul\":22567:22569   */\n      0x20\n        /* \"#utility.yul\":22555:22565   */\n      dup6\n        /* \"#utility.yul\":22552:22570   */\n      lt\n        /* \"#utility.yul\":22549:22598   */\n      iszero\n      tag_495\n      jumpi\n        /* \"#utility.yul\":22588:22596   */\n      dup2\n        /* \"#utility.yul\":22573:22596   */\n      swap1\n      pop\n        /* \"#utility.yul\":22549:22598   */\n    tag_495:\n        /* \"#utility.yul\":22611:22691   */\n      tag_496\n        /* \"#utility.yul\":22667:22689   */\n      tag_497\n        /* \"#utility.yul\":22685:22688   */\n      dup6\n        /* \"#utility.yul\":22667:22689   */\n      tag_263\n      jump\t// in\n    tag_497:\n        /* \"#utility.yul\":22657:22665   */\n      dup4\n        /* \"#utility.yul\":22653:22690   */\n      add\n        /* \"#utility.yul\":22640:22651   */\n      dup3\n        /* \"#utility.yul\":22611:22691   */\n      tag_272\n      jump\t// in\n    tag_496:\n        /* \"#utility.yul\":22270:22701   */\n      pop\n      pop\n        /* \"#utility.yul\":22255:22701   */\n    tag_492:\n        /* \"#utility.yul\":22165:22708   */\n      pop\n      pop\n      pop\n      jump\t// out\n        /* \"#utility.yul\":22714:22831   */\n    tag_274:\n        /* \"#utility.yul\":22768:22776   */\n      0x00\n        /* \"#utility.yul\":22818:22823   */\n      dup3\n        /* \"#utility.yul\":22812:22816   */\n      dup3\n        /* \"#utility.yul\":22808:22824   */\n      shr\n        /* \"#utility.yul\":22787:22824   */\n      swap1\n      pop\n        /* \"#utility.yul\":22714:22831   */\n      swap3\n      swap2\n      pop\n      pop\n      jump\t// out\n        /* \"#utility.yul\":22837:23006   */\n    tag_275:\n        /* \"#utility.yul\":22881:22887   */\n      0x00\n        /* \"#utility.yul\":22914:22965   */\n      tag_500\n        /* \"#utility.yul\":22962:22963   */\n      0x00\n        /* \"#utility.yul\":22958:22964   */\n      not\n        /* \"#utility.yul\":22950:22955   */\n      dup5\n        /* \"#utility.yul\":22947:22948   */\n      0x08\n        /* \"#utility.yul\":22943:22956   */\n      mul\n        /* \"#utility.yul\":22914:22965   */\n      tag_274\n      jump\t// in\n    tag_500:\n        /* \"#utility.yul\":22910:22966   */\n      not\n        /* \"#utility.yul\":22995:22999   */\n      dup1\n        /* \"#utility.yul\":22989:22993   */\n      dup4\n        /* \"#utility.yul\":22985:23000   */\n      and\n        /* \"#utility.yul\":22975:23000   */\n      swap2\n      pop\n        /* \"#utility.yul\":22888:23006   */\n      pop\n        /* \"#utility.yul\":22837:23006   */\n      swap3\n      swap2\n      pop\n      pop\n      jump\t// out\n        /* \"#utility.yul\":23011:23306   */\n    tag_276:\n        /* \"#utility.yul\":23087:23091   */\n      0x00\n        /* \"#utility.yul\":23233:23262   */\n      tag_502\n        /* \"#utility.yul\":23258:23261   */\n      dup4\n        /* \"#utility.yul\":23252:23256   */\n      dup4\n        /* \"#utility.yul\":23233:23262   */\n      tag_275\n      jump\t// in\n    tag_502:\n        /* \"#utility.yul\":23225:23262   */\n      swap2\n      pop\n        /* \"#utility.yul\":23295:23298   */\n      dup3\n        /* \"#utility.yul\":23292:23293   */\n      0x02\n        /* \"#utility.yul\":23288:23299   */\n      mul\n        /* \"#utility.yul\":23282:23286   */\n      dup3\n        /* \"#utility.yul\":23279:23300   */\n      or\n        /* \"#utility.yul\":23271:23300   */\n      swap1\n      pop\n        /* \"#utility.yul\":23011:23306   */\n      swap3\n      swap2\n      pop\n      pop\n      jump\t// out\n        /* \"#utility.yul\":23311:24706   */\n    tag_100:\n        /* \"#utility.yul\":23428:23465   */\n      tag_504\n        /* \"#utility.yul\":23461:23464   */\n      dup3\n        /* \"#utility.yul\":23428:23465   */\n      tag_225\n      jump\t// in\n    tag_504:\n        /* \"#utility.yul\":23530:23548   */\n      0xffffffffffffffff\n        /* \"#utility.yul\":23522:23528   */\n      dup2\n        /* \"#utility.yul\":23519:23549   */\n      gt\n        /* \"#utility.yul\":23516:23572   */\n      iszero\n      tag_505\n      jumpi\n        /* \"#utility.yul\":23552:23570   */\n      tag_506\n      tag_232\n      jump\t// in\n    tag_506:\n        /* \"#utility.yul\":23516:23572   */\n    tag_505:\n        /* \"#utility.yul\":23596:23634   */\n      tag_507\n        /* \"#utility.yul\":23628:23632   */\n      dup3\n        /* \"#utility.yul\":23622:23633   */\n      sload\n        /* \"#utility.yul\":23596:23634   */\n      tag_75\n      jump\t// in\n    tag_507:\n        /* \"#utility.yul\":23681:23748   */\n      tag_508\n        /* \"#utility.yul\":23741:23747   */\n      dup3\n        /* \"#utility.yul\":23733:23739   */\n      dup3\n        /* \"#utility.yul\":23727:23731   */\n      dup6\n        /* \"#utility.yul\":23681:23748   */\n      tag_273\n      jump\t// in\n    tag_508:\n        /* \"#utility.yul\":23775:23776   */\n      0x00\n        /* \"#utility.yul\":23799:23803   */\n      0x20\n        /* \"#utility.yul\":23786:23803   */\n      swap1\n      pop\n        /* \"#utility.yul\":23831:23833   */\n      0x1f\n        /* \"#utility.yul\":23823:23829   */\n      dup4\n        /* \"#utility.yul\":23820:23834   */\n      gt\n        /* \"#utility.yul\":23848:23849   */\n      0x01\n        /* \"#utility.yul\":23843:24461   */\n      dup2\n      eq\n      tag_510\n      jumpi\n        /* \"#utility.yul\":24505:24506   */\n      0x00\n        /* \"#utility.yul\":24522:24528   */\n      dup5\n        /* \"#utility.yul\":24519:24596   */\n      iszero\n      tag_511\n      jumpi\n        /* \"#utility.yul\":24571:24580   */\n      dup3\n        /* \"#utility.yul\":24566:24569   */\n      dup8\n        /* \"#utility.yul\":24562:24581   */\n      add\n        /* \"#utility.yul\":24556:24582   */\n      mload\n        /* \"#utility.yul\":24547:24582   */\n      swap1\n      pop\n        /* \"#utility.yul\":24519:24596   */\n    tag_511:\n        /* \"#utility.yul\":24622:24689   */\n      tag_512\n        /* \"#utility.yul\":24682:24688   */\n      dup6\n        /* \"#utility.yul\":24675:24680   */\n      dup3\n        /* \"#utility.yul\":24622:24689   */\n      tag_276\n      jump\t// in\n    tag_512:\n        /* \"#utility.yul\":24616:24620   */\n      dup7\n        /* \"#utility.yul\":24609:24690   */\n      sstore\n        /* \"#utility.yul\":24478:24700   */\n      pop\n        /* \"#utility.yul\":23813:24700   */\n      jump(tag_509)\n        /* \"#utility.yul\":23843:24461   */\n    tag_510:\n        /* \"#utility.yul\":23895:23899   */\n      0x1f\n        /* \"#utility.yul\":23891:23900   */\n      not\n        /* \"#utility.yul\":23883:23889   */\n      dup5\n        /* \"#utility.yul\":23879:23901   */\n      and\n        /* \"#utility.yul\":23929:23966   */\n      tag_513\n        /* \"#utility.yul\":23961:23965   */\n      dup7\n        /* \"#utility.yul\":23929:23966   */\n      tag_262\n      jump\t// in\n    tag_513:\n        /* \"#utility.yul\":23988:23989   */\n      0x00\n        /* \"#utility.yul\":24002:24210   */\n    tag_514:\n        /* \"#utility.yul\":24016:24023   */\n      dup3\n        /* \"#utility.yul\":24013:24014   */\n      dup2\n        /* \"#utility.yul\":24010:24024   */\n      lt\n        /* \"#utility.yul\":24002:24210   */\n      iszero\n      tag_516\n      jumpi\n        /* \"#utility.yul\":24095:24104   */\n      dup5\n        /* \"#utility.yul\":24090:24093   */\n      dup10\n        /* \"#utility.yul\":24086:24105   */\n      add\n        /* \"#utility.yul\":24080:24106   */\n      mload\n        /* \"#utility.yul\":24072:24078   */\n      dup3\n        /* \"#utility.yul\":24065:24107   */\n      sstore\n        /* \"#utility.yul\":24146:24147   */\n      0x01\n        /* \"#utility.yul\":24138:24144   */\n      dup3\n        /* \"#utility.yul\":24134:24148   */\n      add\n        /* \"#utility.yul\":24124:24148   */\n      swap2\n      pop\n        /* \"#utility.yul\":24193:24195   */\n      0x20\n        /* \"#utility.yul\":24182:24191   */\n      dup6\n        /* \"#utility.yul\":24178:24196   */\n      add\n        /* \"#utility.yul\":24165:24196   */\n      swap5\n      pop\n        /* \"#utility.yul\":24039:24043   */\n      0x20\n        /* \"#utility.yul\":24036:24037   */\n      dup2\n        /* \"#utility.yul\":24032:24044   */\n      add\n        /* \"#utility.yul\":24027:24044   */\n      swap1\n      pop\n        /* \"#utility.yul\":24002:24210   */\n      jump(tag_514)\n    tag_516:\n        /* \"#utility.yul\":24238:24244   */\n      dup7\n        /* \"#utility.yul\":24229:24236   */\n      dup4\n        /* \"#utility.yul\":24226:24245   */\n      lt\n        /* \"#utility.yul\":24223:24402   */\n      iszero\n      tag_517\n      jumpi\n        /* \"#utility.yul\":24296:24305   */\n      dup5\n        /* \"#utility.yul\":24291:24294   */\n      dup10\n        /* \"#utility.yul\":24287:24306   */\n      add\n        /* \"#utility.yul\":24281:24307   */\n      mload\n        /* \"#utility.yul\":24339:24387   */\n      tag_518\n        /* \"#utility.yul\":24381:24385   */\n      0x1f\n        /* \"#utility.yul\":24373:24379   */\n      dup10\n        /* \"#utility.yul\":24369:24386   */\n      and\n        /* \"#utility.yul\":24358:24367   */\n      dup3\n        /* \"#utility.yul\":24339:24387   */\n      tag_275\n      jump\t// in\n    tag_518:\n        /* \"#utility.yul\":24331:24337   */\n      dup4\n        /* \"#utility.yul\":24324:24388   */\n      sstore\n        /* \"#utility.yul\":24246:24402   */\n      pop\n        /* \"#utility.yul\":24223:24402   */\n    tag_517:\n        /* \"#utility.yul\":24448:24449   */\n      0x01\n        /* \"#utility.yul\":24444:24445   */\n      0x02\n        /* \"#utility.yul\":24436:24442   */\n      dup9\n        /* \"#utility.yul\":24432:24446   */\n      mul\n        /* \"#utility.yul\":24428:24450   */\n      add\n        /* \"#utility.yul\":24422:24426   */\n      dup9\n        /* \"#utility.yul\":24415:24451   */\n      sstore\n        /* \"#utility.yul\":23850:24461   */\n      pop\n      pop\n      pop\n        /* \"#utility.yul\":23813:24700   */\n    tag_509:\n      pop\n        /* \"#utility.yul\":23403:24706   */\n      pop\n      pop\n      pop\n        /* \"#utility.yul\":23311:24706   */\n      pop\n      pop\n      jump\t// out\n        /* \"#utility.yul\":24712:24934   */\n    tag_102:\n        /* \"#utility.yul\":24805:24809   */\n      0x00\n        /* \"#utility.yul\":24843:24845   */\n      0x20\n        /* \"#utility.yul\":24832:24841   */\n      dup3\n        /* \"#utility.yul\":24828:24846   */\n      add\n        /* \"#utility.yul\":24820:24846   */\n      swap1\n      pop\n        /* \"#utility.yul\":24856:24927   */\n      tag_520\n        /* \"#utility.yul\":24924:24925   */\n      0x00\n        /* \"#utility.yul\":24913:24922   */\n      dup4\n        /* \"#utility.yul\":24909:24926   */\n      add\n        /* \"#utility.yul\":24900:24906   */\n      dup5\n        /* \"#utility.yul\":24856:24927   */\n      tag_222\n      jump\t// in\n    tag_520:\n        /* \"#utility.yul\":24712:24934   */\n      swap3\n      swap2\n      pop\n      pop\n      jump\t// out\n        /* \"#utility.yul\":24940:25120   */\n    tag_277:\n        /* \"#utility.yul\":25080:25112   */\n      0x5468697320696e737572616e636520616c7265616479206578697374732e0000\n        /* \"#utility.yul\":25076:25077   */\n      0x00\n        /* \"#utility.yul\":25068:25074   */\n      dup3\n        /* \"#utility.yul\":25064:25078   */\n      add\n        /* \"#utility.yul\":25057:25113   */\n      mstore\n        /* \"#utility.yul\":24940:25120   */\n      pop\n      jump\t// out\n        /* \"#utility.yul\":25126:25492   */\n    tag_278:\n        /* \"#utility.yul\":25268:25271   */\n      0x00\n        /* \"#utility.yul\":25289:25356   */\n      tag_523\n        /* \"#utility.yul\":25353:25355   */\n      0x1e\n        /* \"#utility.yul\":25348:25351   */\n      dup4\n        /* \"#utility.yul\":25289:25356   */\n      tag_226\n      jump\t// in\n    tag_523:\n        /* \"#utility.yul\":25282:25356   */\n      swap2\n      pop\n        /* \"#utility.yul\":25365:25458   */\n      tag_524\n        /* \"#utility.yul\":25454:25457   */\n      dup3\n        /* \"#utility.yul\":25365:25458   */\n      tag_277\n      jump\t// in\n    tag_524:\n        /* \"#utility.yul\":25483:25485   */\n      0x20\n        /* \"#utility.yul\":25478:25481   */\n      dup3\n        /* \"#utility.yul\":25474:25486   */\n      add\n        /* \"#utility.yul\":25467:25486   */\n      swap1\n      pop\n        /* \"#utility.yul\":25126:25492   */\n      swap2\n      swap1\n      pop\n      jump\t// out\n        /* \"#utility.yul\":25498:25917   */\n    tag_106:\n        /* \"#utility.yul\":25664:25668   */\n      0x00\n        /* \"#utility.yul\":25702:25704   */\n      0x20\n        /* \"#utility.yul\":25691:25700   */\n      dup3\n        /* \"#utility.yul\":25687:25705   */\n      add\n        /* \"#utility.yul\":25679:25705   */\n      swap1\n      pop\n        /* \"#utility.yul\":25751:25760   */\n      dup2\n        /* \"#utility.yul\":25745:25749   */\n      dup2\n        /* \"#utility.yul\":25741:25761   */\n      sub\n        /* \"#utility.yul\":25737:25738   */\n      0x00\n        /* \"#utility.yul\":25726:25735   */\n      dup4\n        /* \"#utility.yul\":25722:25739   */\n      add\n        /* \"#utility.yul\":25715:25762   */\n      mstore\n        /* \"#utility.yul\":25779:25910   */\n      tag_526\n        /* \"#utility.yul\":25905:25909   */\n      dup2\n        /* \"#utility.yul\":25779:25910   */\n      tag_278\n      jump\t// in\n    tag_526:\n        /* \"#utility.yul\":25771:25910   */\n      swap1\n      pop\n        /* \"#utility.yul\":25498:25917   */\n      swap2\n      swap1\n      pop\n      jump\t// out\n        /* \"#utility.yul\":25923:26095   */\n    tag_279:\n        /* \"#utility.yul\":26063:26087   */\n      0x53656e646572206973206e6f74206120646f63746f7200000000000000000000\n        /* \"#utility.yul\":26059:26060   */\n      0x00\n        /* \"#utility.yul\":26051:26057   */\n      dup3\n        /* \"#utility.yul\":26047:26061   */\n      add\n        /* \"#utility.yul\":26040:26088   */\n      mstore\n        /* \"#utility.yul\":25923:26095   */\n      pop\n      jump\t// out\n        /* \"#utility.yul\":26101:26467   */\n    tag_280:\n        /* \"#utility.yul\":26243:26246   */\n      0x00\n        /* \"#utility.yul\":26264:26331   */\n      tag_529\n        /* \"#utility.yul\":26328:26330   */\n      0x16\n        /* \"#utility.yul\":26323:26326   */\n      dup4\n        /* \"#utility.yul\":26264:26331   */\n      tag_226\n      jump\t// in\n    tag_529:\n        /* \"#utility.yul\":26257:26331   */\n      swap2\n      pop\n        /* \"#utility.yul\":26340:26433   */\n      tag_530\n        /* \"#utility.yul\":26429:26432   */\n      dup3\n        /* \"#utility.yul\":26340:26433   */\n      tag_279\n      jump\t// in\n    tag_530:\n        /* \"#utility.yul\":26458:26460   */\n      0x20\n        /* \"#utility.yul\":26453:26456   */\n      dup3\n        /* \"#utility.yul\":26449:26461   */\n      add\n        /* \"#utility.yul\":26442:26461   */\n      swap1\n      pop\n        /* \"#utility.yul\":26101:26467   */\n      swap2\n      swap1\n      pop\n      jump\t// out\n        /* \"#utility.yul\":26473:26892   */\n    tag_122:\n        /* \"#utility.yul\":26639:26643   */\n      0x00\n        /* \"#utility.yul\":26677:26679   */\n      0x20\n        /* \"#utility.yul\":26666:26675   */\n      dup3\n        /* \"#utility.yul\":26662:26680   */\n      add\n        /* \"#utility.yul\":26654:26680   */\n      swap1\n      pop\n        /* \"#utility.yul\":26726:26735   */\n      dup2\n        /* \"#utility.yul\":26720:26724   */\n      dup2\n        /* \"#utility.yul\":26716:26736   */\n      sub\n        /* \"#utility.yul\":26712:26713   */\n      0x00\n        /* \"#utility.yul\":26701:26710   */\n      dup4\n        /* \"#utility.yul\":26697:26714   */\n      add\n        /* \"#utility.yul\":26690:26737   */\n      mstore\n        /* \"#utility.yul\":26754:26885   */\n      tag_532\n        /* \"#utility.yul\":26880:26884   */\n      dup2\n        /* \"#utility.yul\":26754:26885   */\n      tag_280\n      jump\t// in\n    tag_532:\n        /* \"#utility.yul\":26746:26885   */\n      swap1\n      pop\n        /* \"#utility.yul\":26473:26892   */\n      swap2\n      swap1\n      pop\n      jump\t// out\n        /* \"#utility.yul\":26898:27077   */\n    tag_281:\n        /* \"#utility.yul\":27038:27069   */\n      0x5468697320686f73706974616c20616c7265616479206578697374732e000000\n        /* \"#utility.yul\":27034:27035   */\n      0x00\n        /* \"#utility.yul\":27026:27032   */\n      dup3\n        /* \"#utility.yul\":27022:27036   */\n      add\n        /* \"#utility.yul\":27015:27070   */\n      mstore\n        /* \"#utility.yul\":26898:27077   */\n      pop\n      jump\t// out\n        /* \"#utility.yul\":27083:27449   */\n    tag_282:\n        /* \"#utility.yul\":27225:27228   */\n      0x00\n        /* \"#utility.yul\":27246:27313   */\n      tag_535\n        /* \"#utility.yul\":27310:27312   */\n      0x1d\n        /* \"#utility.yul\":27305:27308   */\n      dup4\n        /* \"#utility.yul\":27246:27313   */\n      tag_226\n      jump\t// in\n    tag_535:\n        /* \"#utility.yul\":27239:27313   */\n      swap2\n      pop\n        /* \"#utility.yul\":27322:27415   */\n      tag_536\n        /* \"#utility.yul\":27411:27414   */\n      dup3\n        /* \"#utility.yul\":27322:27415   */\n      tag_281\n      jump\t// in\n    tag_536:\n        /* \"#utility.yul\":27440:27442   */\n      0x20\n        /* \"#utility.yul\":27435:27438   */\n      dup3\n        /* \"#utility.yul\":27431:27443   */\n      add\n        /* \"#utility.yul\":27424:27443   */\n      swap1\n      pop\n        /* \"#utility.yul\":27083:27449   */\n      swap2\n      swap1\n      pop\n      jump\t// out\n        /* \"#utility.yul\":27455:27874   */\n    tag_126:\n        /* \"#utility.yul\":27621:27625   */\n      0x00\n        /* \"#utility.yul\":27659:27661   */\n      0x20\n        /* \"#utility.yul\":27648:27657   */\n      dup3\n        /* \"#utility.yul\":27644:27662   */\n      add\n        /* \"#utility.yul\":27636:27662   */\n      swap1\n      pop\n        /* \"#utility.yul\":27708:27717   */\n      dup2\n        /* \"#utility.yul\":27702:27706   */\n      dup2\n        /* \"#utility.yul\":27698:27718   */\n      sub\n        /* \"#utility.yul\":27694:27695   */\n      0x00\n        /* \"#utility.yul\":27683:27692   */\n      dup4\n        /* \"#utility.yul\":27679:27696   */\n      add\n        /* \"#utility.yul\":27672:27719   */\n      mstore\n        /* \"#utility.yul\":27736:27867   */\n      tag_538\n        /* \"#utility.yul\":27862:27866   */\n      dup2\n        /* \"#utility.yul\":27736:27867   */\n      tag_282\n      jump\t// in\n    tag_538:\n        /* \"#utility.yul\":27728:27867   */\n      swap1\n      pop\n        /* \"#utility.yul\":27455:27874   */\n      swap2\n      swap1\n      pop\n      jump\t// out\n        /* \"#utility.yul\":27880:28052   */\n    tag_283:\n        /* \"#utility.yul\":28020:28044   */\n      0x50617469656e7420646f6573206e6f7420657869737400000000000000000000\n        /* \"#utility.yul\":28016:28017   */\n      0x00\n        /* \"#utility.yul\":28008:28014   */\n      dup3\n        /* \"#utility.yul\":28004:28018   */\n      add\n        /* \"#utility.yul\":27997:28045   */\n      mstore\n        /* \"#utility.yul\":27880:28052   */\n      pop\n      jump\t// out\n        /* \"#utility.yul\":28058:28424   */\n    tag_284:\n        /* \"#utility.yul\":28200:28203   */\n      0x00\n        /* \"#utility.yul\":28221:28288   */\n      tag_541\n        /* \"#utility.yul\":28285:28287   */\n      0x16\n        /* \"#utility.yul\":28280:28283   */\n      dup4\n        /* \"#utility.yul\":28221:28288   */\n      tag_226\n      jump\t// in\n    tag_541:\n        /* \"#utility.yul\":28214:28288   */\n      swap2\n      pop\n        /* \"#utility.yul\":28297:28390   */\n      tag_542\n        /* \"#utility.yul\":28386:28389   */\n      dup3\n        /* \"#utility.yul\":28297:28390   */\n      tag_283\n      jump\t// in\n    tag_542:\n        /* \"#utility.yul\":28415:28417   */\n      0x20\n        /* \"#utility.yul\":28410:28413   */\n      dup3\n        /* \"#utility.yul\":28406:28418   */\n      add\n        /* \"#utility.yul\":28399:28418   */\n      swap1\n      pop\n        /* \"#utility.yul\":28058:28424   */\n      swap2\n      swap1\n      pop\n      jump\t// out\n        /* \"#utility.yul\":28430:28849   */\n    tag_173:\n        /* \"#utility.yul\":28596:28600   */\n      0x00\n        /* \"#utility.yul\":28634:28636   */\n      0x20\n        /* \"#utility.yul\":28623:28632   */\n      dup3\n        /* \"#utility.yul\":28619:28637   */\n      add\n        /* \"#utility.yul\":28611:28637   */\n      swap1\n      pop\n        /* \"#utility.yul\":28683:28692   */\n      dup2\n        /* \"#utility.yul\":28677:28681   */\n      dup2\n        /* \"#utility.yul\":28673:28693   */\n      sub\n        /* \"#utility.yul\":28669:28670   */\n      0x00\n        /* \"#utility.yul\":28658:28667   */\n      dup4\n        /* \"#utility.yul\":28654:28671   */\n      add\n        /* \"#utility.yul\":28647:28694   */\n      mstore\n        /* \"#utility.yul\":28711:28842   */\n      tag_544\n        /* \"#utility.yul\":28837:28841   */\n      dup2\n        /* \"#utility.yul\":28711:28842   */\n      tag_284\n      jump\t// in\n    tag_544:\n        /* \"#utility.yul\":28703:28842   */\n      swap1\n      pop\n        /* \"#utility.yul\":28430:28849   */\n      swap2\n      swap1\n      pop\n      jump\t// out\n        /* \"#utility.yul\":28855:29388   */\n    tag_178:\n        /* \"#utility.yul\":29024:29028   */\n      0x00\n        /* \"#utility.yul\":29062:29064   */\n      0x60\n        /* \"#utility.yul\":29051:29060   */\n      dup3\n        /* \"#utility.yul\":29047:29065   */\n      add\n        /* \"#utility.yul\":29039:29065   */\n      swap1\n      pop\n        /* \"#utility.yul\":29111:29120   */\n      dup2\n        /* \"#utility.yul\":29105:29109   */\n      dup2\n        /* \"#utility.yul\":29101:29121   */\n      sub\n        /* \"#utility.yul\":29097:29098   */\n      0x00\n        /* \"#utility.yul\":29086:29095   */\n      dup4\n        /* \"#utility.yul\":29082:29099   */\n      add\n        /* \"#utility.yul\":29075:29122   */\n      mstore\n        /* \"#utility.yul\":29139:29217   */\n      tag_546\n        /* \"#utility.yul\":29212:29216   */\n      dup2\n        /* \"#utility.yul\":29203:29209   */\n      dup7\n        /* \"#utility.yul\":29139:29217   */\n      tag_229\n      jump\t// in\n    tag_546:\n        /* \"#utility.yul\":29131:29217   */\n      swap1\n      pop\n        /* \"#utility.yul\":29227:29299   */\n      tag_547\n        /* \"#utility.yul\":29295:29297   */\n      0x20\n        /* \"#utility.yul\":29284:29293   */\n      dup4\n        /* \"#utility.yul\":29280:29298   */\n      add\n        /* \"#utility.yul\":29271:29277   */\n      dup6\n        /* \"#utility.yul\":29227:29299   */\n      tag_222\n      jump\t// in\n    tag_547:\n        /* \"#utility.yul\":29309:29381   */\n      tag_548\n        /* \"#utility.yul\":29377:29379   */\n      0x40\n        /* \"#utility.yul\":29366:29375   */\n      dup4\n        /* \"#utility.yul\":29362:29380   */\n      add\n        /* \"#utility.yul\":29353:29359   */\n      dup5\n        /* \"#utility.yul\":29309:29381   */\n      tag_222\n      jump\t// in\n    tag_548:\n        /* \"#utility.yul\":28855:29388   */\n      swap5\n      swap4\n      pop\n      pop\n      pop\n      pop\n      jump\t// out\n        /* \"#utility.yul\":29394:29565   */\n    tag_285:\n        /* \"#utility.yul\":29534:29557   */\n      0x53656e64657220646f6573206e6f742065786973740000000000000000000000\n        /* \"#utility.yul\":29530:29531   */\n      0x00\n        /* \"#utility.yul\":29522:29528   */\n      dup3\n        /* \"#utility.yul\":29518:29532   */\n      add\n        /* \"#utility.yul\":29511:29558   */\n      mstore\n        /* \"#utility.yul\":29394:29565   */\n      pop\n      jump\t// out\n        /* \"#utility.yul\":29571:29937   */\n    tag_286:\n        /* \"#utility.yul\":29713:29716   */\n      0x00\n        /* \"#utility.yul\":29734:29801   */\n      tag_551\n        /* \"#utility.yul\":29798:29800   */\n      0x15\n        /* \"#utility.yul\":29793:29796   */\n      dup4\n        /* \"#utility.yul\":29734:29801   */\n      tag_226\n      jump\t// in\n    tag_551:\n        /* \"#utility.yul\":29727:29801   */\n      swap2\n      pop\n        /* \"#utility.yul\":29810:29903   */\n      tag_552\n        /* \"#utility.yul\":29899:29902   */\n      dup3\n        /* \"#utility.yul\":29810:29903   */\n      tag_285\n      jump\t// in\n    tag_552:\n        /* \"#utility.yul\":29928:29930   */\n      0x20\n        /* \"#utility.yul\":29923:29926   */\n      dup3\n        /* \"#utility.yul\":29919:29931   */\n      add\n        /* \"#utility.yul\":29912:29931   */\n      swap1\n      pop\n        /* \"#utility.yul\":29571:29937   */\n      swap2\n      swap1\n      pop\n      jump\t// out\n        /* \"#utility.yul\":29943:30362   */\n    tag_183:\n        /* \"#utility.yul\":30109:30113   */\n      0x00\n        /* \"#utility.yul\":30147:30149   */\n      0x20\n        /* \"#utility.yul\":30136:30145   */\n      dup3\n        /* \"#utility.yul\":30132:30150   */\n      add\n        /* \"#utility.yul\":30124:30150   */\n      swap1\n      pop\n        /* \"#utility.yul\":30196:30205   */\n      dup2\n        /* \"#utility.yul\":30190:30194   */\n      dup2\n        /* \"#utility.yul\":30186:30206   */\n      sub\n        /* \"#utility.yul\":30182:30183   */\n      0x00\n        /* \"#utility.yul\":30171:30180   */\n      dup4\n        /* \"#utility.yul\":30167:30184   */\n      add\n        /* \"#utility.yul\":30160:30207   */\n      mstore\n        /* \"#utility.yul\":30224:30355   */\n      tag_554\n        /* \"#utility.yul\":30350:30354   */\n      dup2\n        /* \"#utility.yul\":30224:30355   */\n      tag_286\n      jump\t// in\n    tag_554:\n        /* \"#utility.yul\":30216:30355   */\n      swap1\n      pop\n        /* \"#utility.yul\":29943:30362   */\n      swap2\n      swap1\n      pop\n      jump\t// out\n        /* \"#utility.yul\":30368:30546   */\n    tag_287:\n        /* \"#utility.yul\":30508:30538   */\n      0x546869732070617469656e7420616c7265616479206578697374732e00000000\n        /* \"#utility.yul\":30504:30505   */\n      0x00\n        /* \"#utility.yul\":30496:30502   */\n      dup3\n        /* \"#utility.yul\":30492:30506   */\n      add\n        /* \"#utility.yul\":30485:30539   */\n      mstore\n        /* \"#utility.yul\":30368:30546   */\n      pop\n      jump\t// out\n        /* \"#utility.yul\":30552:30918   */\n    tag_288:\n        /* \"#utility.yul\":30694:30697   */\n      0x00\n        /* \"#utility.yul\":30715:30782   */\n      tag_557\n        /* \"#utility.yul\":30779:30781   */\n      0x1c\n        /* \"#utility.yul\":30774:30777   */\n      dup4\n        /* \"#utility.yul\":30715:30782   */\n      tag_226\n      jump\t// in\n    tag_557:\n        /* \"#utility.yul\":30708:30782   */\n      swap2\n      pop\n        /* \"#utility.yul\":30791:30884   */\n      tag_558\n        /* \"#utility.yul\":30880:30883   */\n      dup3\n        /* \"#utility.yul\":30791:30884   */\n      tag_287\n      jump\t// in\n    tag_558:\n        /* \"#utility.yul\":30909:30911   */\n      0x20\n        /* \"#utility.yul\":30904:30907   */\n      dup3\n        /* \"#utility.yul\":30900:30912   */\n      add\n        /* \"#utility.yul\":30893:30912   */\n      swap1\n      pop\n        /* \"#utility.yul\":30552:30918   */\n      swap2\n      swap1\n      pop\n      jump\t// out\n        /* \"#utility.yul\":30924:31343   */\n    tag_207:\n        /* \"#utility.yul\":31090:31094   */\n      0x00\n        /* \"#utility.yul\":31128:31130   */\n      0x20\n        /* \"#utility.yul\":31117:31126   */\n      dup3\n        /* \"#utility.yul\":31113:31131   */\n      add\n        /* \"#utility.yul\":31105:31131   */\n      swap1\n      pop\n        /* \"#utility.yul\":31177:31186   */\n      dup2\n        /* \"#utility.yul\":31171:31175   */\n      dup2\n        /* \"#utility.yul\":31167:31187   */\n      sub\n        /* \"#utility.yul\":31163:31164   */\n      0x00\n        /* \"#utility.yul\":31152:31161   */\n      dup4\n        /* \"#utility.yul\":31148:31165   */\n      add\n        /* \"#utility.yul\":31141:31188   */\n      mstore\n        /* \"#utility.yul\":31205:31336   */\n      tag_560\n        /* \"#utility.yul\":31331:31335   */\n      dup2\n        /* \"#utility.yul\":31205:31336   */\n      tag_288\n      jump\t// in\n    tag_560:\n        /* \"#utility.yul\":31197:31336   */\n      swap1\n      pop\n        /* \"#utility.yul\":30924:31343   */\n      swap2\n      swap1\n      pop\n      jump\t// out\n\n    auxdata: 0xa26469706673582212204cee222e9f44c09341deafed2fb25d9bc5005d1cc958d68fab2bbccfe96f593864736f6c63430008120033\n}\n",
				"bytecode": {
					"linkReferences": {},
					"object": "608060405234801561001057600080fd5b506131bb806100206000396000f3fe608060405234801561001057600080fd5b50600436106100cf5760003560e01c806348e818521161008c578063a0076e8411610066578063a0076e841461022a578063a9583c221461025a578063db66c0601461028b578063f093cf80146102a7576100cf565b806348e81852146101ae5780637bc769ed146101de578063819745531461020e576100cf565b80630869cfbc146100d45780630be617001461010b57806326b5440a1461012757806327bae60a146101435780633a88162e14610174578063457bcea914610192575b600080fd5b6100ee60048036038101906100e99190612317565b6102d8565b6040516101029897969594939291906123fc565b60405180910390f35b610125600480360381019061012091906125cb565b610560565b005b610141600480360381019061013c9190612614565b61073b565b005b61015d60048036038101906101589190612317565b610917565b60405161016b929190612670565b60405180910390f35b61017c6109e3565b60405161018991906126a0565b60405180910390f35b6101ac60048036038101906101a79190612614565b610bc4565b005b6101c860048036038101906101c39190612317565b610e70565b6040516101d59190612985565b60405180910390f35b6101f860048036038101906101f39190612317565b611453565b60405161020591906129c2565b60405180910390f35b61022860048036038101906102239190612a09565b6115bc565b005b610244600480360381019061023f9190612317565b61198b565b6040516102519190612b38565b60405180910390f35b610274600480360381019061026f9190612317565b611e02565b604051610282929190612670565b60405180910390f35b6102a560048036038101906102a09190612614565b611ece565b005b6102c160048036038101906102bc9190612317565b612177565b6040516102cf929190612670565b60405180910390f35b60006020528060005260406000206000915090508060000160009054906101000a900473ffffffffffffffffffffffffffffffffffffffff169080600101549080600201805461032790612b89565b80601f016020809104026020016040519081016040528092919081815260200182805461035390612b89565b80156103a05780601f10610375576101008083540402835291602001916103a0565b820191906000526020600020905b81548152906001019060200180831161038357829003601f168201915b5050505050908060030180546103b590612b89565b80601f01602080910402602001604051908101604052809291908181526020018280546103e190612b89565b801561042e5780601f106104035761010080835404028352916020019161042e565b820191906000526020600020905b81548152906001019060200180831161041157829003601f168201915b50505050509080600401805461044390612b89565b80601f016020809104026020016040519081016040528092919081815260200182805461046f90612b89565b80156104bc5780601f10610491576101008083540402835291602001916104bc565b820191906000526020600020905b81548152906001019060200180831161049f57829003601f168201915b5050505050908060050180546104d190612b89565b80601f01602080910402602001604051908101604052809291908181526020018280546104fd90612b89565b801561054a5780601f1061051f5761010080835404028352916020019161054a565b820191906000526020600020905b81548152906001019060200180831161052d57829003601f168201915b5050505050908060060154908060070154905088565b3373ffffffffffffffffffffffffffffffffffffffff16600160003373ffffffffffffffffffffffffffffffffffffffff1673ffffffffffffffffffffffffffffffffffffffff16815260200190815260200160002060000160009054906101000a900473ffffffffffffffffffffffffffffffffffffffff1673ffffffffffffffffffffffffffffffffffffffff1603610630576040517f08c379a000000000000000000000000000000000000000000000000000000000815260040161062790612c06565b60405180910390fd5b33600160003373ffffffffffffffffffffffffffffffffffffffff1673ffffffffffffffffffffffffffffffffffffffff16815260200190815260200160002060000160006101000a81548173ffffffffffffffffffffffffffffffffffffffff021916908373ffffffffffffffffffffffffffffffffffffffff16021790555080600160003373ffffffffffffffffffffffffffffffffffffffff1673ffffffffffffffffffffffffffffffffffffffff16815260200190815260200160002060010190816107009190612dd2565b507f69908b2e63170aa89ef89719bbe3b4c92cccc38653968ab25f4464eff7c28ac8336040516107309190612ea4565b60405180910390a150565b8173ffffffffffffffffffffffffffffffffffffffff16600360008473ffffffffffffffffffffffffffffffffffffffff1673ffffffffffffffffffffffffffffffffffffffff16815260200190815260200160002060000160009054906101000a900473ffffffffffffffffffffffffffffffffffffffff1673ffffffffffffffffffffffffffffffffffffffff160361080b576040517f08c379a000000000000000000000000000000000000000000000000000000000815260040161080290612f0b565b60405180910390fd5b81600360008473ffffffffffffffffffffffffffffffffffffffff1673ffffffffffffffffffffffffffffffffffffffff16815260200190815260200160002060000160006101000a81548173ffffffffffffffffffffffffffffffffffffffff021916908373ffffffffffffffffffffffffffffffffffffffff16021790555080600360008473ffffffffffffffffffffffffffffffffffffffff1673ffffffffffffffffffffffffffffffffffffffff16815260200190815260200160002060010190816108db9190612dd2565b507f0d017ca7e087763e37d963098c041704b8f461afbeb90695705d44a74f6639cb8260405161090b9190612ea4565b60405180910390a15050565b60036020528060005260406000206000915090508060000160009054906101000a900473ffffffffffffffffffffffffffffffffffffffff169080600101805461096090612b89565b80601f016020809104026020016040519081016040528092919081815260200182805461098c90612b89565b80156109d95780601f106109ae576101008083540402835291602001916109d9565b820191906000526020600020905b8154815290600101906020018083116109bc57829003601f168201915b5050505050905082565b60603373ffffffffffffffffffffffffffffffffffffffff16600160003373ffffffffffffffffffffffffffffffffffffffff1673ffffffffffffffffffffffffffffffffffffffff16815260200190815260200160002060000160009054906101000a900473ffffffffffffffffffffffffffffffffffffffff1673ffffffffffffffffffffffffffffffffffffffff1603610ab7576040518060400160405280600681526020017f646f63746f7200000000000000000000000000000000000000000000000000008152509050610bc1565b3373ffffffffffffffffffffffffffffffffffffffff166000803373ffffffffffffffffffffffffffffffffffffffff1673ffffffffffffffffffffffffffffffffffffffff16815260200190815260200160002060000160009054906101000a900473ffffffffffffffffffffffffffffffffffffffff1673ffffffffffffffffffffffffffffffffffffffff1603610b88576040518060400160405280600781526020017f70617469656e74000000000000000000000000000000000000000000000000008152509050610bc1565b6040518060400160405280600781526020017f756e6b6e6f776e0000000000000000000000000000000000000000000000000081525090505b90565b3373ffffffffffffffffffffffffffffffffffffffff16600160003373ffffffffffffffffffffffffffffffffffffffff1673ffffffffffffffffffffffffffffffffffffffff16815260200190815260200160002060000160009054906101000a900473ffffffffffffffffffffffffffffffffffffffff1673ffffffffffffffffffffffffffffffffffffffff1614610c94576040517f08c379a0000000000000000000000000000000000000000000000000000000008152600401610c8b90612f77565b60405180910390fd5b8173ffffffffffffffffffffffffffffffffffffffff16600260008473ffffffffffffffffffffffffffffffffffffffff1673ffffffffffffffffffffffffffffffffffffffff16815260200190815260200160002060000160009054906101000a900473ffffffffffffffffffffffffffffffffffffffff1673ffffffffffffffffffffffffffffffffffffffff1603610d64576040517f08c379a0000000000000000000000000000000000000000000000000000000008152600401610d5b90612fe3565b60405180910390fd5b81600260008473ffffffffffffffffffffffffffffffffffffffff1673ffffffffffffffffffffffffffffffffffffffff16815260200190815260200160002060000160006101000a81548173ffffffffffffffffffffffffffffffffffffffff021916908373ffffffffffffffffffffffffffffffffffffffff16021790555080600260008473ffffffffffffffffffffffffffffffffffffffff1673ffffffffffffffffffffffffffffffffffffffff1681526020019081526020016000206001019081610e349190612dd2565b507f98b422b4248851ae9e727f5fd491b255462f5872bd0493c1ddf7308ccedfa1a282604051610e649190612ea4565b60405180910390a15050565b610e78612243565b3373ffffffffffffffffffffffffffffffffffffffff16600160003373ffffffffffffffffffffffffffffffffffffffff1673ffffffffffffffffffffffffffffffffffffffff16815260200190815260200160002060000160009054906101000a900473ffffffffffffffffffffffffffffffffffffffff1673ffffffffffffffffffffffffffffffffffffffff1614610f48576040517f08c379a0000000000000000000000000000000000000000000000000000000008152600401610f3f90612f77565b60405180910390fd5b6000808373ffffffffffffffffffffffffffffffffffffffff1673ffffffffffffffffffffffffffffffffffffffff168152602001908152602001600020604051806101200160405290816000820160009054906101000a900473ffffffffffffffffffffffffffffffffffffffff1673ffffffffffffffffffffffffffffffffffffffff1673ffffffffffffffffffffffffffffffffffffffff1681526020016001820154815260200160028201805461100290612b89565b80601f016020809104026020016040519081016040528092919081815260200182805461102e90612b89565b801561107b5780601f106110505761010080835404028352916020019161107b565b820191906000526020600020905b81548152906001019060200180831161105e57829003601f168201915b5050505050815260200160038201805461109490612b89565b80601f01602080910402602001604051908101604052809291908181526020018280546110c090612b89565b801561110d5780601f106110e25761010080835404028352916020019161110d565b820191906000526020600020905b8154815290600101906020018083116110f057829003601f168201915b5050505050815260200160048201805461112690612b89565b80601f016020809104026020016040519081016040528092919081815260200182805461115290612b89565b801561119f5780601f106111745761010080835404028352916020019161119f565b820191906000526020600020905b81548152906001019060200180831161118257829003601f168201915b505050505081526020016005820180546111b890612b89565b80601f01602080910402602001604051908101604052809291908181526020018280546111e490612b89565b80156112315780601f1061120657610100808354040283529160200191611231565b820191906000526020600020905b81548152906001019060200180831161121457829003601f168201915b50505050508152602001600682015481526020016007820154815260200160088201805480602002602001604051908101604052809291908181526020016000905b8282101561144457838290600052602060002090600402016040518060e00160405290816000820180546112a690612b89565b80601f01602080910402602001604051908101604052809291908181526020018280546112d290612b89565b801561131f5780601f106112f45761010080835404028352916020019161131f565b820191906000526020600020905b81548152906001019060200180831161130257829003601f168201915b505050505081526020016001820160009054906101000a900473ffffffffffffffffffffffffffffffffffffffff1673ffffffffffffffffffffffffffffffffffffffff1673ffffffffffffffffffffffffffffffffffffffff1681526020016002820160009054906101000a900473ffffffffffffffffffffffffffffffffffffffff1673ffffffffffffffffffffffffffffffffffffffff1673ffffffffffffffffffffffffffffffffffffffff1681526020016002820160149054906101000a900460ff1660ff1660ff1681526020016002820160159054906101000a900460ff1660ff1660ff1681526020016002820160169054906101000a900460ff1660ff1660ff16815260200160038201548152505081526020019060010190611273565b50505050815250509050919050565b60003373ffffffffffffffffffffffffffffffffffffffff16600160003373ffffffffffffffffffffffffffffffffffffffff1673ffffffffffffffffffffffffffffffffffffffff16815260200190815260200160002060000160009054906101000a900473ffffffffffffffffffffffffffffffffffffffff1673ffffffffffffffffffffffffffffffffffffffff1614611525576040517f08c379a000000000000000000000000000000000000000000000000000000000815260040161151c90612f77565b60405180910390fd5b8173ffffffffffffffffffffffffffffffffffffffff166000808473ffffffffffffffffffffffffffffffffffffffff1673ffffffffffffffffffffffffffffffffffffffff16815260200190815260200160002060000160009054906101000a900473ffffffffffffffffffffffffffffffffffffffff1673ffffffffffffffffffffffffffffffffffffffff16149050919050565b3373ffffffffffffffffffffffffffffffffffffffff16600160003373ffffffffffffffffffffffffffffffffffffffff1673ffffffffffffffffffffffffffffffffffffffff16815260200190815260200160002060000160009054906101000a900473ffffffffffffffffffffffffffffffffffffffff1673ffffffffffffffffffffffffffffffffffffffff161461168c576040517f08c379a000000000000000000000000000000000000000000000000000000000815260040161168390612f77565b60405180910390fd5b848073ffffffffffffffffffffffffffffffffffffffff166000808373ffffffffffffffffffffffffffffffffffffffff1673ffffffffffffffffffffffffffffffffffffffff16815260200190815260200160002060000160009054906101000a900473ffffffffffffffffffffffffffffffffffffffff1673ffffffffffffffffffffffffffffffffffffffff161461175c576040517f08c379a00000000000000000000000000000000000000000000000000000000081526004016117539061304f565b60405180910390fd5b60006040518060e001604052808981526020018873ffffffffffffffffffffffffffffffffffffffff1681526020018773ffffffffffffffffffffffffffffffffffffffff1681526020018660ff1681526020018460ff1681526020018560ff1681526020014281525090506000808873ffffffffffffffffffffffffffffffffffffffff1673ffffffffffffffffffffffffffffffffffffffff16815260200190815260200160002060080181908060018154018082558091505060019003906000526020600020906004020160009091909190915060008201518160000190816118489190612dd2565b5060208201518160010160006101000a81548173ffffffffffffffffffffffffffffffffffffffff021916908373ffffffffffffffffffffffffffffffffffffffff16021790555060408201518160020160006101000a81548173ffffffffffffffffffffffffffffffffffffffff021916908373ffffffffffffffffffffffffffffffffffffffff16021790555060608201518160020160146101000a81548160ff021916908360ff16021790555060808201518160020160156101000a81548160ff021916908360ff16021790555060a08201518160020160166101000a81548160ff021916908360ff16021790555060c0820151816003015550507f79439a93ba0b8067e556b3942a78ac58d991c58e2e23041c4e7aa1c446fc11888888886040516119799392919061306f565b60405180910390a15050505050505050565b60603373ffffffffffffffffffffffffffffffffffffffff16600160003373ffffffffffffffffffffffffffffffffffffffff1673ffffffffffffffffffffffffffffffffffffffff16815260200190815260200160002060000160009054906101000a900473ffffffffffffffffffffffffffffffffffffffff1673ffffffffffffffffffffffffffffffffffffffff161480611ab557503373ffffffffffffffffffffffffffffffffffffffff166000803373ffffffffffffffffffffffffffffffffffffffff1673ffffffffffffffffffffffffffffffffffffffff16815260200190815260200160002060000160009054906101000a900473ffffffffffffffffffffffffffffffffffffffff1673ffffffffffffffffffffffffffffffffffffffff16145b611af4576040517f08c379a0000000000000000000000000000000000000000000000000000000008152600401611aeb906130f9565b60405180910390fd5b818073ffffffffffffffffffffffffffffffffffffffff166000808373ffffffffffffffffffffffffffffffffffffffff1673ffffffffffffffffffffffffffffffffffffffff16815260200190815260200160002060000160009054906101000a900473ffffffffffffffffffffffffffffffffffffffff1673ffffffffffffffffffffffffffffffffffffffff1614611bc4576040517f08c379a0000000000000000000000000000000000000000000000000000000008152600401611bbb9061304f565b60405180910390fd5b6000808473ffffffffffffffffffffffffffffffffffffffff1673ffffffffffffffffffffffffffffffffffffffff168152602001908152602001600020600801805480602002602001604051908101604052809291908181526020016000905b82821015611df657838290600052602060002090600402016040518060e0016040529081600082018054611c5890612b89565b80601f0160208091040260200160405190810160405280929190818152602001828054611c8490612b89565b8015611cd15780601f10611ca657610100808354040283529160200191611cd1565b820191906000526020600020905b815481529060010190602001808311611cb457829003601f168201915b505050505081526020016001820160009054906101000a900473ffffffffffffffffffffffffffffffffffffffff1673ffffffffffffffffffffffffffffffffffffffff1673ffffffffffffffffffffffffffffffffffffffff1681526020016002820160009054906101000a900473ffffffffffffffffffffffffffffffffffffffff1673ffffffffffffffffffffffffffffffffffffffff1673ffffffffffffffffffffffffffffffffffffffff1681526020016002820160149054906101000a900460ff1660ff1660ff1681526020016002820160159054906101000a900460ff1660ff1660ff1681526020016002820160169054906101000a900460ff1660ff1660ff16815260200160038201548152505081526020019060010190611c25565b50505050915050919050565b60016020528060005260406000206000915090508060000160009054906101000a900473ffffffffffffffffffffffffffffffffffffffff1690806001018054611e4b90612b89565b80601f0160208091040260200160405190810160405280929190818152602001828054611e7790612b89565b8015611ec45780601f10611e9957610100808354040283529160200191611ec4565b820191906000526020600020905b815481529060010190602001808311611ea757829003601f168201915b5050505050905082565b3373ffffffffffffffffffffffffffffffffffffffff16600160003373ffffffffffffffffffffffffffffffffffffffff1673ffffffffffffffffffffffffffffffffffffffff16815260200190815260200160002060000160009054906101000a900473ffffffffffffffffffffffffffffffffffffffff1673ffffffffffffffffffffffffffffffffffffffff1614611f9e576040517f08c379a0000000000000000000000000000000000000000000000000000000008152600401611f9590612f77565b60405180910390fd5b8173ffffffffffffffffffffffffffffffffffffffff166000808473ffffffffffffffffffffffffffffffffffffffff1673ffffffffffffffffffffffffffffffffffffffff16815260200190815260200160002060000160009054906101000a900473ffffffffffffffffffffffffffffffffffffffff1673ffffffffffffffffffffffffffffffffffffffff160361206d576040517f08c379a000000000000000000000000000000000000000000000000000000000815260040161206490613165565b60405180910390fd5b816000808473ffffffffffffffffffffffffffffffffffffffff1673ffffffffffffffffffffffffffffffffffffffff16815260200190815260200160002060000160006101000a81548173ffffffffffffffffffffffffffffffffffffffff021916908373ffffffffffffffffffffffffffffffffffffffff160217905550806000808473ffffffffffffffffffffffffffffffffffffffff1673ffffffffffffffffffffffffffffffffffffffff168152602001908152602001600020600201908161213b9190612dd2565b507fa58cff07db0adda3ab7a40bd2f18ab57210bf38391a52ffd2e8eee6b8bdec71a8260405161216b9190612ea4565b60405180910390a15050565b60026020528060005260406000206000915090508060000160009054906101000a900473ffffffffffffffffffffffffffffffffffffffff16908060010180546121c090612b89565b80601f01602080910402602001604051908101604052809291908181526020018280546121ec90612b89565b80156122395780601f1061220e57610100808354040283529160200191612239565b820191906000526020600020905b81548152906001019060200180831161221c57829003601f168201915b5050505050905082565b604051806101200160405280600073ffffffffffffffffffffffffffffffffffffffff16815260200160008152602001606081526020016060815260200160608152602001606081526020016000815260200160008152602001606081525090565b6000604051905090565b600080fd5b600080fd5b600073ffffffffffffffffffffffffffffffffffffffff82169050919050565b60006122e4826122b9565b9050919050565b6122f4816122d9565b81146122ff57600080fd5b50565b600081359050612311816122eb565b92915050565b60006020828403121561232d5761232c6122af565b5b600061233b84828501612302565b91505092915050565b61234d816122d9565b82525050565b6000819050919050565b61236681612353565b82525050565b600081519050919050565b600082825260208201905092915050565b60005b838110156123a657808201518184015260208101905061238b565b60008484015250505050565b6000601f19601f8301169050919050565b60006123ce8261236c565b6123d88185612377565b93506123e8818560208601612388565b6123f1816123b2565b840191505092915050565b600061010082019050612412600083018b612344565b61241f602083018a61235d565b818103604083015261243181896123c3565b9050818103606083015261244581886123c3565b9050818103608083015261245981876123c3565b905081810360a083015261246d81866123c3565b905061247c60c083018561235d565b61248960e083018461235d565b9998505050505050505050565b600080fd5b600080fd5b7f4e487b7100000000000000000000000000000000000000000000000000000000600052604160045260246000fd5b6124d8826123b2565b810181811067ffffffffffffffff821117156124f7576124f66124a0565b5b80604052505050565b600061250a6122a5565b905061251682826124cf565b919050565b600067ffffffffffffffff821115612536576125356124a0565b5b61253f826123b2565b9050602081019050919050565b82818337600083830152505050565b600061256e6125698461251b565b612500565b90508281526020810184848401111561258a5761258961249b565b5b61259584828561254c565b509392505050565b600082601f8301126125b2576125b1612496565b5b81356125c284826020860161255b565b91505092915050565b6000602082840312156125e1576125e06122af565b5b600082013567ffffffffffffffff8111156125ff576125fe6122b4565b5b61260b8482850161259d565b91505092915050565b6000806040838503121561262b5761262a6122af565b5b600061263985828601612302565b925050602083013567ffffffffffffffff81111561265a576126596122b4565b5b6126668582860161259d565b9150509250929050565b60006040820190506126856000830185612344565b818103602083015261269781846123c3565b90509392505050565b600060208201905081810360008301526126ba81846123c3565b905092915050565b6126cb816122d9565b82525050565b6126da81612353565b82525050565b600082825260208201905092915050565b60006126fc8261236c565b61270681856126e0565b9350612716818560208601612388565b61271f816123b2565b840191505092915050565b600081519050919050565b600082825260208201905092915050565b6000819050602082019050919050565b600060ff82169050919050565b61276c81612756565b82525050565b600060e083016000830151848203600086015261278f82826126f1565b91505060208301516127a460208601826126c2565b5060408301516127b760408601826126c2565b5060608301516127ca6060860182612763565b5060808301516127dd6080860182612763565b5060a08301516127f060a0860182612763565b5060c083015161280360c08601826126d1565b508091505092915050565b600061281a8383612772565b905092915050565b6000602082019050919050565b600061283a8261272a565b6128448185612735565b93508360208202850161285685612746565b8060005b858110156128925784840389528151612873858261280e565b945061287e83612822565b925060208a0199505060018101905061285a565b50829750879550505050505092915050565b6000610120830160008301516128bd60008601826126c2565b5060208301516128d060208601826126d1565b50604083015184820360408601526128e882826126f1565b9150506060830151848203606086015261290282826126f1565b9150506080830151848203608086015261291c82826126f1565b91505060a083015184820360a086015261293682826126f1565b91505060c083015161294b60c08601826126d1565b5060e083015161295e60e08601826126d1565b50610100830151848203610100860152612978828261282f565b9150508091505092915050565b6000602082019050818103600083015261299f81846128a4565b905092915050565b60008115159050919050565b6129bc816129a7565b82525050565b60006020820190506129d760008301846129b3565b92915050565b6129e681612756565b81146129f157600080fd5b50565b600081359050612a03816129dd565b92915050565b60008060008060008060c08789031215612a2657612a256122af565b5b600087013567ffffffffffffffff811115612a4457612a436122b4565b5b612a5089828a0161259d565b9650506020612a6189828a01612302565b9550506040612a7289828a01612302565b9450506060612a8389828a016129f4565b9350506080612a9489828a016129f4565b92505060a0612aa589828a016129f4565b9150509295509295509295565b600082825260208201905092915050565b6000612ace8261272a565b612ad88185612ab2565b935083602082028501612aea85612746565b8060005b85811015612b265784840389528151612b07858261280e565b9450612b1283612822565b925060208a01995050600181019050612aee565b50829750879550505050505092915050565b60006020820190508181036000830152612b528184612ac3565b905092915050565b7f4e487b7100000000000000000000000000000000000000000000000000000000600052602260045260246000fd5b60006002820490506001821680612ba157607f821691505b602082108103612bb457612bb3612b5a565b5b50919050565b7f5468697320646f63746f7220616c7265616479206578697374732e0000000000600082015250565b6000612bf0601b83612377565b9150612bfb82612bba565b602082019050919050565b60006020820190508181036000830152612c1f81612be3565b9050919050565b60008190508160005260206000209050919050565b60006020601f8301049050919050565b600082821b905092915050565b600060088302612c887fffffffffffffffffffffffffffffffffffffffffffffffffffffffffffffffff82612c4b565b612c928683612c4b565b95508019841693508086168417925050509392505050565b6000819050919050565b6000612ccf612cca612cc584612353565b612caa565b612353565b9050919050565b6000819050919050565b612ce983612cb4565b612cfd612cf582612cd6565b848454612c58565b825550505050565b600090565b612d12612d05565b612d1d818484612ce0565b505050565b5b81811015612d4157612d36600082612d0a565b600181019050612d23565b5050565b601f821115612d8657612d5781612c26565b612d6084612c3b565b81016020851015612d6f578190505b612d83612d7b85612c3b565b830182612d22565b50505b505050565b600082821c905092915050565b6000612da960001984600802612d8b565b1980831691505092915050565b6000612dc28383612d98565b9150826002028217905092915050565b612ddb8261236c565b67ffffffffffffffff811115612df457612df36124a0565b5b612dfe8254612b89565b612e09828285612d45565b600060209050601f831160018114612e3c5760008415612e2a578287015190505b612e348582612db6565b865550612e9c565b601f198416612e4a86612c26565b60005b82811015612e7257848901518255600182019150602085019450602081019050612e4d565b86831015612e8f5784890151612e8b601f891682612d98565b8355505b6001600288020188555050505b505050505050565b6000602082019050612eb96000830184612344565b92915050565b7f5468697320696e737572616e636520616c7265616479206578697374732e0000600082015250565b6000612ef5601e83612377565b9150612f0082612ebf565b602082019050919050565b60006020820190508181036000830152612f2481612ee8565b9050919050565b7f53656e646572206973206e6f74206120646f63746f7200000000000000000000600082015250565b6000612f61601683612377565b9150612f6c82612f2b565b602082019050919050565b60006020820190508181036000830152612f9081612f54565b9050919050565b7f5468697320686f73706974616c20616c7265616479206578697374732e000000600082015250565b6000612fcd601d83612377565b9150612fd882612f97565b602082019050919050565b60006020820190508181036000830152612ffc81612fc0565b9050919050565b7f50617469656e7420646f6573206e6f7420657869737400000000000000000000600082015250565b6000613039601683612377565b915061304482613003565b602082019050919050565b600060208201905081810360008301526130688161302c565b9050919050565b6000606082019050818103600083015261308981866123c3565b90506130986020830185612344565b6130a56040830184612344565b949350505050565b7f53656e64657220646f6573206e6f742065786973740000000000000000000000600082015250565b60006130e3601583612377565b91506130ee826130ad565b602082019050919050565b60006020820190508181036000830152613112816130d6565b9050919050565b7f546869732070617469656e7420616c7265616479206578697374732e00000000600082015250565b600061314f601c83612377565b915061315a82613119565b602082019050919050565b6000602082019050818103600083015261317e81613142565b905091905056fea26469706673582212204cee222e9f44c09341deafed2fb25d9bc5005d1cc958d68fab2bbccfe96f593864736f6c63430008120033",
					"opcodes": "PUSH1 0x80 PUSH1 0x40 MSTORE CALLVALUE DUP1 ISZERO PUSH2 0x10 JUMPI PUSH1 0x0 DUP1 REVERT JUMPDEST POP PUSH2 0x31BB DUP1 PUSH2 0x20 PUSH1 0x0 CODECOPY PUSH1 0x0 RETURN INVALID PUSH1 0x80 PUSH1 0x40 MSTORE CALLVALUE DUP1 ISZERO PUSH2 0x10 JUMPI PUSH1 0x0 DUP1 REVERT JUMPDEST POP PUSH1 0x4 CALLDATASIZE LT PUSH2 0xCF JUMPI PUSH1 0x0 CALLDATALOAD PUSH1 0xE0 SHR DUP1 PUSH4 0x48E81852 GT PUSH2 0x8C JUMPI DUP1 PUSH4 0xA0076E84 GT PUSH2 0x66 JUMPI DUP1 PUSH4 0xA0076E84 EQ PUSH2 0x22A JUMPI DUP1 PUSH4 0xA9583C22 EQ PUSH2 0x25A JUMPI DUP1 PUSH4 0xDB66C060 EQ PUSH2 0x28B JUMPI DUP1 PUSH4 0xF093CF80 EQ PUSH2 0x2A7 JUMPI PUSH2 0xCF JUMP JUMPDEST DUP1 PUSH4 0x48E81852 EQ PUSH2 0x1AE JUMPI DUP1 PUSH4 0x7BC769ED EQ PUSH2 0x1DE JUMPI DUP1 PUSH4 0x81974553 EQ PUSH2 0x20E JUMPI PUSH2 0xCF JUMP JUMPDEST DUP1 PUSH4 0x869CFBC EQ PUSH2 0xD4 JUMPI DUP1 PUSH4 0xBE61700 EQ PUSH2 0x10B JUMPI DUP1 PUSH4 0x26B5440A EQ PUSH2 0x127 JUMPI DUP1 PUSH4 0x27BAE60A EQ PUSH2 0x143 JUMPI DUP1 PUSH4 0x3A88162E EQ PUSH2 0x174 JUMPI DUP1 PUSH4 0x457BCEA9 EQ PUSH2 0x192 JUMPI JUMPDEST PUSH1 0x0 DUP1 REVERT JUMPDEST PUSH2 0xEE PUSH1 0x4 DUP1 CALLDATASIZE SUB DUP2 ADD SWAP1 PUSH2 0xE9 SWAP2 SWAP1 PUSH2 0x2317 JUMP JUMPDEST PUSH2 0x2D8 JUMP JUMPDEST PUSH1 0x40 MLOAD PUSH2 0x102 SWAP9 SWAP8 SWAP7 SWAP6 SWAP5 SWAP4 SWAP3 SWAP2 SWAP1 PUSH2 0x23FC JUMP JUMPDEST PUSH1 0x40 MLOAD DUP1 SWAP2 SUB SWAP1 RETURN JUMPDEST PUSH2 0x125 PUSH1 0x4 DUP1 CALLDATASIZE SUB DUP2 ADD SWAP1 PUSH2 0x120 SWAP2 SWAP1 PUSH2 0x25CB JUMP JUMPDEST PUSH2 0x560 JUMP JUMPDEST STOP JUMPDEST PUSH2 0x141 PUSH1 0x4 DUP1 CALLDATASIZE SUB DUP2 ADD SWAP1 PUSH2 0x13C SWAP2 SWAP1 PUSH2 0x2614 JUMP JUMPDEST PUSH2 0x73B JUMP JUMPDEST STOP JUMPDEST PUSH2 0x15D PUSH1 0x4 DUP1 CALLDATASIZE SUB DUP2 ADD SWAP1 PUSH2 0x158 SWAP2 SWAP1 PUSH2 0x2317 JUMP JUMPDEST PUSH2 0x917 JUMP JUMPDEST PUSH1 0x40 MLOAD PUSH2 0x16B SWAP3 SWAP2 SWAP1 PUSH2 0x2670 JUMP JUMPDEST PUSH1 0x40 MLOAD DUP1 SWAP2 SUB SWAP1 RETURN JUMPDEST PUSH2 0x17C PUSH2 0x9E3 JUMP JUMPDEST PUSH1 0x40 MLOAD PUSH2 0x189 SWAP2 SWAP1 PUSH2 0x26A0 JUMP JUMPDEST PUSH1 0x40 MLOAD DUP1 SWAP2 SUB SWAP1 RETURN JUMPDEST PUSH2 0x1AC PUSH1 0x4 DUP1 CALLDATASIZE SUB DUP2 ADD SWAP1 PUSH2 0x1A7 SWAP2 SWAP1 PUSH2 0x2614 JUMP JUMPDEST PUSH2 0xBC4 JUMP JUMPDEST STOP JUMPDEST PUSH2 0x1C8 PUSH1 0x4 DUP1 CALLDATASIZE SUB DUP2 ADD SWAP1 PUSH2 0x1C3 SWAP2 SWAP1 PUSH2 0x2317 JUMP JUMPDEST PUSH2 0xE70 JUMP JUMPDEST PUSH1 0x40 MLOAD PUSH2 0x1D5 SWAP2 SWAP1 PUSH2 0x2985 JUMP JUMPDEST PUSH1 0x40 MLOAD DUP1 SWAP2 SUB SWAP1 RETURN JUMPDEST PUSH2 0x1F8 PUSH1 0x4 DUP1 CALLDATASIZE SUB DUP2 ADD SWAP1 PUSH2 0x1F3 SWAP2 SWAP1 PUSH2 0x2317 JUMP JUMPDEST PUSH2 0x1453 JUMP JUMPDEST PUSH1 0x40 MLOAD PUSH2 0x205 SWAP2 SWAP1 PUSH2 0x29C2 JUMP JUMPDEST PUSH1 0x40 MLOAD DUP1 SWAP2 SUB SWAP1 RETURN JUMPDEST PUSH2 0x228 PUSH1 0x4 DUP1 CALLDATASIZE SUB DUP2 ADD SWAP1 PUSH2 0x223 SWAP2 SWAP1 PUSH2 0x2A09 JUMP JUMPDEST PUSH2 0x15BC JUMP JUMPDEST STOP JUMPDEST PUSH2 0x244 PUSH1 0x4 DUP1 CALLDATASIZE SUB DUP2 ADD SWAP1 PUSH2 0x23F SWAP2 SWAP1 PUSH2 0x2317 JUMP JUMPDEST PUSH2 0x198B JUMP JUMPDEST PUSH1 0x40 MLOAD PUSH2 0x251 SWAP2 SWAP1 PUSH2 0x2B38 JUMP JUMPDEST PUSH1 0x40 MLOAD DUP1 SWAP2 SUB SWAP1 RETURN JUMPDEST PUSH2 0x274 PUSH1 0x4 DUP1 CALLDATASIZE SUB DUP2 ADD SWAP1 PUSH2 0x26F SWAP2 SWAP1 PUSH2 0x2317 JUMP JUMPDEST PUSH2 0x1E02 JUMP JUMPDEST PUSH1 0x40 MLOAD PUSH2 0x282 SWAP3 SWAP2 SWAP1 PUSH2 0x2670 JUMP JUMPDEST PUSH1 0x40 MLOAD DUP1 SWAP2 SUB SWAP1 RETURN JUMPDEST PUSH2 0x2A5 PUSH1 0x4 DUP1 CALLDATASIZE SUB DUP2 ADD SWAP1 PUSH2 0x2A0 SWAP2 SWAP1 PUSH2 0x2614 JUMP JUMPDEST PUSH2 0x1ECE JUMP JUMPDEST STOP JUMPDEST PUSH2 0x2C1 PUSH1 0x4 DUP1 CALLDATASIZE SUB DUP2 ADD SWAP1 PUSH2 0x2BC SWAP2 SWAP1 PUSH2 0x2317 JUMP JUMPDEST PUSH2 0x2177 JUMP JUMPDEST PUSH1 0x40 MLOAD PUSH2 0x2CF SWAP3 SWAP2 SWAP1 PUSH2 0x2670 JUMP JUMPDEST PUSH1 0x40 MLOAD DUP1 SWAP2 SUB SWAP1 RETURN JUMPDEST PUSH1 0x0 PUSH1 0x20 MSTORE DUP1 PUSH1 0x0 MSTORE PUSH1 0x40 PUSH1 0x0 KECCAK256 PUSH1 0x0 SWAP2 POP SWAP1 POP DUP1 PUSH1 0x0 ADD PUSH1 0x0 SWAP1 SLOAD SWAP1 PUSH2 0x100 EXP SWAP1 DIV PUSH20 0xFFFFFFFFFFFFFFFFFFFFFFFFFFFFFFFFFFFFFFFF AND SWAP1 DUP1 PUSH1 0x1 ADD SLOAD SWAP1 DUP1 PUSH1 0x2 ADD DUP1 SLOAD PUSH2 0x327 SWAP1 PUSH2 0x2B89 JUMP JUMPDEST DUP1 PUSH1 0x1F ADD PUSH1 0x20 DUP1 SWAP2 DIV MUL PUSH1 0x20 ADD PUSH1 0x40 MLOAD SWAP1 DUP2 ADD PUSH1 0x40 MSTORE DUP1 SWAP3 SWAP2 SWAP1 DUP2 DUP2 MSTORE PUSH1 0x20 ADD DUP3 DUP1 SLOAD PUSH2 0x353 SWAP1 PUSH2 0x2B89 JUMP JUMPDEST DUP1 ISZERO PUSH2 0x3A0 JUMPI DUP1 PUSH1 0x1F LT PUSH2 0x375 JUMPI PUSH2 0x100 DUP1 DUP4 SLOAD DIV MUL DUP4 MSTORE SWAP2 PUSH1 0x20 ADD SWAP2 PUSH2 0x3A0 JUMP JUMPDEST DUP3 ADD SWAP2 SWAP1 PUSH1 0x0 MSTORE PUSH1 0x20 PUSH1 0x0 KECCAK256 SWAP1 JUMPDEST DUP2 SLOAD DUP2 MSTORE SWAP1 PUSH1 0x1 ADD SWAP1 PUSH1 0x20 ADD DUP1 DUP4 GT PUSH2 0x383 JUMPI DUP3 SWAP1 SUB PUSH1 0x1F AND DUP3 ADD SWAP2 JUMPDEST POP POP POP POP POP SWAP1 DUP1 PUSH1 0x3 ADD DUP1 SLOAD PUSH2 0x3B5 SWAP1 PUSH2 0x2B89 JUMP JUMPDEST DUP1 PUSH1 0x1F ADD PUSH1 0x20 DUP1 SWAP2 DIV MUL PUSH1 0x20 ADD PUSH1 0x40 MLOAD SWAP1 DUP2 ADD PUSH1 0x40 MSTORE DUP1 SWAP3 SWAP2 SWAP1 DUP2 DUP2 MSTORE PUSH1 0x20 ADD DUP3 DUP1 SLOAD PUSH2 0x3E1 SWAP1 PUSH2 0x2B89 JUMP JUMPDEST DUP1 ISZERO PUSH2 0x42E JUMPI DUP1 PUSH1 0x1F LT PUSH2 0x403 JUMPI PUSH2 0x100 DUP1 DUP4 SLOAD DIV MUL DUP4 MSTORE SWAP2 PUSH1 0x20 ADD SWAP2 PUSH2 0x42E JUMP JUMPDEST DUP3 ADD SWAP2 SWAP1 PUSH1 0x0 MSTORE PUSH1 0x20 PUSH1 0x0 KECCAK256 SWAP1 JUMPDEST DUP2 SLOAD DUP2 MSTORE SWAP1 PUSH1 0x1 ADD SWAP1 PUSH1 0x20 ADD DUP1 DUP4 GT PUSH2 0x411 JUMPI DUP3 SWAP1 SUB PUSH1 0x1F AND DUP3 ADD SWAP2 JUMPDEST POP POP POP POP POP SWAP1 DUP1 PUSH1 0x4 ADD DUP1 SLOAD PUSH2 0x443 SWAP1 PUSH2 0x2B89 JUMP JUMPDEST DUP1 PUSH1 0x1F ADD PUSH1 0x20 DUP1 SWAP2 DIV MUL PUSH1 0x20 ADD PUSH1 0x40 MLOAD SWAP1 DUP2 ADD PUSH1 0x40 MSTORE DUP1 SWAP3 SWAP2 SWAP1 DUP2 DUP2 MSTORE PUSH1 0x20 ADD DUP3 DUP1 SLOAD PUSH2 0x46F SWAP1 PUSH2 0x2B89 JUMP JUMPDEST DUP1 ISZERO PUSH2 0x4BC JUMPI DUP1 PUSH1 0x1F LT PUSH2 0x491 JUMPI PUSH2 0x100 DUP1 DUP4 SLOAD DIV MUL DUP4 MSTORE SWAP2 PUSH1 0x20 ADD SWAP2 PUSH2 0x4BC JUMP JUMPDEST DUP3 ADD SWAP2 SWAP1 PUSH1 0x0 MSTORE PUSH1 0x20 PUSH1 0x0 KECCAK256 SWAP1 JUMPDEST DUP2 SLOAD DUP2 MSTORE SWAP1 PUSH1 0x1 ADD SWAP1 PUSH1 0x20 ADD DUP1 DUP4 GT PUSH2 0x49F JUMPI DUP3 SWAP1 SUB PUSH1 0x1F AND DUP3 ADD SWAP2 JUMPDEST POP POP POP POP POP SWAP1 DUP1 PUSH1 0x5 ADD DUP1 SLOAD PUSH2 0x4D1 SWAP1 PUSH2 0x2B89 JUMP JUMPDEST DUP1 PUSH1 0x1F ADD PUSH1 0x20 DUP1 SWAP2 DIV MUL PUSH1 0x20 ADD PUSH1 0x40 MLOAD SWAP1 DUP2 ADD PUSH1 0x40 MSTORE DUP1 SWAP3 SWAP2 SWAP1 DUP2 DUP2 MSTORE PUSH1 0x20 ADD DUP3 DUP1 SLOAD PUSH2 0x4FD SWAP1 PUSH2 0x2B89 JUMP JUMPDEST DUP1 ISZERO PUSH2 0x54A JUMPI DUP1 PUSH1 0x1F LT PUSH2 0x51F JUMPI PUSH2 0x100 DUP1 DUP4 SLOAD DIV MUL DUP4 MSTORE SWAP2 PUSH1 0x20 ADD SWAP2 PUSH2 0x54A JUMP JUMPDEST DUP3 ADD SWAP2 SWAP1 PUSH1 0x0 MSTORE PUSH1 0x20 PUSH1 0x0 KECCAK256 SWAP1 JUMPDEST DUP2 SLOAD DUP2 MSTORE SWAP1 PUSH1 0x1 ADD SWAP1 PUSH1 0x20 ADD DUP1 DUP4 GT PUSH2 0x52D JUMPI DUP3 SWAP1 SUB PUSH1 0x1F AND DUP3 ADD SWAP2 JUMPDEST POP POP POP POP POP SWAP1 DUP1 PUSH1 0x6 ADD SLOAD SWAP1 DUP1 PUSH1 0x7 ADD SLOAD SWAP1 POP DUP9 JUMP JUMPDEST CALLER PUSH20 0xFFFFFFFFFFFFFFFFFFFFFFFFFFFFFFFFFFFFFFFF AND PUSH1 0x1 PUSH1 0x0 CALLER PUSH20 0xFFFFFFFFFFFFFFFFFFFFFFFFFFFFFFFFFFFFFFFF AND PUSH20 0xFFFFFFFFFFFFFFFFFFFFFFFFFFFFFFFFFFFFFFFF AND DUP2 MSTORE PUSH1 0x20 ADD SWAP1 DUP2 MSTORE PUSH1 0x20 ADD PUSH1 0x0 KECCAK256 PUSH1 0x0 ADD PUSH1 0x0 SWAP1 SLOAD SWAP1 PUSH2 0x100 EXP SWAP1 DIV PUSH20 0xFFFFFFFFFFFFFFFFFFFFFFFFFFFFFFFFFFFFFFFF AND PUSH20 0xFFFFFFFFFFFFFFFFFFFFFFFFFFFFFFFFFFFFFFFF AND SUB PUSH2 0x630 JUMPI PUSH1 0x40 MLOAD PUSH32 0x8C379A000000000000000000000000000000000000000000000000000000000 DUP2 MSTORE PUSH1 0x4 ADD PUSH2 0x627 SWAP1 PUSH2 0x2C06 JUMP JUMPDEST PUSH1 0x40 MLOAD DUP1 SWAP2 SUB SWAP1 REVERT JUMPDEST CALLER PUSH1 0x1 PUSH1 0x0 CALLER PUSH20 0xFFFFFFFFFFFFFFFFFFFFFFFFFFFFFFFFFFFFFFFF AND PUSH20 0xFFFFFFFFFFFFFFFFFFFFFFFFFFFFFFFFFFFFFFFF AND DUP2 MSTORE PUSH1 0x20 ADD SWAP1 DUP2 MSTORE PUSH1 0x20 ADD PUSH1 0x0 KECCAK256 PUSH1 0x0 ADD PUSH1 0x0 PUSH2 0x100 EXP DUP2 SLOAD DUP2 PUSH20 0xFFFFFFFFFFFFFFFFFFFFFFFFFFFFFFFFFFFFFFFF MUL NOT AND SWAP1 DUP4 PUSH20 0xFFFFFFFFFFFFFFFFFFFFFFFFFFFFFFFFFFFFFFFF AND MUL OR SWAP1 SSTORE POP DUP1 PUSH1 0x1 PUSH1 0x0 CALLER PUSH20 0xFFFFFFFFFFFFFFFFFFFFFFFFFFFFFFFFFFFFFFFF AND PUSH20 0xFFFFFFFFFFFFFFFFFFFFFFFFFFFFFFFFFFFFFFFF AND DUP2 MSTORE PUSH1 0x20 ADD SWAP1 DUP2 MSTORE PUSH1 0x20 ADD PUSH1 0x0 KECCAK256 PUSH1 0x1 ADD SWAP1 DUP2 PUSH2 0x700 SWAP2 SWAP1 PUSH2 0x2DD2 JUMP JUMPDEST POP PUSH32 0x69908B2E63170AA89EF89719BBE3B4C92CCCC38653968AB25F4464EFF7C28AC8 CALLER PUSH1 0x40 MLOAD PUSH2 0x730 SWAP2 SWAP1 PUSH2 0x2EA4 JUMP JUMPDEST PUSH1 0x40 MLOAD DUP1 SWAP2 SUB SWAP1 LOG1 POP JUMP JUMPDEST DUP2 PUSH20 0xFFFFFFFFFFFFFFFFFFFFFFFFFFFFFFFFFFFFFFFF AND PUSH1 0x3 PUSH1 0x0 DUP5 PUSH20 0xFFFFFFFFFFFFFFFFFFFFFFFFFFFFFFFFFFFFFFFF AND PUSH20 0xFFFFFFFFFFFFFFFFFFFFFFFFFFFFFFFFFFFFFFFF AND DUP2 MSTORE PUSH1 0x20 ADD SWAP1 DUP2 MSTORE PUSH1 0x20 ADD PUSH1 0x0 KECCAK256 PUSH1 0x0 ADD PUSH1 0x0 SWAP1 SLOAD SWAP1 PUSH2 0x100 EXP SWAP1 DIV PUSH20 0xFFFFFFFFFFFFFFFFFFFFFFFFFFFFFFFFFFFFFFFF AND PUSH20 0xFFFFFFFFFFFFFFFFFFFFFFFFFFFFFFFFFFFFFFFF AND SUB PUSH2 0x80B JUMPI PUSH1 0x40 MLOAD PUSH32 0x8C379A000000000000000000000000000000000000000000000000000000000 DUP2 MSTORE PUSH1 0x4 ADD PUSH2 0x802 SWAP1 PUSH2 0x2F0B JUMP JUMPDEST PUSH1 0x40 MLOAD DUP1 SWAP2 SUB SWAP1 REVERT JUMPDEST DUP2 PUSH1 0x3 PUSH1 0x0 DUP5 PUSH20 0xFFFFFFFFFFFFFFFFFFFFFFFFFFFFFFFFFFFFFFFF AND PUSH20 0xFFFFFFFFFFFFFFFFFFFFFFFFFFFFFFFFFFFFFFFF AND DUP2 MSTORE PUSH1 0x20 ADD SWAP1 DUP2 MSTORE PUSH1 0x20 ADD PUSH1 0x0 KECCAK256 PUSH1 0x0 ADD PUSH1 0x0 PUSH2 0x100 EXP DUP2 SLOAD DUP2 PUSH20 0xFFFFFFFFFFFFFFFFFFFFFFFFFFFFFFFFFFFFFFFF MUL NOT AND SWAP1 DUP4 PUSH20 0xFFFFFFFFFFFFFFFFFFFFFFFFFFFFFFFFFFFFFFFF AND MUL OR SWAP1 SSTORE POP DUP1 PUSH1 0x3 PUSH1 0x0 DUP5 PUSH20 0xFFFFFFFFFFFFFFFFFFFFFFFFFFFFFFFFFFFFFFFF AND PUSH20 0xFFFFFFFFFFFFFFFFFFFFFFFFFFFFFFFFFFFFFFFF AND DUP2 MSTORE PUSH1 0x20 ADD SWAP1 DUP2 MSTORE PUSH1 0x20 ADD PUSH1 0x0 KECCAK256 PUSH1 0x1 ADD SWAP1 DUP2 PUSH2 0x8DB SWAP2 SWAP1 PUSH2 0x2DD2 JUMP JUMPDEST POP PUSH32 0xD017CA7E087763E37D963098C041704B8F461AFBEB90695705D44A74F6639CB DUP3 PUSH1 0x40 MLOAD PUSH2 0x90B SWAP2 SWAP1 PUSH2 0x2EA4 JUMP JUMPDEST PUSH1 0x40 MLOAD DUP1 SWAP2 SUB SWAP1 LOG1 POP POP JUMP JUMPDEST PUSH1 0x3 PUSH1 0x20 MSTORE DUP1 PUSH1 0x0 MSTORE PUSH1 0x40 PUSH1 0x0 KECCAK256 PUSH1 0x0 SWAP2 POP SWAP1 POP DUP1 PUSH1 0x0 ADD PUSH1 0x0 SWAP1 SLOAD SWAP1 PUSH2 0x100 EXP SWAP1 DIV PUSH20 0xFFFFFFFFFFFFFFFFFFFFFFFFFFFFFFFFFFFFFFFF AND SWAP1 DUP1 PUSH1 0x1 ADD DUP1 SLOAD PUSH2 0x960 SWAP1 PUSH2 0x2B89 JUMP JUMPDEST DUP1 PUSH1 0x1F ADD PUSH1 0x20 DUP1 SWAP2 DIV MUL PUSH1 0x20 ADD PUSH1 0x40 MLOAD SWAP1 DUP2 ADD PUSH1 0x40 MSTORE DUP1 SWAP3 SWAP2 SWAP1 DUP2 DUP2 MSTORE PUSH1 0x20 ADD DUP3 DUP1 SLOAD PUSH2 0x98C SWAP1 PUSH2 0x2B89 JUMP JUMPDEST DUP1 ISZERO PUSH2 0x9D9 JUMPI DUP1 PUSH1 0x1F LT PUSH2 0x9AE JUMPI PUSH2 0x100 DUP1 DUP4 SLOAD DIV MUL DUP4 MSTORE SWAP2 PUSH1 0x20 ADD SWAP2 PUSH2 0x9D9 JUMP JUMPDEST DUP3 ADD SWAP2 SWAP1 PUSH1 0x0 MSTORE PUSH1 0x20 PUSH1 0x0 KECCAK256 SWAP1 JUMPDEST DUP2 SLOAD DUP2 MSTORE SWAP1 PUSH1 0x1 ADD SWAP1 PUSH1 0x20 ADD DUP1 DUP4 GT PUSH2 0x9BC JUMPI DUP3 SWAP1 SUB PUSH1 0x1F AND DUP3 ADD SWAP2 JUMPDEST POP POP POP POP POP SWAP1 POP DUP3 JUMP JUMPDEST PUSH1 0x60 CALLER PUSH20 0xFFFFFFFFFFFFFFFFFFFFFFFFFFFFFFFFFFFFFFFF AND PUSH1 0x1 PUSH1 0x0 CALLER PUSH20 0xFFFFFFFFFFFFFFFFFFFFFFFFFFFFFFFFFFFFFFFF AND PUSH20 0xFFFFFFFFFFFFFFFFFFFFFFFFFFFFFFFFFFFFFFFF AND DUP2 MSTORE PUSH1 0x20 ADD SWAP1 DUP2 MSTORE PUSH1 0x20 ADD PUSH1 0x0 KECCAK256 PUSH1 0x0 ADD PUSH1 0x0 SWAP1 SLOAD SWAP1 PUSH2 0x100 EXP SWAP1 DIV PUSH20 0xFFFFFFFFFFFFFFFFFFFFFFFFFFFFFFFFFFFFFFFF AND PUSH20 0xFFFFFFFFFFFFFFFFFFFFFFFFFFFFFFFFFFFFFFFF AND SUB PUSH2 0xAB7 JUMPI PUSH1 0x40 MLOAD DUP1 PUSH1 0x40 ADD PUSH1 0x40 MSTORE DUP1 PUSH1 0x6 DUP2 MSTORE PUSH1 0x20 ADD PUSH32 0x646F63746F720000000000000000000000000000000000000000000000000000 DUP2 MSTORE POP SWAP1 POP PUSH2 0xBC1 JUMP JUMPDEST CALLER PUSH20 0xFFFFFFFFFFFFFFFFFFFFFFFFFFFFFFFFFFFFFFFF AND PUSH1 0x0 DUP1 CALLER PUSH20 0xFFFFFFFFFFFFFFFFFFFFFFFFFFFFFFFFFFFFFFFF AND PUSH20 0xFFFFFFFFFFFFFFFFFFFFFFFFFFFFFFFFFFFFFFFF AND DUP2 MSTORE PUSH1 0x20 ADD SWAP1 DUP2 MSTORE PUSH1 0x20 ADD PUSH1 0x0 KECCAK256 PUSH1 0x0 ADD PUSH1 0x0 SWAP1 SLOAD SWAP1 PUSH2 0x100 EXP SWAP1 DIV PUSH20 0xFFFFFFFFFFFFFFFFFFFFFFFFFFFFFFFFFFFFFFFF AND PUSH20 0xFFFFFFFFFFFFFFFFFFFFFFFFFFFFFFFFFFFFFFFF AND SUB PUSH2 0xB88 JUMPI PUSH1 0x40 MLOAD DUP1 PUSH1 0x40 ADD PUSH1 0x40 MSTORE DUP1 PUSH1 0x7 DUP2 MSTORE PUSH1 0x20 ADD PUSH32 0x70617469656E7400000000000000000000000000000000000000000000000000 DUP2 MSTORE POP SWAP1 POP PUSH2 0xBC1 JUMP JUMPDEST PUSH1 0x40 MLOAD DUP1 PUSH1 0x40 ADD PUSH1 0x40 MSTORE DUP1 PUSH1 0x7 DUP2 MSTORE PUSH1 0x20 ADD PUSH32 0x756E6B6E6F776E00000000000000000000000000000000000000000000000000 DUP2 MSTORE POP SWAP1 POP JUMPDEST SWAP1 JUMP JUMPDEST CALLER PUSH20 0xFFFFFFFFFFFFFFFFFFFFFFFFFFFFFFFFFFFFFFFF AND PUSH1 0x1 PUSH1 0x0 CALLER PUSH20 0xFFFFFFFFFFFFFFFFFFFFFFFFFFFFFFFFFFFFFFFF AND PUSH20 0xFFFFFFFFFFFFFFFFFFFFFFFFFFFFFFFFFFFFFFFF AND DUP2 MSTORE PUSH1 0x20 ADD SWAP1 DUP2 MSTORE PUSH1 0x20 ADD PUSH1 0x0 KECCAK256 PUSH1 0x0 ADD PUSH1 0x0 SWAP1 SLOAD SWAP1 PUSH2 0x100 EXP SWAP1 DIV PUSH20 0xFFFFFFFFFFFFFFFFFFFFFFFFFFFFFFFFFFFFFFFF AND PUSH20 0xFFFFFFFFFFFFFFFFFFFFFFFFFFFFFFFFFFFFFFFF AND EQ PUSH2 0xC94 JUMPI PUSH1 0x40 MLOAD PUSH32 0x8C379A000000000000000000000000000000000000000000000000000000000 DUP2 MSTORE PUSH1 0x4 ADD PUSH2 0xC8B SWAP1 PUSH2 0x2F77 JUMP JUMPDEST PUSH1 0x40 MLOAD DUP1 SWAP2 SUB SWAP1 REVERT JUMPDEST DUP2 PUSH20 0xFFFFFFFFFFFFFFFFFFFFFFFFFFFFFFFFFFFFFFFF AND PUSH1 0x2 PUSH1 0x0 DUP5 PUSH20 0xFFFFFFFFFFFFFFFFFFFFFFFFFFFFFFFFFFFFFFFF AND PUSH20 0xFFFFFFFFFFFFFFFFFFFFFFFFFFFFFFFFFFFFFFFF AND DUP2 MSTORE PUSH1 0x20 ADD SWAP1 DUP2 MSTORE PUSH1 0x20 ADD PUSH1 0x0 KECCAK256 PUSH1 0x0 ADD PUSH1 0x0 SWAP1 SLOAD SWAP1 PUSH2 0x100 EXP SWAP1 DIV PUSH20 0xFFFFFFFFFFFFFFFFFFFFFFFFFFFFFFFFFFFFFFFF AND PUSH20 0xFFFFFFFFFFFFFFFFFFFFFFFFFFFFFFFFFFFFFFFF AND SUB PUSH2 0xD64 JUMPI PUSH1 0x40 MLOAD PUSH32 0x8C379A000000000000000000000000000000000000000000000000000000000 DUP2 MSTORE PUSH1 0x4 ADD PUSH2 0xD5B SWAP1 PUSH2 0x2FE3 JUMP JUMPDEST PUSH1 0x40 MLOAD DUP1 SWAP2 SUB SWAP1 REVERT JUMPDEST DUP2 PUSH1 0x2 PUSH1 0x0 DUP5 PUSH20 0xFFFFFFFFFFFFFFFFFFFFFFFFFFFFFFFFFFFFFFFF AND PUSH20 0xFFFFFFFFFFFFFFFFFFFFFFFFFFFFFFFFFFFFFFFF AND DUP2 MSTORE PUSH1 0x20 ADD SWAP1 DUP2 MSTORE PUSH1 0x20 ADD PUSH1 0x0 KECCAK256 PUSH1 0x0 ADD PUSH1 0x0 PUSH2 0x100 EXP DUP2 SLOAD DUP2 PUSH20 0xFFFFFFFFFFFFFFFFFFFFFFFFFFFFFFFFFFFFFFFF MUL NOT AND SWAP1 DUP4 PUSH20 0xFFFFFFFFFFFFFFFFFFFFFFFFFFFFFFFFFFFFFFFF AND MUL OR SWAP1 SSTORE POP DUP1 PUSH1 0x2 PUSH1 0x0 DUP5 PUSH20 0xFFFFFFFFFFFFFFFFFFFFFFFFFFFFFFFFFFFFFFFF AND PUSH20 0xFFFFFFFFFFFFFFFFFFFFFFFFFFFFFFFFFFFFFFFF AND DUP2 MSTORE PUSH1 0x20 ADD SWAP1 DUP2 MSTORE PUSH1 0x20 ADD PUSH1 0x0 KECCAK256 PUSH1 0x1 ADD SWAP1 DUP2 PUSH2 0xE34 SWAP2 SWAP1 PUSH2 0x2DD2 JUMP JUMPDEST POP PUSH32 0x98B422B4248851AE9E727F5FD491B255462F5872BD0493C1DDF7308CCEDFA1A2 DUP3 PUSH1 0x40 MLOAD PUSH2 0xE64 SWAP2 SWAP1 PUSH2 0x2EA4 JUMP JUMPDEST PUSH1 0x40 MLOAD DUP1 SWAP2 SUB SWAP1 LOG1 POP POP JUMP JUMPDEST PUSH2 0xE78 PUSH2 0x2243 JUMP JUMPDEST CALLER PUSH20 0xFFFFFFFFFFFFFFFFFFFFFFFFFFFFFFFFFFFFFFFF AND PUSH1 0x1 PUSH1 0x0 CALLER PUSH20 0xFFFFFFFFFFFFFFFFFFFFFFFFFFFFFFFFFFFFFFFF AND PUSH20 0xFFFFFFFFFFFFFFFFFFFFFFFFFFFFFFFFFFFFFFFF AND DUP2 MSTORE PUSH1 0x20 ADD SWAP1 DUP2 MSTORE PUSH1 0x20 ADD PUSH1 0x0 KECCAK256 PUSH1 0x0 ADD PUSH1 0x0 SWAP1 SLOAD SWAP1 PUSH2 0x100 EXP SWAP1 DIV PUSH20 0xFFFFFFFFFFFFFFFFFFFFFFFFFFFFFFFFFFFFFFFF AND PUSH20 0xFFFFFFFFFFFFFFFFFFFFFFFFFFFFFFFFFFFFFFFF AND EQ PUSH2 0xF48 JUMPI PUSH1 0x40 MLOAD PUSH32 0x8C379A000000000000000000000000000000000000000000000000000000000 DUP2 MSTORE PUSH1 0x4 ADD PUSH2 0xF3F SWAP1 PUSH2 0x2F77 JUMP JUMPDEST PUSH1 0x40 MLOAD DUP1 SWAP2 SUB SWAP1 REVERT JUMPDEST PUSH1 0x0 DUP1 DUP4 PUSH20 0xFFFFFFFFFFFFFFFFFFFFFFFFFFFFFFFFFFFFFFFF AND PUSH20 0xFFFFFFFFFFFFFFFFFFFFFFFFFFFFFFFFFFFFFFFF AND DUP2 MSTORE PUSH1 0x20 ADD SWAP1 DUP2 MSTORE PUSH1 0x20 ADD PUSH1 0x0 KECCAK256 PUSH1 0x40 MLOAD DUP1 PUSH2 0x120 ADD PUSH1 0x40 MSTORE SWAP1 DUP2 PUSH1 0x0 DUP3 ADD PUSH1 0x0 SWAP1 SLOAD SWAP1 PUSH2 0x100 EXP SWAP1 DIV PUSH20 0xFFFFFFFFFFFFFFFFFFFFFFFFFFFFFFFFFFFFFFFF AND PUSH20 0xFFFFFFFFFFFFFFFFFFFFFFFFFFFFFFFFFFFFFFFF AND PUSH20 0xFFFFFFFFFFFFFFFFFFFFFFFFFFFFFFFFFFFFFFFF AND DUP2 MSTORE PUSH1 0x20 ADD PUSH1 0x1 DUP3 ADD SLOAD DUP2 MSTORE PUSH1 0x20 ADD PUSH1 0x2 DUP3 ADD DUP1 SLOAD PUSH2 0x1002 SWAP1 PUSH2 0x2B89 JUMP JUMPDEST DUP1 PUSH1 0x1F ADD PUSH1 0x20 DUP1 SWAP2 DIV MUL PUSH1 0x20 ADD PUSH1 0x40 MLOAD SWAP1 DUP2 ADD PUSH1 0x40 MSTORE DUP1 SWAP3 SWAP2 SWAP1 DUP2 DUP2 MSTORE PUSH1 0x20 ADD DUP3 DUP1 SLOAD PUSH2 0x102E SWAP1 PUSH2 0x2B89 JUMP JUMPDEST DUP1 ISZERO PUSH2 0x107B JUMPI DUP1 PUSH1 0x1F LT PUSH2 0x1050 JUMPI PUSH2 0x100 DUP1 DUP4 SLOAD DIV MUL DUP4 MSTORE SWAP2 PUSH1 0x20 ADD SWAP2 PUSH2 0x107B JUMP JUMPDEST DUP3 ADD SWAP2 SWAP1 PUSH1 0x0 MSTORE PUSH1 0x20 PUSH1 0x0 KECCAK256 SWAP1 JUMPDEST DUP2 SLOAD DUP2 MSTORE SWAP1 PUSH1 0x1 ADD SWAP1 PUSH1 0x20 ADD DUP1 DUP4 GT PUSH2 0x105E JUMPI DUP3 SWAP1 SUB PUSH1 0x1F AND DUP3 ADD SWAP2 JUMPDEST POP POP POP POP POP DUP2 MSTORE PUSH1 0x20 ADD PUSH1 0x3 DUP3 ADD DUP1 SLOAD PUSH2 0x1094 SWAP1 PUSH2 0x2B89 JUMP JUMPDEST DUP1 PUSH1 0x1F ADD PUSH1 0x20 DUP1 SWAP2 DIV MUL PUSH1 0x20 ADD PUSH1 0x40 MLOAD SWAP1 DUP2 ADD PUSH1 0x40 MSTORE DUP1 SWAP3 SWAP2 SWAP1 DUP2 DUP2 MSTORE PUSH1 0x20 ADD DUP3 DUP1 SLOAD PUSH2 0x10C0 SWAP1 PUSH2 0x2B89 JUMP JUMPDEST DUP1 ISZERO PUSH2 0x110D JUMPI DUP1 PUSH1 0x1F LT PUSH2 0x10E2 JUMPI PUSH2 0x100 DUP1 DUP4 SLOAD DIV MUL DUP4 MSTORE SWAP2 PUSH1 0x20 ADD SWAP2 PUSH2 0x110D JUMP JUMPDEST DUP3 ADD SWAP2 SWAP1 PUSH1 0x0 MSTORE PUSH1 0x20 PUSH1 0x0 KECCAK256 SWAP1 JUMPDEST DUP2 SLOAD DUP2 MSTORE SWAP1 PUSH1 0x1 ADD SWAP1 PUSH1 0x20 ADD DUP1 DUP4 GT PUSH2 0x10F0 JUMPI DUP3 SWAP1 SUB PUSH1 0x1F AND DUP3 ADD SWAP2 JUMPDEST POP POP POP POP POP DUP2 MSTORE PUSH1 0x20 ADD PUSH1 0x4 DUP3 ADD DUP1 SLOAD PUSH2 0x1126 SWAP1 PUSH2 0x2B89 JUMP JUMPDEST DUP1 PUSH1 0x1F ADD PUSH1 0x20 DUP1 SWAP2 DIV MUL PUSH1 0x20 ADD PUSH1 0x40 MLOAD SWAP1 DUP2 ADD PUSH1 0x40 MSTORE DUP1 SWAP3 SWAP2 SWAP1 DUP2 DUP2 MSTORE PUSH1 0x20 ADD DUP3 DUP1 SLOAD PUSH2 0x1152 SWAP1 PUSH2 0x2B89 JUMP JUMPDEST DUP1 ISZERO PUSH2 0x119F JUMPI DUP1 PUSH1 0x1F LT PUSH2 0x1174 JUMPI PUSH2 0x100 DUP1 DUP4 SLOAD DIV MUL DUP4 MSTORE SWAP2 PUSH1 0x20 ADD SWAP2 PUSH2 0x119F JUMP JUMPDEST DUP3 ADD SWAP2 SWAP1 PUSH1 0x0 MSTORE PUSH1 0x20 PUSH1 0x0 KECCAK256 SWAP1 JUMPDEST DUP2 SLOAD DUP2 MSTORE SWAP1 PUSH1 0x1 ADD SWAP1 PUSH1 0x20 ADD DUP1 DUP4 GT PUSH2 0x1182 JUMPI DUP3 SWAP1 SUB PUSH1 0x1F AND DUP3 ADD SWAP2 JUMPDEST POP POP POP POP POP DUP2 MSTORE PUSH1 0x20 ADD PUSH1 0x5 DUP3 ADD DUP1 SLOAD PUSH2 0x11B8 SWAP1 PUSH2 0x2B89 JUMP JUMPDEST DUP1 PUSH1 0x1F ADD PUSH1 0x20 DUP1 SWAP2 DIV MUL PUSH1 0x20 ADD PUSH1 0x40 MLOAD SWAP1 DUP2 ADD PUSH1 0x40 MSTORE DUP1 SWAP3 SWAP2 SWAP1 DUP2 DUP2 MSTORE PUSH1 0x20 ADD DUP3 DUP1 SLOAD PUSH2 0x11E4 SWAP1 PUSH2 0x2B89 JUMP JUMPDEST DUP1 ISZERO PUSH2 0x1231 JUMPI DUP1 PUSH1 0x1F LT PUSH2 0x1206 JUMPI PUSH2 0x100 DUP1 DUP4 SLOAD DIV MUL DUP4 MSTORE SWAP2 PUSH1 0x20 ADD SWAP2 PUSH2 0x1231 JUMP JUMPDEST DUP3 ADD SWAP2 SWAP1 PUSH1 0x0 MSTORE PUSH1 0x20 PUSH1 0x0 KECCAK256 SWAP1 JUMPDEST DUP2 SLOAD DUP2 MSTORE SWAP1 PUSH1 0x1 ADD SWAP1 PUSH1 0x20 ADD DUP1 DUP4 GT PUSH2 0x1214 JUMPI DUP3 SWAP1 SUB PUSH1 0x1F AND DUP3 ADD SWAP2 JUMPDEST POP POP POP POP POP DUP2 MSTORE PUSH1 0x20 ADD PUSH1 0x6 DUP3 ADD SLOAD DUP2 MSTORE PUSH1 0x20 ADD PUSH1 0x7 DUP3 ADD SLOAD DUP2 MSTORE PUSH1 0x20 ADD PUSH1 0x8 DUP3 ADD DUP1 SLOAD DUP1 PUSH1 0x20 MUL PUSH1 0x20 ADD PUSH1 0x40 MLOAD SWAP1 DUP2 ADD PUSH1 0x40 MSTORE DUP1 SWAP3 SWAP2 SWAP1 DUP2 DUP2 MSTORE PUSH1 0x20 ADD PUSH1 0x0 SWAP1 JUMPDEST DUP3 DUP3 LT ISZERO PUSH2 0x1444 JUMPI DUP4 DUP3 SWAP1 PUSH1 0x0 MSTORE PUSH1 0x20 PUSH1 0x0 KECCAK256 SWAP1 PUSH1 0x4 MUL ADD PUSH1 0x40 MLOAD DUP1 PUSH1 0xE0 ADD PUSH1 0x40 MSTORE SWAP1 DUP2 PUSH1 0x0 DUP3 ADD DUP1 SLOAD PUSH2 0x12A6 SWAP1 PUSH2 0x2B89 JUMP JUMPDEST DUP1 PUSH1 0x1F ADD PUSH1 0x20 DUP1 SWAP2 DIV MUL PUSH1 0x20 ADD PUSH1 0x40 MLOAD SWAP1 DUP2 ADD PUSH1 0x40 MSTORE DUP1 SWAP3 SWAP2 SWAP1 DUP2 DUP2 MSTORE PUSH1 0x20 ADD DUP3 DUP1 SLOAD PUSH2 0x12D2 SWAP1 PUSH2 0x2B89 JUMP JUMPDEST DUP1 ISZERO PUSH2 0x131F JUMPI DUP1 PUSH1 0x1F LT PUSH2 0x12F4 JUMPI PUSH2 0x100 DUP1 DUP4 SLOAD DIV MUL DUP4 MSTORE SWAP2 PUSH1 0x20 ADD SWAP2 PUSH2 0x131F JUMP JUMPDEST DUP3 ADD SWAP2 SWAP1 PUSH1 0x0 MSTORE PUSH1 0x20 PUSH1 0x0 KECCAK256 SWAP1 JUMPDEST DUP2 SLOAD DUP2 MSTORE SWAP1 PUSH1 0x1 ADD SWAP1 PUSH1 0x20 ADD DUP1 DUP4 GT PUSH2 0x1302 JUMPI DUP3 SWAP1 SUB PUSH1 0x1F AND DUP3 ADD SWAP2 JUMPDEST POP POP POP POP POP DUP2 MSTORE PUSH1 0x20 ADD PUSH1 0x1 DUP3 ADD PUSH1 0x0 SWAP1 SLOAD SWAP1 PUSH2 0x100 EXP SWAP1 DIV PUSH20 0xFFFFFFFFFFFFFFFFFFFFFFFFFFFFFFFFFFFFFFFF AND PUSH20 0xFFFFFFFFFFFFFFFFFFFFFFFFFFFFFFFFFFFFFFFF AND PUSH20 0xFFFFFFFFFFFFFFFFFFFFFFFFFFFFFFFFFFFFFFFF AND DUP2 MSTORE PUSH1 0x20 ADD PUSH1 0x2 DUP3 ADD PUSH1 0x0 SWAP1 SLOAD SWAP1 PUSH2 0x100 EXP SWAP1 DIV PUSH20 0xFFFFFFFFFFFFFFFFFFFFFFFFFFFFFFFFFFFFFFFF AND PUSH20 0xFFFFFFFFFFFFFFFFFFFFFFFFFFFFFFFFFFFFFFFF AND PUSH20 0xFFFFFFFFFFFFFFFFFFFFFFFFFFFFFFFFFFFFFFFF AND DUP2 MSTORE PUSH1 0x20 ADD PUSH1 0x2 DUP3 ADD PUSH1 0x14 SWAP1 SLOAD SWAP1 PUSH2 0x100 EXP SWAP1 DIV PUSH1 0xFF AND PUSH1 0xFF AND PUSH1 0xFF AND DUP2 MSTORE PUSH1 0x20 ADD PUSH1 0x2 DUP3 ADD PUSH1 0x15 SWAP1 SLOAD SWAP1 PUSH2 0x100 EXP SWAP1 DIV PUSH1 0xFF AND PUSH1 0xFF AND PUSH1 0xFF AND DUP2 MSTORE PUSH1 0x20 ADD PUSH1 0x2 DUP3 ADD PUSH1 0x16 SWAP1 SLOAD SWAP1 PUSH2 0x100 EXP SWAP1 DIV PUSH1 0xFF AND PUSH1 0xFF AND PUSH1 0xFF AND DUP2 MSTORE PUSH1 0x20 ADD PUSH1 0x3 DUP3 ADD SLOAD DUP2 MSTORE POP POP DUP2 MSTORE PUSH1 0x20 ADD SWAP1 PUSH1 0x1 ADD SWAP1 PUSH2 0x1273 JUMP JUMPDEST POP POP POP POP DUP2 MSTORE POP POP SWAP1 POP SWAP2 SWAP1 POP JUMP JUMPDEST PUSH1 0x0 CALLER PUSH20 0xFFFFFFFFFFFFFFFFFFFFFFFFFFFFFFFFFFFFFFFF AND PUSH1 0x1 PUSH1 0x0 CALLER PUSH20 0xFFFFFFFFFFFFFFFFFFFFFFFFFFFFFFFFFFFFFFFF AND PUSH20 0xFFFFFFFFFFFFFFFFFFFFFFFFFFFFFFFFFFFFFFFF AND DUP2 MSTORE PUSH1 0x20 ADD SWAP1 DUP2 MSTORE PUSH1 0x20 ADD PUSH1 0x0 KECCAK256 PUSH1 0x0 ADD PUSH1 0x0 SWAP1 SLOAD SWAP1 PUSH2 0x100 EXP SWAP1 DIV PUSH20 0xFFFFFFFFFFFFFFFFFFFFFFFFFFFFFFFFFFFFFFFF AND PUSH20 0xFFFFFFFFFFFFFFFFFFFFFFFFFFFFFFFFFFFFFFFF AND EQ PUSH2 0x1525 JUMPI PUSH1 0x40 MLOAD PUSH32 0x8C379A000000000000000000000000000000000000000000000000000000000 DUP2 MSTORE PUSH1 0x4 ADD PUSH2 0x151C SWAP1 PUSH2 0x2F77 JUMP JUMPDEST PUSH1 0x40 MLOAD DUP1 SWAP2 SUB SWAP1 REVERT JUMPDEST DUP2 PUSH20 0xFFFFFFFFFFFFFFFFFFFFFFFFFFFFFFFFFFFFFFFF AND PUSH1 0x0 DUP1 DUP5 PUSH20 0xFFFFFFFFFFFFFFFFFFFFFFFFFFFFFFFFFFFFFFFF AND PUSH20 0xFFFFFFFFFFFFFFFFFFFFFFFFFFFFFFFFFFFFFFFF AND DUP2 MSTORE PUSH1 0x20 ADD SWAP1 DUP2 MSTORE PUSH1 0x20 ADD PUSH1 0x0 KECCAK256 PUSH1 0x0 ADD PUSH1 0x0 SWAP1 SLOAD SWAP1 PUSH2 0x100 EXP SWAP1 DIV PUSH20 0xFFFFFFFFFFFFFFFFFFFFFFFFFFFFFFFFFFFFFFFF AND PUSH20 0xFFFFFFFFFFFFFFFFFFFFFFFFFFFFFFFFFFFFFFFF AND EQ SWAP1 POP SWAP2 SWAP1 POP JUMP JUMPDEST CALLER PUSH20 0xFFFFFFFFFFFFFFFFFFFFFFFFFFFFFFFFFFFFFFFF AND PUSH1 0x1 PUSH1 0x0 CALLER PUSH20 0xFFFFFFFFFFFFFFFFFFFFFFFFFFFFFFFFFFFFFFFF AND PUSH20 0xFFFFFFFFFFFFFFFFFFFFFFFFFFFFFFFFFFFFFFFF AND DUP2 MSTORE PUSH1 0x20 ADD SWAP1 DUP2 MSTORE PUSH1 0x20 ADD PUSH1 0x0 KECCAK256 PUSH1 0x0 ADD PUSH1 0x0 SWAP1 SLOAD SWAP1 PUSH2 0x100 EXP SWAP1 DIV PUSH20 0xFFFFFFFFFFFFFFFFFFFFFFFFFFFFFFFFFFFFFFFF AND PUSH20 0xFFFFFFFFFFFFFFFFFFFFFFFFFFFFFFFFFFFFFFFF AND EQ PUSH2 0x168C JUMPI PUSH1 0x40 MLOAD PUSH32 0x8C379A000000000000000000000000000000000000000000000000000000000 DUP2 MSTORE PUSH1 0x4 ADD PUSH2 0x1683 SWAP1 PUSH2 0x2F77 JUMP JUMPDEST PUSH1 0x40 MLOAD DUP1 SWAP2 SUB SWAP1 REVERT JUMPDEST DUP5 DUP1 PUSH20 0xFFFFFFFFFFFFFFFFFFFFFFFFFFFFFFFFFFFFFFFF AND PUSH1 0x0 DUP1 DUP4 PUSH20 0xFFFFFFFFFFFFFFFFFFFFFFFFFFFFFFFFFFFFFFFF AND PUSH20 0xFFFFFFFFFFFFFFFFFFFFFFFFFFFFFFFFFFFFFFFF AND DUP2 MSTORE PUSH1 0x20 ADD SWAP1 DUP2 MSTORE PUSH1 0x20 ADD PUSH1 0x0 KECCAK256 PUSH1 0x0 ADD PUSH1 0x0 SWAP1 SLOAD SWAP1 PUSH2 0x100 EXP SWAP1 DIV PUSH20 0xFFFFFFFFFFFFFFFFFFFFFFFFFFFFFFFFFFFFFFFF AND PUSH20 0xFFFFFFFFFFFFFFFFFFFFFFFFFFFFFFFFFFFFFFFF AND EQ PUSH2 0x175C JUMPI PUSH1 0x40 MLOAD PUSH32 0x8C379A000000000000000000000000000000000000000000000000000000000 DUP2 MSTORE PUSH1 0x4 ADD PUSH2 0x1753 SWAP1 PUSH2 0x304F JUMP JUMPDEST PUSH1 0x40 MLOAD DUP1 SWAP2 SUB SWAP1 REVERT JUMPDEST PUSH1 0x0 PUSH1 0x40 MLOAD DUP1 PUSH1 0xE0 ADD PUSH1 0x40 MSTORE DUP1 DUP10 DUP2 MSTORE PUSH1 0x20 ADD DUP9 PUSH20 0xFFFFFFFFFFFFFFFFFFFFFFFFFFFFFFFFFFFFFFFF AND DUP2 MSTORE PUSH1 0x20 ADD DUP8 PUSH20 0xFFFFFFFFFFFFFFFFFFFFFFFFFFFFFFFFFFFFFFFF AND DUP2 MSTORE PUSH1 0x20 ADD DUP7 PUSH1 0xFF AND DUP2 MSTORE PUSH1 0x20 ADD DUP5 PUSH1 0xFF AND DUP2 MSTORE PUSH1 0x20 ADD DUP6 PUSH1 0xFF AND DUP2 MSTORE PUSH1 0x20 ADD TIMESTAMP DUP2 MSTORE POP SWAP1 POP PUSH1 0x0 DUP1 DUP9 PUSH20 0xFFFFFFFFFFFFFFFFFFFFFFFFFFFFFFFFFFFFFFFF AND PUSH20 0xFFFFFFFFFFFFFFFFFFFFFFFFFFFFFFFFFFFFFFFF AND DUP2 MSTORE PUSH1 0x20 ADD SWAP1 DUP2 MSTORE PUSH1 0x20 ADD PUSH1 0x0 KECCAK256 PUSH1 0x8 ADD DUP2 SWAP1 DUP1 PUSH1 0x1 DUP2 SLOAD ADD DUP1 DUP3 SSTORE DUP1 SWAP2 POP POP PUSH1 0x1 SWAP1 SUB SWAP1 PUSH1 0x0 MSTORE PUSH1 0x20 PUSH1 0x0 KECCAK256 SWAP1 PUSH1 0x4 MUL ADD PUSH1 0x0 SWAP1 SWAP2 SWAP1 SWAP2 SWAP1 SWAP2 POP PUSH1 0x0 DUP3 ADD MLOAD DUP2 PUSH1 0x0 ADD SWAP1 DUP2 PUSH2 0x1848 SWAP2 SWAP1 PUSH2 0x2DD2 JUMP JUMPDEST POP PUSH1 0x20 DUP3 ADD MLOAD DUP2 PUSH1 0x1 ADD PUSH1 0x0 PUSH2 0x100 EXP DUP2 SLOAD DUP2 PUSH20 0xFFFFFFFFFFFFFFFFFFFFFFFFFFFFFFFFFFFFFFFF MUL NOT AND SWAP1 DUP4 PUSH20 0xFFFFFFFFFFFFFFFFFFFFFFFFFFFFFFFFFFFFFFFF AND MUL OR SWAP1 SSTORE POP PUSH1 0x40 DUP3 ADD MLOAD DUP2 PUSH1 0x2 ADD PUSH1 0x0 PUSH2 0x100 EXP DUP2 SLOAD DUP2 PUSH20 0xFFFFFFFFFFFFFFFFFFFFFFFFFFFFFFFFFFFFFFFF MUL NOT AND SWAP1 DUP4 PUSH20 0xFFFFFFFFFFFFFFFFFFFFFFFFFFFFFFFFFFFFFFFF AND MUL OR SWAP1 SSTORE POP PUSH1 0x60 DUP3 ADD MLOAD DUP2 PUSH1 0x2 ADD PUSH1 0x14 PUSH2 0x100 EXP DUP2 SLOAD DUP2 PUSH1 0xFF MUL NOT AND SWAP1 DUP4 PUSH1 0xFF AND MUL OR SWAP1 SSTORE POP PUSH1 0x80 DUP3 ADD MLOAD DUP2 PUSH1 0x2 ADD PUSH1 0x15 PUSH2 0x100 EXP DUP2 SLOAD DUP2 PUSH1 0xFF MUL NOT AND SWAP1 DUP4 PUSH1 0xFF AND MUL OR SWAP1 SSTORE POP PUSH1 0xA0 DUP3 ADD MLOAD DUP2 PUSH1 0x2 ADD PUSH1 0x16 PUSH2 0x100 EXP DUP2 SLOAD DUP2 PUSH1 0xFF MUL NOT AND SWAP1 DUP4 PUSH1 0xFF AND MUL OR SWAP1 SSTORE POP PUSH1 0xC0 DUP3 ADD MLOAD DUP2 PUSH1 0x3 ADD SSTORE POP POP PUSH32 0x79439A93BA0B8067E556B3942A78AC58D991C58E2E23041C4E7AA1C446FC1188 DUP9 DUP9 DUP9 PUSH1 0x40 MLOAD PUSH2 0x1979 SWAP4 SWAP3 SWAP2 SWAP1 PUSH2 0x306F JUMP JUMPDEST PUSH1 0x40 MLOAD DUP1 SWAP2 SUB SWAP1 LOG1 POP POP POP POP POP POP POP POP JUMP JUMPDEST PUSH1 0x60 CALLER PUSH20 0xFFFFFFFFFFFFFFFFFFFFFFFFFFFFFFFFFFFFFFFF AND PUSH1 0x1 PUSH1 0x0 CALLER PUSH20 0xFFFFFFFFFFFFFFFFFFFFFFFFFFFFFFFFFFFFFFFF AND PUSH20 0xFFFFFFFFFFFFFFFFFFFFFFFFFFFFFFFFFFFFFFFF AND DUP2 MSTORE PUSH1 0x20 ADD SWAP1 DUP2 MSTORE PUSH1 0x20 ADD PUSH1 0x0 KECCAK256 PUSH1 0x0 ADD PUSH1 0x0 SWAP1 SLOAD SWAP1 PUSH2 0x100 EXP SWAP1 DIV PUSH20 0xFFFFFFFFFFFFFFFFFFFFFFFFFFFFFFFFFFFFFFFF AND PUSH20 0xFFFFFFFFFFFFFFFFFFFFFFFFFFFFFFFFFFFFFFFF AND EQ DUP1 PUSH2 0x1AB5 JUMPI POP CALLER PUSH20 0xFFFFFFFFFFFFFFFFFFFFFFFFFFFFFFFFFFFFFFFF AND PUSH1 0x0 DUP1 CALLER PUSH20 0xFFFFFFFFFFFFFFFFFFFFFFFFFFFFFFFFFFFFFFFF AND PUSH20 0xFFFFFFFFFFFFFFFFFFFFFFFFFFFFFFFFFFFFFFFF AND DUP2 MSTORE PUSH1 0x20 ADD SWAP1 DUP2 MSTORE PUSH1 0x20 ADD PUSH1 0x0 KECCAK256 PUSH1 0x0 ADD PUSH1 0x0 SWAP1 SLOAD SWAP1 PUSH2 0x100 EXP SWAP1 DIV PUSH20 0xFFFFFFFFFFFFFFFFFFFFFFFFFFFFFFFFFFFFFFFF AND PUSH20 0xFFFFFFFFFFFFFFFFFFFFFFFFFFFFFFFFFFFFFFFF AND EQ JUMPDEST PUSH2 0x1AF4 JUMPI PUSH1 0x40 MLOAD PUSH32 0x8C379A000000000000000000000000000000000000000000000000000000000 DUP2 MSTORE PUSH1 0x4 ADD PUSH2 0x1AEB SWAP1 PUSH2 0x30F9 JUMP JUMPDEST PUSH1 0x40 MLOAD DUP1 SWAP2 SUB SWAP1 REVERT JUMPDEST DUP2 DUP1 PUSH20 0xFFFFFFFFFFFFFFFFFFFFFFFFFFFFFFFFFFFFFFFF AND PUSH1 0x0 DUP1 DUP4 PUSH20 0xFFFFFFFFFFFFFFFFFFFFFFFFFFFFFFFFFFFFFFFF AND PUSH20 0xFFFFFFFFFFFFFFFFFFFFFFFFFFFFFFFFFFFFFFFF AND DUP2 MSTORE PUSH1 0x20 ADD SWAP1 DUP2 MSTORE PUSH1 0x20 ADD PUSH1 0x0 KECCAK256 PUSH1 0x0 ADD PUSH1 0x0 SWAP1 SLOAD SWAP1 PUSH2 0x100 EXP SWAP1 DIV PUSH20 0xFFFFFFFFFFFFFFFFFFFFFFFFFFFFFFFFFFFFFFFF AND PUSH20 0xFFFFFFFFFFFFFFFFFFFFFFFFFFFFFFFFFFFFFFFF AND EQ PUSH2 0x1BC4 JUMPI PUSH1 0x40 MLOAD PUSH32 0x8C379A000000000000000000000000000000000000000000000000000000000 DUP2 MSTORE PUSH1 0x4 ADD PUSH2 0x1BBB SWAP1 PUSH2 0x304F JUMP JUMPDEST PUSH1 0x40 MLOAD DUP1 SWAP2 SUB SWAP1 REVERT JUMPDEST PUSH1 0x0 DUP1 DUP5 PUSH20 0xFFFFFFFFFFFFFFFFFFFFFFFFFFFFFFFFFFFFFFFF AND PUSH20 0xFFFFFFFFFFFFFFFFFFFFFFFFFFFFFFFFFFFFFFFF AND DUP2 MSTORE PUSH1 0x20 ADD SWAP1 DUP2 MSTORE PUSH1 0x20 ADD PUSH1 0x0 KECCAK256 PUSH1 0x8 ADD DUP1 SLOAD DUP1 PUSH1 0x20 MUL PUSH1 0x20 ADD PUSH1 0x40 MLOAD SWAP1 DUP2 ADD PUSH1 0x40 MSTORE DUP1 SWAP3 SWAP2 SWAP1 DUP2 DUP2 MSTORE PUSH1 0x20 ADD PUSH1 0x0 SWAP1 JUMPDEST DUP3 DUP3 LT ISZERO PUSH2 0x1DF6 JUMPI DUP4 DUP3 SWAP1 PUSH1 0x0 MSTORE PUSH1 0x20 PUSH1 0x0 KECCAK256 SWAP1 PUSH1 0x4 MUL ADD PUSH1 0x40 MLOAD DUP1 PUSH1 0xE0 ADD PUSH1 0x40 MSTORE SWAP1 DUP2 PUSH1 0x0 DUP3 ADD DUP1 SLOAD PUSH2 0x1C58 SWAP1 PUSH2 0x2B89 JUMP JUMPDEST DUP1 PUSH1 0x1F ADD PUSH1 0x20 DUP1 SWAP2 DIV MUL PUSH1 0x20 ADD PUSH1 0x40 MLOAD SWAP1 DUP2 ADD PUSH1 0x40 MSTORE DUP1 SWAP3 SWAP2 SWAP1 DUP2 DUP2 MSTORE PUSH1 0x20 ADD DUP3 DUP1 SLOAD PUSH2 0x1C84 SWAP1 PUSH2 0x2B89 JUMP JUMPDEST DUP1 ISZERO PUSH2 0x1CD1 JUMPI DUP1 PUSH1 0x1F LT PUSH2 0x1CA6 JUMPI PUSH2 0x100 DUP1 DUP4 SLOAD DIV MUL DUP4 MSTORE SWAP2 PUSH1 0x20 ADD SWAP2 PUSH2 0x1CD1 JUMP JUMPDEST DUP3 ADD SWAP2 SWAP1 PUSH1 0x0 MSTORE PUSH1 0x20 PUSH1 0x0 KECCAK256 SWAP1 JUMPDEST DUP2 SLOAD DUP2 MSTORE SWAP1 PUSH1 0x1 ADD SWAP1 PUSH1 0x20 ADD DUP1 DUP4 GT PUSH2 0x1CB4 JUMPI DUP3 SWAP1 SUB PUSH1 0x1F AND DUP3 ADD SWAP2 JUMPDEST POP POP POP POP POP DUP2 MSTORE PUSH1 0x20 ADD PUSH1 0x1 DUP3 ADD PUSH1 0x0 SWAP1 SLOAD SWAP1 PUSH2 0x100 EXP SWAP1 DIV PUSH20 0xFFFFFFFFFFFFFFFFFFFFFFFFFFFFFFFFFFFFFFFF AND PUSH20 0xFFFFFFFFFFFFFFFFFFFFFFFFFFFFFFFFFFFFFFFF AND PUSH20 0xFFFFFFFFFFFFFFFFFFFFFFFFFFFFFFFFFFFFFFFF AND DUP2 MSTORE PUSH1 0x20 ADD PUSH1 0x2 DUP3 ADD PUSH1 0x0 SWAP1 SLOAD SWAP1 PUSH2 0x100 EXP SWAP1 DIV PUSH20 0xFFFFFFFFFFFFFFFFFFFFFFFFFFFFFFFFFFFFFFFF AND PUSH20 0xFFFFFFFFFFFFFFFFFFFFFFFFFFFFFFFFFFFFFFFF AND PUSH20 0xFFFFFFFFFFFFFFFFFFFFFFFFFFFFFFFFFFFFFFFF AND DUP2 MSTORE PUSH1 0x20 ADD PUSH1 0x2 DUP3 ADD PUSH1 0x14 SWAP1 SLOAD SWAP1 PUSH2 0x100 EXP SWAP1 DIV PUSH1 0xFF AND PUSH1 0xFF AND PUSH1 0xFF AND DUP2 MSTORE PUSH1 0x20 ADD PUSH1 0x2 DUP3 ADD PUSH1 0x15 SWAP1 SLOAD SWAP1 PUSH2 0x100 EXP SWAP1 DIV PUSH1 0xFF AND PUSH1 0xFF AND PUSH1 0xFF AND DUP2 MSTORE PUSH1 0x20 ADD PUSH1 0x2 DUP3 ADD PUSH1 0x16 SWAP1 SLOAD SWAP1 PUSH2 0x100 EXP SWAP1 DIV PUSH1 0xFF AND PUSH1 0xFF AND PUSH1 0xFF AND DUP2 MSTORE PUSH1 0x20 ADD PUSH1 0x3 DUP3 ADD SLOAD DUP2 MSTORE POP POP DUP2 MSTORE PUSH1 0x20 ADD SWAP1 PUSH1 0x1 ADD SWAP1 PUSH2 0x1C25 JUMP JUMPDEST POP POP POP POP SWAP2 POP POP SWAP2 SWAP1 POP JUMP JUMPDEST PUSH1 0x1 PUSH1 0x20 MSTORE DUP1 PUSH1 0x0 MSTORE PUSH1 0x40 PUSH1 0x0 KECCAK256 PUSH1 0x0 SWAP2 POP SWAP1 POP DUP1 PUSH1 0x0 ADD PUSH1 0x0 SWAP1 SLOAD SWAP1 PUSH2 0x100 EXP SWAP1 DIV PUSH20 0xFFFFFFFFFFFFFFFFFFFFFFFFFFFFFFFFFFFFFFFF AND SWAP1 DUP1 PUSH1 0x1 ADD DUP1 SLOAD PUSH2 0x1E4B SWAP1 PUSH2 0x2B89 JUMP JUMPDEST DUP1 PUSH1 0x1F ADD PUSH1 0x20 DUP1 SWAP2 DIV MUL PUSH1 0x20 ADD PUSH1 0x40 MLOAD SWAP1 DUP2 ADD PUSH1 0x40 MSTORE DUP1 SWAP3 SWAP2 SWAP1 DUP2 DUP2 MSTORE PUSH1 0x20 ADD DUP3 DUP1 SLOAD PUSH2 0x1E77 SWAP1 PUSH2 0x2B89 JUMP JUMPDEST DUP1 ISZERO PUSH2 0x1EC4 JUMPI DUP1 PUSH1 0x1F LT PUSH2 0x1E99 JUMPI PUSH2 0x100 DUP1 DUP4 SLOAD DIV MUL DUP4 MSTORE SWAP2 PUSH1 0x20 ADD SWAP2 PUSH2 0x1EC4 JUMP JUMPDEST DUP3 ADD SWAP2 SWAP1 PUSH1 0x0 MSTORE PUSH1 0x20 PUSH1 0x0 KECCAK256 SWAP1 JUMPDEST DUP2 SLOAD DUP2 MSTORE SWAP1 PUSH1 0x1 ADD SWAP1 PUSH1 0x20 ADD DUP1 DUP4 GT PUSH2 0x1EA7 JUMPI DUP3 SWAP1 SUB PUSH1 0x1F AND DUP3 ADD SWAP2 JUMPDEST POP POP POP POP POP SWAP1 POP DUP3 JUMP JUMPDEST CALLER PUSH20 0xFFFFFFFFFFFFFFFFFFFFFFFFFFFFFFFFFFFFFFFF AND PUSH1 0x1 PUSH1 0x0 CALLER PUSH20 0xFFFFFFFFFFFFFFFFFFFFFFFFFFFFFFFFFFFFFFFF AND PUSH20 0xFFFFFFFFFFFFFFFFFFFFFFFFFFFFFFFFFFFFFFFF AND DUP2 MSTORE PUSH1 0x20 ADD SWAP1 DUP2 MSTORE PUSH1 0x20 ADD PUSH1 0x0 KECCAK256 PUSH1 0x0 ADD PUSH1 0x0 SWAP1 SLOAD SWAP1 PUSH2 0x100 EXP SWAP1 DIV PUSH20 0xFFFFFFFFFFFFFFFFFFFFFFFFFFFFFFFFFFFFFFFF AND PUSH20 0xFFFFFFFFFFFFFFFFFFFFFFFFFFFFFFFFFFFFFFFF AND EQ PUSH2 0x1F9E JUMPI PUSH1 0x40 MLOAD PUSH32 0x8C379A000000000000000000000000000000000000000000000000000000000 DUP2 MSTORE PUSH1 0x4 ADD PUSH2 0x1F95 SWAP1 PUSH2 0x2F77 JUMP JUMPDEST PUSH1 0x40 MLOAD DUP1 SWAP2 SUB SWAP1 REVERT JUMPDEST DUP2 PUSH20 0xFFFFFFFFFFFFFFFFFFFFFFFFFFFFFFFFFFFFFFFF AND PUSH1 0x0 DUP1 DUP5 PUSH20 0xFFFFFFFFFFFFFFFFFFFFFFFFFFFFFFFFFFFFFFFF AND PUSH20 0xFFFFFFFFFFFFFFFFFFFFFFFFFFFFFFFFFFFFFFFF AND DUP2 MSTORE PUSH1 0x20 ADD SWAP1 DUP2 MSTORE PUSH1 0x20 ADD PUSH1 0x0 KECCAK256 PUSH1 0x0 ADD PUSH1 0x0 SWAP1 SLOAD SWAP1 PUSH2 0x100 EXP SWAP1 DIV PUSH20 0xFFFFFFFFFFFFFFFFFFFFFFFFFFFFFFFFFFFFFFFF AND PUSH20 0xFFFFFFFFFFFFFFFFFFFFFFFFFFFFFFFFFFFFFFFF AND SUB PUSH2 0x206D JUMPI PUSH1 0x40 MLOAD PUSH32 0x8C379A000000000000000000000000000000000000000000000000000000000 DUP2 MSTORE PUSH1 0x4 ADD PUSH2 0x2064 SWAP1 PUSH2 0x3165 JUMP JUMPDEST PUSH1 0x40 MLOAD DUP1 SWAP2 SUB SWAP1 REVERT JUMPDEST DUP2 PUSH1 0x0 DUP1 DUP5 PUSH20 0xFFFFFFFFFFFFFFFFFFFFFFFFFFFFFFFFFFFFFFFF AND PUSH20 0xFFFFFFFFFFFFFFFFFFFFFFFFFFFFFFFFFFFFFFFF AND DUP2 MSTORE PUSH1 0x20 ADD SWAP1 DUP2 MSTORE PUSH1 0x20 ADD PUSH1 0x0 KECCAK256 PUSH1 0x0 ADD PUSH1 0x0 PUSH2 0x100 EXP DUP2 SLOAD DUP2 PUSH20 0xFFFFFFFFFFFFFFFFFFFFFFFFFFFFFFFFFFFFFFFF MUL NOT AND SWAP1 DUP4 PUSH20 0xFFFFFFFFFFFFFFFFFFFFFFFFFFFFFFFFFFFFFFFF AND MUL OR SWAP1 SSTORE POP DUP1 PUSH1 0x0 DUP1 DUP5 PUSH20 0xFFFFFFFFFFFFFFFFFFFFFFFFFFFFFFFFFFFFFFFF AND PUSH20 0xFFFFFFFFFFFFFFFFFFFFFFFFFFFFFFFFFFFFFFFF AND DUP2 MSTORE PUSH1 0x20 ADD SWAP1 DUP2 MSTORE PUSH1 0x20 ADD PUSH1 0x0 KECCAK256 PUSH1 0x2 ADD SWAP1 DUP2 PUSH2 0x213B SWAP2 SWAP1 PUSH2 0x2DD2 JUMP JUMPDEST POP PUSH32 0xA58CFF07DB0ADDA3AB7A40BD2F18AB57210BF38391A52FFD2E8EEE6B8BDEC71A DUP3 PUSH1 0x40 MLOAD PUSH2 0x216B SWAP2 SWAP1 PUSH2 0x2EA4 JUMP JUMPDEST PUSH1 0x40 MLOAD DUP1 SWAP2 SUB SWAP1 LOG1 POP POP JUMP JUMPDEST PUSH1 0x2 PUSH1 0x20 MSTORE DUP1 PUSH1 0x0 MSTORE PUSH1 0x40 PUSH1 0x0 KECCAK256 PUSH1 0x0 SWAP2 POP SWAP1 POP DUP1 PUSH1 0x0 ADD PUSH1 0x0 SWAP1 SLOAD SWAP1 PUSH2 0x100 EXP SWAP1 DIV PUSH20 0xFFFFFFFFFFFFFFFFFFFFFFFFFFFFFFFFFFFFFFFF AND SWAP1 DUP1 PUSH1 0x1 ADD DUP1 SLOAD PUSH2 0x21C0 SWAP1 PUSH2 0x2B89 JUMP JUMPDEST DUP1 PUSH1 0x1F ADD PUSH1 0x20 DUP1 SWAP2 DIV MUL PUSH1 0x20 ADD PUSH1 0x40 MLOAD SWAP1 DUP2 ADD PUSH1 0x40 MSTORE DUP1 SWAP3 SWAP2 SWAP1 DUP2 DUP2 MSTORE PUSH1 0x20 ADD DUP3 DUP1 SLOAD PUSH2 0x21EC SWAP1 PUSH2 0x2B89 JUMP JUMPDEST DUP1 ISZERO PUSH2 0x2239 JUMPI DUP1 PUSH1 0x1F LT PUSH2 0x220E JUMPI PUSH2 0x100 DUP1 DUP4 SLOAD DIV MUL DUP4 MSTORE SWAP2 PUSH1 0x20 ADD SWAP2 PUSH2 0x2239 JUMP JUMPDEST DUP3 ADD SWAP2 SWAP1 PUSH1 0x0 MSTORE PUSH1 0x20 PUSH1 0x0 KECCAK256 SWAP1 JUMPDEST DUP2 SLOAD DUP2 MSTORE SWAP1 PUSH1 0x1 ADD SWAP1 PUSH1 0x20 ADD DUP1 DUP4 GT PUSH2 0x221C JUMPI DUP3 SWAP1 SUB PUSH1 0x1F AND DUP3 ADD SWAP2 JUMPDEST POP POP POP POP POP SWAP1 POP DUP3 JUMP JUMPDEST PUSH1 0x40 MLOAD DUP1 PUSH2 0x120 ADD PUSH1 0x40 MSTORE DUP1 PUSH1 0x0 PUSH20 0xFFFFFFFFFFFFFFFFFFFFFFFFFFFFFFFFFFFFFFFF AND DUP2 MSTORE PUSH1 0x20 ADD PUSH1 0x0 DUP2 MSTORE PUSH1 0x20 ADD PUSH1 0x60 DUP2 MSTORE PUSH1 0x20 ADD PUSH1 0x60 DUP2 MSTORE PUSH1 0x20 ADD PUSH1 0x60 DUP2 MSTORE PUSH1 0x20 ADD PUSH1 0x60 DUP2 MSTORE PUSH1 0x20 ADD PUSH1 0x0 DUP2 MSTORE PUSH1 0x20 ADD PUSH1 0x0 DUP2 MSTORE PUSH1 0x20 ADD PUSH1 0x60 DUP2 MSTORE POP SWAP1 JUMP JUMPDEST PUSH1 0x0 PUSH1 0x40 MLOAD SWAP1 POP SWAP1 JUMP JUMPDEST PUSH1 0x0 DUP1 REVERT JUMPDEST PUSH1 0x0 DUP1 REVERT JUMPDEST PUSH1 0x0 PUSH20 0xFFFFFFFFFFFFFFFFFFFFFFFFFFFFFFFFFFFFFFFF DUP3 AND SWAP1 POP SWAP2 SWAP1 POP JUMP JUMPDEST PUSH1 0x0 PUSH2 0x22E4 DUP3 PUSH2 0x22B9 JUMP JUMPDEST SWAP1 POP SWAP2 SWAP1 POP JUMP JUMPDEST PUSH2 0x22F4 DUP2 PUSH2 0x22D9 JUMP JUMPDEST DUP2 EQ PUSH2 0x22FF JUMPI PUSH1 0x0 DUP1 REVERT JUMPDEST POP JUMP JUMPDEST PUSH1 0x0 DUP2 CALLDATALOAD SWAP1 POP PUSH2 0x2311 DUP2 PUSH2 0x22EB JUMP JUMPDEST SWAP3 SWAP2 POP POP JUMP JUMPDEST PUSH1 0x0 PUSH1 0x20 DUP3 DUP5 SUB SLT ISZERO PUSH2 0x232D JUMPI PUSH2 0x232C PUSH2 0x22AF JUMP JUMPDEST JUMPDEST PUSH1 0x0 PUSH2 0x233B DUP5 DUP3 DUP6 ADD PUSH2 0x2302 JUMP JUMPDEST SWAP2 POP POP SWAP3 SWAP2 POP POP JUMP JUMPDEST PUSH2 0x234D DUP2 PUSH2 0x22D9 JUMP JUMPDEST DUP3 MSTORE POP POP JUMP JUMPDEST PUSH1 0x0 DUP2 SWAP1 POP SWAP2 SWAP1 POP JUMP JUMPDEST PUSH2 0x2366 DUP2 PUSH2 0x2353 JUMP JUMPDEST DUP3 MSTORE POP POP JUMP JUMPDEST PUSH1 0x0 DUP2 MLOAD SWAP1 POP SWAP2 SWAP1 POP JUMP JUMPDEST PUSH1 0x0 DUP3 DUP3 MSTORE PUSH1 0x20 DUP3 ADD SWAP1 POP SWAP3 SWAP2 POP POP JUMP JUMPDEST PUSH1 0x0 JUMPDEST DUP4 DUP2 LT ISZERO PUSH2 0x23A6 JUMPI DUP1 DUP3 ADD MLOAD DUP2 DUP5 ADD MSTORE PUSH1 0x20 DUP2 ADD SWAP1 POP PUSH2 0x238B JUMP JUMPDEST PUSH1 0x0 DUP5 DUP5 ADD MSTORE POP POP POP POP JUMP JUMPDEST PUSH1 0x0 PUSH1 0x1F NOT PUSH1 0x1F DUP4 ADD AND SWAP1 POP SWAP2 SWAP1 POP JUMP JUMPDEST PUSH1 0x0 PUSH2 0x23CE DUP3 PUSH2 0x236C JUMP JUMPDEST PUSH2 0x23D8 DUP2 DUP6 PUSH2 0x2377 JUMP JUMPDEST SWAP4 POP PUSH2 0x23E8 DUP2 DUP6 PUSH1 0x20 DUP7 ADD PUSH2 0x2388 JUMP JUMPDEST PUSH2 0x23F1 DUP2 PUSH2 0x23B2 JUMP JUMPDEST DUP5 ADD SWAP2 POP POP SWAP3 SWAP2 POP POP JUMP JUMPDEST PUSH1 0x0 PUSH2 0x100 DUP3 ADD SWAP1 POP PUSH2 0x2412 PUSH1 0x0 DUP4 ADD DUP12 PUSH2 0x2344 JUMP JUMPDEST PUSH2 0x241F PUSH1 0x20 DUP4 ADD DUP11 PUSH2 0x235D JUMP JUMPDEST DUP2 DUP2 SUB PUSH1 0x40 DUP4 ADD MSTORE PUSH2 0x2431 DUP2 DUP10 PUSH2 0x23C3 JUMP JUMPDEST SWAP1 POP DUP2 DUP2 SUB PUSH1 0x60 DUP4 ADD MSTORE PUSH2 0x2445 DUP2 DUP9 PUSH2 0x23C3 JUMP JUMPDEST SWAP1 POP DUP2 DUP2 SUB PUSH1 0x80 DUP4 ADD MSTORE PUSH2 0x2459 DUP2 DUP8 PUSH2 0x23C3 JUMP JUMPDEST SWAP1 POP DUP2 DUP2 SUB PUSH1 0xA0 DUP4 ADD MSTORE PUSH2 0x246D DUP2 DUP7 PUSH2 0x23C3 JUMP JUMPDEST SWAP1 POP PUSH2 0x247C PUSH1 0xC0 DUP4 ADD DUP6 PUSH2 0x235D JUMP JUMPDEST PUSH2 0x2489 PUSH1 0xE0 DUP4 ADD DUP5 PUSH2 0x235D JUMP JUMPDEST SWAP10 SWAP9 POP POP POP POP POP POP POP POP POP JUMP JUMPDEST PUSH1 0x0 DUP1 REVERT JUMPDEST PUSH1 0x0 DUP1 REVERT JUMPDEST PUSH32 0x4E487B7100000000000000000000000000000000000000000000000000000000 PUSH1 0x0 MSTORE PUSH1 0x41 PUSH1 0x4 MSTORE PUSH1 0x24 PUSH1 0x0 REVERT JUMPDEST PUSH2 0x24D8 DUP3 PUSH2 0x23B2 JUMP JUMPDEST DUP2 ADD DUP2 DUP2 LT PUSH8 0xFFFFFFFFFFFFFFFF DUP3 GT OR ISZERO PUSH2 0x24F7 JUMPI PUSH2 0x24F6 PUSH2 0x24A0 JUMP JUMPDEST JUMPDEST DUP1 PUSH1 0x40 MSTORE POP POP POP JUMP JUMPDEST PUSH1 0x0 PUSH2 0x250A PUSH2 0x22A5 JUMP JUMPDEST SWAP1 POP PUSH2 0x2516 DUP3 DUP3 PUSH2 0x24CF JUMP JUMPDEST SWAP2 SWAP1 POP JUMP JUMPDEST PUSH1 0x0 PUSH8 0xFFFFFFFFFFFFFFFF DUP3 GT ISZERO PUSH2 0x2536 JUMPI PUSH2 0x2535 PUSH2 0x24A0 JUMP JUMPDEST JUMPDEST PUSH2 0x253F DUP3 PUSH2 0x23B2 JUMP JUMPDEST SWAP1 POP PUSH1 0x20 DUP2 ADD SWAP1 POP SWAP2 SWAP1 POP JUMP JUMPDEST DUP3 DUP2 DUP4 CALLDATACOPY PUSH1 0x0 DUP4 DUP4 ADD MSTORE POP POP POP JUMP JUMPDEST PUSH1 0x0 PUSH2 0x256E PUSH2 0x2569 DUP5 PUSH2 0x251B JUMP JUMPDEST PUSH2 0x2500 JUMP JUMPDEST SWAP1 POP DUP3 DUP2 MSTORE PUSH1 0x20 DUP2 ADD DUP5 DUP5 DUP5 ADD GT ISZERO PUSH2 0x258A JUMPI PUSH2 0x2589 PUSH2 0x249B JUMP JUMPDEST JUMPDEST PUSH2 0x2595 DUP5 DUP3 DUP6 PUSH2 0x254C JUMP JUMPDEST POP SWAP4 SWAP3 POP POP POP JUMP JUMPDEST PUSH1 0x0 DUP3 PUSH1 0x1F DUP4 ADD SLT PUSH2 0x25B2 JUMPI PUSH2 0x25B1 PUSH2 0x2496 JUMP JUMPDEST JUMPDEST DUP2 CALLDATALOAD PUSH2 0x25C2 DUP5 DUP3 PUSH1 0x20 DUP7 ADD PUSH2 0x255B JUMP JUMPDEST SWAP2 POP POP SWAP3 SWAP2 POP POP JUMP JUMPDEST PUSH1 0x0 PUSH1 0x20 DUP3 DUP5 SUB SLT ISZERO PUSH2 0x25E1 JUMPI PUSH2 0x25E0 PUSH2 0x22AF JUMP JUMPDEST JUMPDEST PUSH1 0x0 DUP3 ADD CALLDATALOAD PUSH8 0xFFFFFFFFFFFFFFFF DUP2 GT ISZERO PUSH2 0x25FF JUMPI PUSH2 0x25FE PUSH2 0x22B4 JUMP JUMPDEST JUMPDEST PUSH2 0x260B DUP5 DUP3 DUP6 ADD PUSH2 0x259D JUMP JUMPDEST SWAP2 POP POP SWAP3 SWAP2 POP POP JUMP JUMPDEST PUSH1 0x0 DUP1 PUSH1 0x40 DUP4 DUP6 SUB SLT ISZERO PUSH2 0x262B JUMPI PUSH2 0x262A PUSH2 0x22AF JUMP JUMPDEST JUMPDEST PUSH1 0x0 PUSH2 0x2639 DUP6 DUP3 DUP7 ADD PUSH2 0x2302 JUMP JUMPDEST SWAP3 POP POP PUSH1 0x20 DUP4 ADD CALLDATALOAD PUSH8 0xFFFFFFFFFFFFFFFF DUP2 GT ISZERO PUSH2 0x265A JUMPI PUSH2 0x2659 PUSH2 0x22B4 JUMP JUMPDEST JUMPDEST PUSH2 0x2666 DUP6 DUP3 DUP7 ADD PUSH2 0x259D JUMP JUMPDEST SWAP2 POP POP SWAP3 POP SWAP3 SWAP1 POP JUMP JUMPDEST PUSH1 0x0 PUSH1 0x40 DUP3 ADD SWAP1 POP PUSH2 0x2685 PUSH1 0x0 DUP4 ADD DUP6 PUSH2 0x2344 JUMP JUMPDEST DUP2 DUP2 SUB PUSH1 0x20 DUP4 ADD MSTORE PUSH2 0x2697 DUP2 DUP5 PUSH2 0x23C3 JUMP JUMPDEST SWAP1 POP SWAP4 SWAP3 POP POP POP JUMP JUMPDEST PUSH1 0x0 PUSH1 0x20 DUP3 ADD SWAP1 POP DUP2 DUP2 SUB PUSH1 0x0 DUP4 ADD MSTORE PUSH2 0x26BA DUP2 DUP5 PUSH2 0x23C3 JUMP JUMPDEST SWAP1 POP SWAP3 SWAP2 POP POP JUMP JUMPDEST PUSH2 0x26CB DUP2 PUSH2 0x22D9 JUMP JUMPDEST DUP3 MSTORE POP POP JUMP JUMPDEST PUSH2 0x26DA DUP2 PUSH2 0x2353 JUMP JUMPDEST DUP3 MSTORE POP POP JUMP JUMPDEST PUSH1 0x0 DUP3 DUP3 MSTORE PUSH1 0x20 DUP3 ADD SWAP1 POP SWAP3 SWAP2 POP POP JUMP JUMPDEST PUSH1 0x0 PUSH2 0x26FC DUP3 PUSH2 0x236C JUMP JUMPDEST PUSH2 0x2706 DUP2 DUP6 PUSH2 0x26E0 JUMP JUMPDEST SWAP4 POP PUSH2 0x2716 DUP2 DUP6 PUSH1 0x20 DUP7 ADD PUSH2 0x2388 JUMP JUMPDEST PUSH2 0x271F DUP2 PUSH2 0x23B2 JUMP JUMPDEST DUP5 ADD SWAP2 POP POP SWAP3 SWAP2 POP POP JUMP JUMPDEST PUSH1 0x0 DUP2 MLOAD SWAP1 POP SWAP2 SWAP1 POP JUMP JUMPDEST PUSH1 0x0 DUP3 DUP3 MSTORE PUSH1 0x20 DUP3 ADD SWAP1 POP SWAP3 SWAP2 POP POP JUMP JUMPDEST PUSH1 0x0 DUP2 SWAP1 POP PUSH1 0x20 DUP3 ADD SWAP1 POP SWAP2 SWAP1 POP JUMP JUMPDEST PUSH1 0x0 PUSH1 0xFF DUP3 AND SWAP1 POP SWAP2 SWAP1 POP JUMP JUMPDEST PUSH2 0x276C DUP2 PUSH2 0x2756 JUMP JUMPDEST DUP3 MSTORE POP POP JUMP JUMPDEST PUSH1 0x0 PUSH1 0xE0 DUP4 ADD PUSH1 0x0 DUP4 ADD MLOAD DUP5 DUP3 SUB PUSH1 0x0 DUP7 ADD MSTORE PUSH2 0x278F DUP3 DUP3 PUSH2 0x26F1 JUMP JUMPDEST SWAP2 POP POP PUSH1 0x20 DUP4 ADD MLOAD PUSH2 0x27A4 PUSH1 0x20 DUP7 ADD DUP3 PUSH2 0x26C2 JUMP JUMPDEST POP PUSH1 0x40 DUP4 ADD MLOAD PUSH2 0x27B7 PUSH1 0x40 DUP7 ADD DUP3 PUSH2 0x26C2 JUMP JUMPDEST POP PUSH1 0x60 DUP4 ADD MLOAD PUSH2 0x27CA PUSH1 0x60 DUP7 ADD DUP3 PUSH2 0x2763 JUMP JUMPDEST POP PUSH1 0x80 DUP4 ADD MLOAD PUSH2 0x27DD PUSH1 0x80 DUP7 ADD DUP3 PUSH2 0x2763 JUMP JUMPDEST POP PUSH1 0xA0 DUP4 ADD MLOAD PUSH2 0x27F0 PUSH1 0xA0 DUP7 ADD DUP3 PUSH2 0x2763 JUMP JUMPDEST POP PUSH1 0xC0 DUP4 ADD MLOAD PUSH2 0x2803 PUSH1 0xC0 DUP7 ADD DUP3 PUSH2 0x26D1 JUMP JUMPDEST POP DUP1 SWAP2 POP POP SWAP3 SWAP2 POP POP JUMP JUMPDEST PUSH1 0x0 PUSH2 0x281A DUP4 DUP4 PUSH2 0x2772 JUMP JUMPDEST SWAP1 POP SWAP3 SWAP2 POP POP JUMP JUMPDEST PUSH1 0x0 PUSH1 0x20 DUP3 ADD SWAP1 POP SWAP2 SWAP1 POP JUMP JUMPDEST PUSH1 0x0 PUSH2 0x283A DUP3 PUSH2 0x272A JUMP JUMPDEST PUSH2 0x2844 DUP2 DUP6 PUSH2 0x2735 JUMP JUMPDEST SWAP4 POP DUP4 PUSH1 0x20 DUP3 MUL DUP6 ADD PUSH2 0x2856 DUP6 PUSH2 0x2746 JUMP JUMPDEST DUP1 PUSH1 0x0 JUMPDEST DUP6 DUP2 LT ISZERO PUSH2 0x2892 JUMPI DUP5 DUP5 SUB DUP10 MSTORE DUP2 MLOAD PUSH2 0x2873 DUP6 DUP3 PUSH2 0x280E JUMP JUMPDEST SWAP5 POP PUSH2 0x287E DUP4 PUSH2 0x2822 JUMP JUMPDEST SWAP3 POP PUSH1 0x20 DUP11 ADD SWAP10 POP POP PUSH1 0x1 DUP2 ADD SWAP1 POP PUSH2 0x285A JUMP JUMPDEST POP DUP3 SWAP8 POP DUP8 SWAP6 POP POP POP POP POP POP SWAP3 SWAP2 POP POP JUMP JUMPDEST PUSH1 0x0 PUSH2 0x120 DUP4 ADD PUSH1 0x0 DUP4 ADD MLOAD PUSH2 0x28BD PUSH1 0x0 DUP7 ADD DUP3 PUSH2 0x26C2 JUMP JUMPDEST POP PUSH1 0x20 DUP4 ADD MLOAD PUSH2 0x28D0 PUSH1 0x20 DUP7 ADD DUP3 PUSH2 0x26D1 JUMP JUMPDEST POP PUSH1 0x40 DUP4 ADD MLOAD DUP5 DUP3 SUB PUSH1 0x40 DUP7 ADD MSTORE PUSH2 0x28E8 DUP3 DUP3 PUSH2 0x26F1 JUMP JUMPDEST SWAP2 POP POP PUSH1 0x60 DUP4 ADD MLOAD DUP5 DUP3 SUB PUSH1 0x60 DUP7 ADD MSTORE PUSH2 0x2902 DUP3 DUP3 PUSH2 0x26F1 JUMP JUMPDEST SWAP2 POP POP PUSH1 0x80 DUP4 ADD MLOAD DUP5 DUP3 SUB PUSH1 0x80 DUP7 ADD MSTORE PUSH2 0x291C DUP3 DUP3 PUSH2 0x26F1 JUMP JUMPDEST SWAP2 POP POP PUSH1 0xA0 DUP4 ADD MLOAD DUP5 DUP3 SUB PUSH1 0xA0 DUP7 ADD MSTORE PUSH2 0x2936 DUP3 DUP3 PUSH2 0x26F1 JUMP JUMPDEST SWAP2 POP POP PUSH1 0xC0 DUP4 ADD MLOAD PUSH2 0x294B PUSH1 0xC0 DUP7 ADD DUP3 PUSH2 0x26D1 JUMP JUMPDEST POP PUSH1 0xE0 DUP4 ADD MLOAD PUSH2 0x295E PUSH1 0xE0 DUP7 ADD DUP3 PUSH2 0x26D1 JUMP JUMPDEST POP PUSH2 0x100 DUP4 ADD MLOAD DUP5 DUP3 SUB PUSH2 0x100 DUP7 ADD MSTORE PUSH2 0x2978 DUP3 DUP3 PUSH2 0x282F JUMP JUMPDEST SWAP2 POP POP DUP1 SWAP2 POP POP SWAP3 SWAP2 POP POP JUMP JUMPDEST PUSH1 0x0 PUSH1 0x20 DUP3 ADD SWAP1 POP DUP2 DUP2 SUB PUSH1 0x0 DUP4 ADD MSTORE PUSH2 0x299F DUP2 DUP5 PUSH2 0x28A4 JUMP JUMPDEST SWAP1 POP SWAP3 SWAP2 POP POP JUMP JUMPDEST PUSH1 0x0 DUP2 ISZERO ISZERO SWAP1 POP SWAP2 SWAP1 POP JUMP JUMPDEST PUSH2 0x29BC DUP2 PUSH2 0x29A7 JUMP JUMPDEST DUP3 MSTORE POP POP JUMP JUMPDEST PUSH1 0x0 PUSH1 0x20 DUP3 ADD SWAP1 POP PUSH2 0x29D7 PUSH1 0x0 DUP4 ADD DUP5 PUSH2 0x29B3 JUMP JUMPDEST SWAP3 SWAP2 POP POP JUMP JUMPDEST PUSH2 0x29E6 DUP2 PUSH2 0x2756 JUMP JUMPDEST DUP2 EQ PUSH2 0x29F1 JUMPI PUSH1 0x0 DUP1 REVERT JUMPDEST POP JUMP JUMPDEST PUSH1 0x0 DUP2 CALLDATALOAD SWAP1 POP PUSH2 0x2A03 DUP2 PUSH2 0x29DD JUMP JUMPDEST SWAP3 SWAP2 POP POP JUMP JUMPDEST PUSH1 0x0 DUP1 PUSH1 0x0 DUP1 PUSH1 0x0 DUP1 PUSH1 0xC0 DUP8 DUP10 SUB SLT ISZERO PUSH2 0x2A26 JUMPI PUSH2 0x2A25 PUSH2 0x22AF JUMP JUMPDEST JUMPDEST PUSH1 0x0 DUP8 ADD CALLDATALOAD PUSH8 0xFFFFFFFFFFFFFFFF DUP2 GT ISZERO PUSH2 0x2A44 JUMPI PUSH2 0x2A43 PUSH2 0x22B4 JUMP JUMPDEST JUMPDEST PUSH2 0x2A50 DUP10 DUP3 DUP11 ADD PUSH2 0x259D JUMP JUMPDEST SWAP7 POP POP PUSH1 0x20 PUSH2 0x2A61 DUP10 DUP3 DUP11 ADD PUSH2 0x2302 JUMP JUMPDEST SWAP6 POP POP PUSH1 0x40 PUSH2 0x2A72 DUP10 DUP3 DUP11 ADD PUSH2 0x2302 JUMP JUMPDEST SWAP5 POP POP PUSH1 0x60 PUSH2 0x2A83 DUP10 DUP3 DUP11 ADD PUSH2 0x29F4 JUMP JUMPDEST SWAP4 POP POP PUSH1 0x80 PUSH2 0x2A94 DUP10 DUP3 DUP11 ADD PUSH2 0x29F4 JUMP JUMPDEST SWAP3 POP POP PUSH1 0xA0 PUSH2 0x2AA5 DUP10 DUP3 DUP11 ADD PUSH2 0x29F4 JUMP JUMPDEST SWAP2 POP POP SWAP3 SWAP6 POP SWAP3 SWAP6 POP SWAP3 SWAP6 JUMP JUMPDEST PUSH1 0x0 DUP3 DUP3 MSTORE PUSH1 0x20 DUP3 ADD SWAP1 POP SWAP3 SWAP2 POP POP JUMP JUMPDEST PUSH1 0x0 PUSH2 0x2ACE DUP3 PUSH2 0x272A JUMP JUMPDEST PUSH2 0x2AD8 DUP2 DUP6 PUSH2 0x2AB2 JUMP JUMPDEST SWAP4 POP DUP4 PUSH1 0x20 DUP3 MUL DUP6 ADD PUSH2 0x2AEA DUP6 PUSH2 0x2746 JUMP JUMPDEST DUP1 PUSH1 0x0 JUMPDEST DUP6 DUP2 LT ISZERO PUSH2 0x2B26 JUMPI DUP5 DUP5 SUB DUP10 MSTORE DUP2 MLOAD PUSH2 0x2B07 DUP6 DUP3 PUSH2 0x280E JUMP JUMPDEST SWAP5 POP PUSH2 0x2B12 DUP4 PUSH2 0x2822 JUMP JUMPDEST SWAP3 POP PUSH1 0x20 DUP11 ADD SWAP10 POP POP PUSH1 0x1 DUP2 ADD SWAP1 POP PUSH2 0x2AEE JUMP JUMPDEST POP DUP3 SWAP8 POP DUP8 SWAP6 POP POP POP POP POP POP SWAP3 SWAP2 POP POP JUMP JUMPDEST PUSH1 0x0 PUSH1 0x20 DUP3 ADD SWAP1 POP DUP2 DUP2 SUB PUSH1 0x0 DUP4 ADD MSTORE PUSH2 0x2B52 DUP2 DUP5 PUSH2 0x2AC3 JUMP JUMPDEST SWAP1 POP SWAP3 SWAP2 POP POP JUMP JUMPDEST PUSH32 0x4E487B7100000000000000000000000000000000000000000000000000000000 PUSH1 0x0 MSTORE PUSH1 0x22 PUSH1 0x4 MSTORE PUSH1 0x24 PUSH1 0x0 REVERT JUMPDEST PUSH1 0x0 PUSH1 0x2 DUP3 DIV SWAP1 POP PUSH1 0x1 DUP3 AND DUP1 PUSH2 0x2BA1 JUMPI PUSH1 0x7F DUP3 AND SWAP2 POP JUMPDEST PUSH1 0x20 DUP3 LT DUP2 SUB PUSH2 0x2BB4 JUMPI PUSH2 0x2BB3 PUSH2 0x2B5A JUMP JUMPDEST JUMPDEST POP SWAP2 SWAP1 POP JUMP JUMPDEST PUSH32 0x5468697320646F63746F7220616C7265616479206578697374732E0000000000 PUSH1 0x0 DUP3 ADD MSTORE POP JUMP JUMPDEST PUSH1 0x0 PUSH2 0x2BF0 PUSH1 0x1B DUP4 PUSH2 0x2377 JUMP JUMPDEST SWAP2 POP PUSH2 0x2BFB DUP3 PUSH2 0x2BBA JUMP JUMPDEST PUSH1 0x20 DUP3 ADD SWAP1 POP SWAP2 SWAP1 POP JUMP JUMPDEST PUSH1 0x0 PUSH1 0x20 DUP3 ADD SWAP1 POP DUP2 DUP2 SUB PUSH1 0x0 DUP4 ADD MSTORE PUSH2 0x2C1F DUP2 PUSH2 0x2BE3 JUMP JUMPDEST SWAP1 POP SWAP2 SWAP1 POP JUMP JUMPDEST PUSH1 0x0 DUP2 SWAP1 POP DUP2 PUSH1 0x0 MSTORE PUSH1 0x20 PUSH1 0x0 KECCAK256 SWAP1 POP SWAP2 SWAP1 POP JUMP JUMPDEST PUSH1 0x0 PUSH1 0x20 PUSH1 0x1F DUP4 ADD DIV SWAP1 POP SWAP2 SWAP1 POP JUMP JUMPDEST PUSH1 0x0 DUP3 DUP3 SHL SWAP1 POP SWAP3 SWAP2 POP POP JUMP JUMPDEST PUSH1 0x0 PUSH1 0x8 DUP4 MUL PUSH2 0x2C88 PUSH32 0xFFFFFFFFFFFFFFFFFFFFFFFFFFFFFFFFFFFFFFFFFFFFFFFFFFFFFFFFFFFFFFFF DUP3 PUSH2 0x2C4B JUMP JUMPDEST PUSH2 0x2C92 DUP7 DUP4 PUSH2 0x2C4B JUMP JUMPDEST SWAP6 POP DUP1 NOT DUP5 AND SWAP4 POP DUP1 DUP7 AND DUP5 OR SWAP3 POP POP POP SWAP4 SWAP3 POP POP POP JUMP JUMPDEST PUSH1 0x0 DUP2 SWAP1 POP SWAP2 SWAP1 POP JUMP JUMPDEST PUSH1 0x0 PUSH2 0x2CCF PUSH2 0x2CCA PUSH2 0x2CC5 DUP5 PUSH2 0x2353 JUMP JUMPDEST PUSH2 0x2CAA JUMP JUMPDEST PUSH2 0x2353 JUMP JUMPDEST SWAP1 POP SWAP2 SWAP1 POP JUMP JUMPDEST PUSH1 0x0 DUP2 SWAP1 POP SWAP2 SWAP1 POP JUMP JUMPDEST PUSH2 0x2CE9 DUP4 PUSH2 0x2CB4 JUMP JUMPDEST PUSH2 0x2CFD PUSH2 0x2CF5 DUP3 PUSH2 0x2CD6 JUMP JUMPDEST DUP5 DUP5 SLOAD PUSH2 0x2C58 JUMP JUMPDEST DUP3 SSTORE POP POP POP POP JUMP JUMPDEST PUSH1 0x0 SWAP1 JUMP JUMPDEST PUSH2 0x2D12 PUSH2 0x2D05 JUMP JUMPDEST PUSH2 0x2D1D DUP2 DUP5 DUP5 PUSH2 0x2CE0 JUMP JUMPDEST POP POP POP JUMP JUMPDEST JUMPDEST DUP2 DUP2 LT ISZERO PUSH2 0x2D41 JUMPI PUSH2 0x2D36 PUSH1 0x0 DUP3 PUSH2 0x2D0A JUMP JUMPDEST PUSH1 0x1 DUP2 ADD SWAP1 POP PUSH2 0x2D23 JUMP JUMPDEST POP POP JUMP JUMPDEST PUSH1 0x1F DUP3 GT ISZERO PUSH2 0x2D86 JUMPI PUSH2 0x2D57 DUP2 PUSH2 0x2C26 JUMP JUMPDEST PUSH2 0x2D60 DUP5 PUSH2 0x2C3B JUMP JUMPDEST DUP2 ADD PUSH1 0x20 DUP6 LT ISZERO PUSH2 0x2D6F JUMPI DUP2 SWAP1 POP JUMPDEST PUSH2 0x2D83 PUSH2 0x2D7B DUP6 PUSH2 0x2C3B JUMP JUMPDEST DUP4 ADD DUP3 PUSH2 0x2D22 JUMP JUMPDEST POP POP JUMPDEST POP POP POP JUMP JUMPDEST PUSH1 0x0 DUP3 DUP3 SHR SWAP1 POP SWAP3 SWAP2 POP POP JUMP JUMPDEST PUSH1 0x0 PUSH2 0x2DA9 PUSH1 0x0 NOT DUP5 PUSH1 0x8 MUL PUSH2 0x2D8B JUMP JUMPDEST NOT DUP1 DUP4 AND SWAP2 POP POP SWAP3 SWAP2 POP POP JUMP JUMPDEST PUSH1 0x0 PUSH2 0x2DC2 DUP4 DUP4 PUSH2 0x2D98 JUMP JUMPDEST SWAP2 POP DUP3 PUSH1 0x2 MUL DUP3 OR SWAP1 POP SWAP3 SWAP2 POP POP JUMP JUMPDEST PUSH2 0x2DDB DUP3 PUSH2 0x236C JUMP JUMPDEST PUSH8 0xFFFFFFFFFFFFFFFF DUP2 GT ISZERO PUSH2 0x2DF4 JUMPI PUSH2 0x2DF3 PUSH2 0x24A0 JUMP JUMPDEST JUMPDEST PUSH2 0x2DFE DUP3 SLOAD PUSH2 0x2B89 JUMP JUMPDEST PUSH2 0x2E09 DUP3 DUP3 DUP6 PUSH2 0x2D45 JUMP JUMPDEST PUSH1 0x0 PUSH1 0x20 SWAP1 POP PUSH1 0x1F DUP4 GT PUSH1 0x1 DUP2 EQ PUSH2 0x2E3C JUMPI PUSH1 0x0 DUP5 ISZERO PUSH2 0x2E2A JUMPI DUP3 DUP8 ADD MLOAD SWAP1 POP JUMPDEST PUSH2 0x2E34 DUP6 DUP3 PUSH2 0x2DB6 JUMP JUMPDEST DUP7 SSTORE POP PUSH2 0x2E9C JUMP JUMPDEST PUSH1 0x1F NOT DUP5 AND PUSH2 0x2E4A DUP7 PUSH2 0x2C26 JUMP JUMPDEST PUSH1 0x0 JUMPDEST DUP3 DUP2 LT ISZERO PUSH2 0x2E72 JUMPI DUP5 DUP10 ADD MLOAD DUP3 SSTORE PUSH1 0x1 DUP3 ADD SWAP2 POP PUSH1 0x20 DUP6 ADD SWAP5 POP PUSH1 0x20 DUP2 ADD SWAP1 POP PUSH2 0x2E4D JUMP JUMPDEST DUP7 DUP4 LT ISZERO PUSH2 0x2E8F JUMPI DUP5 DUP10 ADD MLOAD PUSH2 0x2E8B PUSH1 0x1F DUP10 AND DUP3 PUSH2 0x2D98 JUMP JUMPDEST DUP4 SSTORE POP JUMPDEST PUSH1 0x1 PUSH1 0x2 DUP9 MUL ADD DUP9 SSTORE POP POP POP JUMPDEST POP POP POP POP POP POP JUMP JUMPDEST PUSH1 0x0 PUSH1 0x20 DUP3 ADD SWAP1 POP PUSH2 0x2EB9 PUSH1 0x0 DUP4 ADD DUP5 PUSH2 0x2344 JUMP JUMPDEST SWAP3 SWAP2 POP POP JUMP JUMPDEST PUSH32 0x5468697320696E737572616E636520616C7265616479206578697374732E0000 PUSH1 0x0 DUP3 ADD MSTORE POP JUMP JUMPDEST PUSH1 0x0 PUSH2 0x2EF5 PUSH1 0x1E DUP4 PUSH2 0x2377 JUMP JUMPDEST SWAP2 POP PUSH2 0x2F00 DUP3 PUSH2 0x2EBF JUMP JUMPDEST PUSH1 0x20 DUP3 ADD SWAP1 POP SWAP2 SWAP1 POP JUMP JUMPDEST PUSH1 0x0 PUSH1 0x20 DUP3 ADD SWAP1 POP DUP2 DUP2 SUB PUSH1 0x0 DUP4 ADD MSTORE PUSH2 0x2F24 DUP2 PUSH2 0x2EE8 JUMP JUMPDEST SWAP1 POP SWAP2 SWAP1 POP JUMP JUMPDEST PUSH32 0x53656E646572206973206E6F74206120646F63746F7200000000000000000000 PUSH1 0x0 DUP3 ADD MSTORE POP JUMP JUMPDEST PUSH1 0x0 PUSH2 0x2F61 PUSH1 0x16 DUP4 PUSH2 0x2377 JUMP JUMPDEST SWAP2 POP PUSH2 0x2F6C DUP3 PUSH2 0x2F2B JUMP JUMPDEST PUSH1 0x20 DUP3 ADD SWAP1 POP SWAP2 SWAP1 POP JUMP JUMPDEST PUSH1 0x0 PUSH1 0x20 DUP3 ADD SWAP1 POP DUP2 DUP2 SUB PUSH1 0x0 DUP4 ADD MSTORE PUSH2 0x2F90 DUP2 PUSH2 0x2F54 JUMP JUMPDEST SWAP1 POP SWAP2 SWAP1 POP JUMP JUMPDEST PUSH32 0x5468697320686F73706974616C20616C7265616479206578697374732E000000 PUSH1 0x0 DUP3 ADD MSTORE POP JUMP JUMPDEST PUSH1 0x0 PUSH2 0x2FCD PUSH1 0x1D DUP4 PUSH2 0x2377 JUMP JUMPDEST SWAP2 POP PUSH2 0x2FD8 DUP3 PUSH2 0x2F97 JUMP JUMPDEST PUSH1 0x20 DUP3 ADD SWAP1 POP SWAP2 SWAP1 POP JUMP JUMPDEST PUSH1 0x0 PUSH1 0x20 DUP3 ADD SWAP1 POP DUP2 DUP2 SUB PUSH1 0x0 DUP4 ADD MSTORE PUSH2 0x2FFC DUP2 PUSH2 0x2FC0 JUMP JUMPDEST SWAP1 POP SWAP2 SWAP1 POP JUMP JUMPDEST PUSH32 0x50617469656E7420646F6573206E6F7420657869737400000000000000000000 PUSH1 0x0 DUP3 ADD MSTORE POP JUMP JUMPDEST PUSH1 0x0 PUSH2 0x3039 PUSH1 0x16 DUP4 PUSH2 0x2377 JUMP JUMPDEST SWAP2 POP PUSH2 0x3044 DUP3 PUSH2 0x3003 JUMP JUMPDEST PUSH1 0x20 DUP3 ADD SWAP1 POP SWAP2 SWAP1 POP JUMP JUMPDEST PUSH1 0x0 PUSH1 0x20 DUP3 ADD SWAP1 POP DUP2 DUP2 SUB PUSH1 0x0 DUP4 ADD MSTORE PUSH2 0x3068 DUP2 PUSH2 0x302C JUMP JUMPDEST SWAP1 POP SWAP2 SWAP1 POP JUMP JUMPDEST PUSH1 0x0 PUSH1 0x60 DUP3 ADD SWAP1 POP DUP2 DUP2 SUB PUSH1 0x0 DUP4 ADD MSTORE PUSH2 0x3089 DUP2 DUP7 PUSH2 0x23C3 JUMP JUMPDEST SWAP1 POP PUSH2 0x3098 PUSH1 0x20 DUP4 ADD DUP6 PUSH2 0x2344 JUMP JUMPDEST PUSH2 0x30A5 PUSH1 0x40 DUP4 ADD DUP5 PUSH2 0x2344 JUMP JUMPDEST SWAP5 SWAP4 POP POP POP POP JUMP JUMPDEST PUSH32 0x53656E64657220646F6573206E6F742065786973740000000000000000000000 PUSH1 0x0 DUP3 ADD MSTORE POP JUMP JUMPDEST PUSH1 0x0 PUSH2 0x30E3 PUSH1 0x15 DUP4 PUSH2 0x2377 JUMP JUMPDEST SWAP2 POP PUSH2 0x30EE DUP3 PUSH2 0x30AD JUMP JUMPDEST PUSH1 0x20 DUP3 ADD SWAP1 POP SWAP2 SWAP1 POP JUMP JUMPDEST PUSH1 0x0 PUSH1 0x20 DUP3 ADD SWAP1 POP DUP2 DUP2 SUB PUSH1 0x0 DUP4 ADD MSTORE PUSH2 0x3112 DUP2 PUSH2 0x30D6 JUMP JUMPDEST SWAP1 POP SWAP2 SWAP1 POP JUMP JUMPDEST PUSH32 0x546869732070617469656E7420616C7265616479206578697374732E00000000 PUSH1 0x0 DUP3 ADD MSTORE POP JUMP JUMPDEST PUSH1 0x0 PUSH2 0x314F PUSH1 0x1C DUP4 PUSH2 0x2377 JUMP JUMPDEST SWAP2 POP PUSH2 0x315A DUP3 PUSH2 0x3119 JUMP JUMPDEST PUSH1 0x20 DUP3 ADD SWAP1 POP SWAP2 SWAP1 POP JUMP JUMPDEST PUSH1 0x0 PUSH1 0x20 DUP3 ADD SWAP1 POP DUP2 DUP2 SUB PUSH1 0x0 DUP4 ADD MSTORE PUSH2 0x317E DUP2 PUSH2 0x3142 JUMP JUMPDEST SWAP1 POP SWAP2 SWAP1 POP JUMP INVALID LOG2 PUSH5 0x6970667358 0x22 SLT KECCAK256 0x4C 0xEE 0x22 0x2E SWAP16 PREVRANDAO 0xC0 SWAP4 COINBASE 0xDE 0xAF 0xED 0x2F 0xB2 0x5D SWAP12 0xC5 STOP 0x5D SHR 0xC9 PC 0xD6 DUP16 0xAB 0x2B 0xBC 0xCF 0xE9 PUSH16 0x593864736F6C63430008120033000000 "
				},
				"gasEstimates": {
					"creation": {
						"codeDepositCost": "2546200",
						"executionCost": "2748",
						"totalCost": "2548948"
					},
					"external": {
						"addDoctor(string)": "infinite",
						"addHospital(address,string)": "infinite",
						"addInsurance(address,string)": "infinite",
						"addPatient(address,string)": "infinite",
						"addRecord(string,address,address,uint8,uint8,uint8)": "infinite",
						"doctors(address)": "infinite",
						"getPatientData(address)": "infinite",
						"getPatientExists(address)": "5217",
						"getRecords(address)": "infinite",
						"getSenderRole()": "infinite",
						"hospitals(address)": "infinite",
						"insurances(address)": "infinite",
						"patients(address)": "infinite"
					}
				},
				"methodIdentifiers": {
					"addDoctor(string)": "0be61700",
					"addHospital(address,string)": "457bcea9",
					"addInsurance(address,string)": "26b5440a",
					"addPatient(address,string)": "db66c060",
					"addRecord(string,address,address,uint8,uint8,uint8)": "81974553",
					"doctors(address)": "a9583c22",
					"getPatientData(address)": "48e81852",
					"getPatientExists(address)": "7bc769ed",
					"getRecords(address)": "a0076e84",
					"getSenderRole()": "3a88162e",
					"hospitals(address)": "f093cf80",
					"insurances(address)": "27bae60a",
					"patients(address)": "0869cfbc"
				}
			},
			"storageLayout": {
				"storage": [
					{
						"astId": 57,
						"contract": "solidity/MedicRecord.sol:MedicRecord",
						"label": "patients",
						"offset": 0,
						"slot": "0",
						"type": "t_mapping(t_address,t_struct(Patient)22_storage)"
					},
					{
						"astId": 62,
						"contract": "solidity/MedicRecord.sol:MedicRecord",
						"label": "doctors",
						"offset": 0,
						"slot": "1",
						"type": "t_mapping(t_address,t_struct(Doctor)42_storage)"
					},
					{
						"astId": 67,
						"contract": "solidity/MedicRecord.sol:MedicRecord",
						"label": "hospitals",
						"offset": 0,
						"slot": "2",
						"type": "t_mapping(t_address,t_struct(Hospital)47_storage)"
					},
					{
						"astId": 72,
						"contract": "solidity/MedicRecord.sol:MedicRecord",
						"label": "insurances",
						"offset": 0,
						"slot": "3",
						"type": "t_mapping(t_address,t_struct(Insurance)52_storage)"
					}
				],
				"types": {
					"t_address": {
						"encoding": "inplace",
						"label": "address",
						"numberOfBytes": "20"
					},
					"t_array(t_struct(Record)37_storage)dyn_storage": {
						"base": "t_struct(Record)37_storage",
						"encoding": "dynamic_array",
						"label": "struct MedicRecord.Record[]",
						"numberOfBytes": "32"
					},
					"t_mapping(t_address,t_struct(Doctor)42_storage)": {
						"encoding": "mapping",
						"key": "t_address",
						"label": "mapping(address => struct MedicRecord.Doctor)",
						"numberOfBytes": "32",
						"value": "t_struct(Doctor)42_storage"
					},
					"t_mapping(t_address,t_struct(Hospital)47_storage)": {
						"encoding": "mapping",
						"key": "t_address",
						"label": "mapping(address => struct MedicRecord.Hospital)",
						"numberOfBytes": "32",
						"value": "t_struct(Hospital)47_storage"
					},
					"t_mapping(t_address,t_struct(Insurance)52_storage)": {
						"encoding": "mapping",
						"key": "t_address",
						"label": "mapping(address => struct MedicRecord.Insurance)",
						"numberOfBytes": "32",
						"value": "t_struct(Insurance)52_storage"
					},
					"t_mapping(t_address,t_struct(Patient)22_storage)": {
						"encoding": "mapping",
						"key": "t_address",
						"label": "mapping(address => struct MedicRecord.Patient)",
						"numberOfBytes": "32",
						"value": "t_struct(Patient)22_storage"
					},
					"t_string_storage": {
						"encoding": "bytes",
						"label": "string",
						"numberOfBytes": "32"
					},
					"t_struct(Doctor)42_storage": {
						"encoding": "inplace",
						"label": "struct MedicRecord.Doctor",
						"members": [
							{
								"astId": 39,
								"contract": "solidity/MedicRecord.sol:MedicRecord",
								"label": "id",
								"offset": 0,
								"slot": "0",
								"type": "t_address"
							},
							{
								"astId": 41,
								"contract": "solidity/MedicRecord.sol:MedicRecord",
								"label": "nama",
								"offset": 0,
								"slot": "1",
								"type": "t_string_storage"
							}
						],
						"numberOfBytes": "64"
					},
					"t_struct(Hospital)47_storage": {
						"encoding": "inplace",
						"label": "struct MedicRecord.Hospital",
						"members": [
							{
								"astId": 44,
								"contract": "solidity/MedicRecord.sol:MedicRecord",
								"label": "id",
								"offset": 0,
								"slot": "0",
								"type": "t_address"
							},
							{
								"astId": 46,
								"contract": "solidity/MedicRecord.sol:MedicRecord",
								"label": "nama",
								"offset": 0,
								"slot": "1",
								"type": "t_string_storage"
							}
						],
						"numberOfBytes": "64"
					},
					"t_struct(Insurance)52_storage": {
						"encoding": "inplace",
						"label": "struct MedicRecord.Insurance",
						"members": [
							{
								"astId": 49,
								"contract": "solidity/MedicRecord.sol:MedicRecord",
								"label": "id",
								"offset": 0,
								"slot": "0",
								"type": "t_address"
							},
							{
								"astId": 51,
								"contract": "solidity/MedicRecord.sol:MedicRecord",
								"label": "nama",
								"offset": 0,
								"slot": "1",
								"type": "t_string_storage"
							}
						],
						"numberOfBytes": "64"
					},
					"t_struct(Patient)22_storage": {
						"encoding": "inplace",
						"label": "struct MedicRecord.Patient",
						"members": [
							{
								"astId": 3,
								"contract": "solidity/MedicRecord.sol:MedicRecord",
								"label": "id",
								"offset": 0,
								"slot": "0",
								"type": "t_address"
							},
							{
								"astId": 5,
								"contract": "solidity/MedicRecord.sol:MedicRecord",
								"label": "noKtp",
								"offset": 0,
								"slot": "1",
								"type": "t_uint256"
							},
							{
								"astId": 7,
								"contract": "solidity/MedicRecord.sol:MedicRecord",
								"label": "nama",
								"offset": 0,
								"slot": "2",
								"type": "t_string_storage"
							},
							{
								"astId": 9,
								"contract": "solidity/MedicRecord.sol:MedicRecord",
								"label": "alamat",
								"offset": 0,
								"slot": "3",
								"type": "t_string_storage"
							},
							{
								"astId": 11,
								"contract": "solidity/MedicRecord.sol:MedicRecord",
								"label": "jenisKelamin",
								"offset": 0,
								"slot": "4",
								"type": "t_string_storage"
							},
							{
								"astId": 13,
								"contract": "solidity/MedicRecord.sol:MedicRecord",
								"label": "golonganDarah",
								"offset": 0,
								"slot": "5",
								"type": "t_string_storage"
							},
							{
								"astId": 15,
								"contract": "solidity/MedicRecord.sol:MedicRecord",
								"label": "nomorTelepon",
								"offset": 0,
								"slot": "6",
								"type": "t_uint256"
							},
							{
								"astId": 17,
								"contract": "solidity/MedicRecord.sol:MedicRecord",
								"label": "noBpjs",
								"offset": 0,
								"slot": "7",
								"type": "t_uint256"
							},
							{
								"astId": 21,
								"contract": "solidity/MedicRecord.sol:MedicRecord",
								"label": "records",
								"offset": 0,
								"slot": "8",
								"type": "t_array(t_struct(Record)37_storage)dyn_storage"
							}
						],
						"numberOfBytes": "288"
					},
					"t_struct(Record)37_storage": {
						"encoding": "inplace",
						"label": "struct MedicRecord.Record",
						"members": [
							{
								"astId": 24,
								"contract": "solidity/MedicRecord.sol:MedicRecord",
								"label": "cid",
								"offset": 0,
								"slot": "0",
								"type": "t_string_storage"
							},
							{
								"astId": 26,
								"contract": "solidity/MedicRecord.sol:MedicRecord",
								"label": "patientId",
								"offset": 0,
								"slot": "1",
								"type": "t_address"
							},
							{
								"astId": 28,
								"contract": "solidity/MedicRecord.sol:MedicRecord",
								"label": "doctorId",
								"offset": 0,
								"slot": "2",
								"type": "t_address"
							},
							{
								"astId": 30,
								"contract": "solidity/MedicRecord.sol:MedicRecord",
								"label": "temperature",
								"offset": 20,
								"slot": "2",
								"type": "t_uint8"
							},
							{
								"astId": 32,
								"contract": "solidity/MedicRecord.sol:MedicRecord",
								"label": "sistol",
								"offset": 21,
								"slot": "2",
								"type": "t_uint8"
							},
							{
								"astId": 34,
								"contract": "solidity/MedicRecord.sol:MedicRecord",
								"label": "diastol",
								"offset": 22,
								"slot": "2",
								"type": "t_uint8"
							},
							{
								"astId": 36,
								"contract": "solidity/MedicRecord.sol:MedicRecord",
								"label": "timeAdded",
								"offset": 0,
								"slot": "3",
								"type": "t_uint256"
							}
						],
						"numberOfBytes": "128"
					},
					"t_uint256": {
						"encoding": "inplace",
						"label": "uint256",
						"numberOfBytes": "32"
					},
					"t_uint8": {
						"encoding": "inplace",
						"label": "uint8",
						"numberOfBytes": "1"
					}
				}
			},
			"userdoc": {
				"kind": "user",
				"methods": {},
				"version": 1
			}
		}
	}
}